:4000000000400020110000001D2500001D25000080B500AF02F0B4FA80B500AF2F4B12221A6005F05DFC2E4B180005F019FE012005F066FC102005F029FB2A4B2A4A1A602C
:400040002A4B8022D2051A60294B294A126802210A431A60274B284A1A60284B00221A60274B274A126808218A431A60FA23DB00180005F059FB234B180005F0D1FB224B86
:40008000224A1A60224B234A1A60234B9F2212021A601F4B214A1A60214B8822D2011A601B4B204A1A60204B802212061A601F4B00221A601E4B42221A601E4B41221A601B
:4000C0001D4B40221A60094B8022D2051A60034B00221A60C046BD4680BDC04630001040001BB70004010B40060000800C020B4078002E407C002E402D3E000064F02E40C1
:400100006CF02E40DC05000008030140007F3E000000014042FF00800403014041FF00800003014040FF008008010B4000010B4038010140300101400401014080B582B0C5
:4001400000AF72B6524B00221A60524B01221A70FB1D00221A7022E0FB1D1A7813005B009B185B004C4A9B183B603B681A78597809020A43997809040A43DB781B061343C2
:4001800018003B681A795B791B0213439BB2190002F05EF9FB1D1A78FB1D01321A70FB1D1B78012BD8D93D4A3D4B1100180002F05FF93C4BA02212011A803B4B01221A7049
:4001C0003A4BEE2212061A60394B992212041A60384BC02292041A60374BCC2292051A60364B992212041A60354B992212041A60344B354A1A60354B802212061A60344BD1
:40020000802252051A60334B992212041A60324BD02252051A60314B02221A60304B02221A60304A2F4B1B78DBB23C218B43DBB214210B43DBB213702B4A2B4B1B78DBB2A5
:4002400016210B43DBB21370284BD82212041A60274B20221A60274BC42292021A60264B20221A60254BC0221A60254B8822D2031A60244BC0221A60234B902292031A60FC
:40028000FFF7CAFE02F036F9C046BD4602B080BD6CF02E401C700F4008E1010038E1010014E1010000600F4002600F400000024000010240000202400003024000500F40BB
:4002C00010500F4020500F400400990024500F4028500F4030500F4038500F402000104000800F4001700F4000700F40080004400001044008010440180104400002044084
:4003000008020440000304400803044010B5064C2378002B07D1054B002B02D0044800E000BF0123237010BDD811002000000000ECD80100084B10B5002B03D007490848E4
:4003400000E000BF07480368002B00D110BD064B002BFBD09847F9E700000000DC110020ECD80100E80B00200000000080B582B000AF00F055F809F0C7FD01F0A5FA01F0DF
:40038000A3FB01F0F5FB1D4B1B78002B0BD11C4B1B889BB21A001B4B1B889BB2D21A96239B009A4204DD01F065FD144B00221A70BB1D154A1900100004F05EF8134B1B78FF
:4003C000022BD8D1BB1D1A888023DB0013409BB2002BD0D10E4B180005F060F8202005F079F802F053FA0B4B180002F0B7F90A4B01221A70094B01221A70BCE7EC0B002053
:4004000008240020F41100201C112E4012250020F0D80100A5090000F6110020080C002080B586B000AF62B65A4B180002F096F904F066FD04F052FEFF2004F0E7FDFF2066
:4004400004F0F4FDFF2004F0CFFE062004F0FEFD062004F013FE062004F028FE4E4B180000F060FA802004F0BFFE142005F0B2F9FF2004F0B9FE494B9B68494A10001900FA
:4004800020231A0009F0D7F8444B9B68DB7F1C2B15D8424B9B68DB7F1A00414B012199543E4B9B68DB7F01333E4A11783C4AD1543A4B9B68DB7F0233DAB2394BDA77374B88
:4004C000374A9A60384B7B617B695A1C7A611A781023FB181A707B691A781023FB185A701023FB181B78FF2B04D11023FB185B78FF2B39D01023FB181B78002B04D11023D5
:40050000FB185B78002B2FD01023FB185B781B021AB21023FB181B781BB213431BB29AB2224B1A801E4B54225A711D4B69229A711B4B7422DA711A4B61221A72184B6E2237
:400540005A72164B164A9A603B1D15221A813B1D02229A803B1D1022BA181A60144A381D0023002118F066FB05F024F8114B180004F0C2FF04F0E0FE202004F0ABFF0E4BBB
:40058000180004F08BFF202004F0A4FFC046BD4606B080BDA5090000CC0C0000600C00200C240020F00B002080F2FF0F0E120020242500205120000024D9010080B584B054
:4005C00000AF78600A00FB1C1A70FB1C1B78042B50D17B681B781A007B6803331B785343FF21180006F008FD03001A000F23FB181A707B6801331B781A007B6803331B786E
:400600005343FF21180006F0F7FC03001A000E23FB181A707B6802331B781A007B6803331B785343FF21180006F0E6FC03001A000D23FB181A700F23FB181B78DB43DBB294
:40064000180004F0E3FC0E23FB181B78DB43DBB2180004F0EBFC0D23FB181B78DB43DBB2180004F0C1FD054B180004F017FF202004F030FFC046BD4604B080BD78D90100AE
:4006800080B582B000AF0200FB1D1A70FB1D1B78062B27D89A00194BD3181B689F46184B180004F0FBFE22E0164B180004F0F6FE1DE0154B180004F0F1FE18E0134B1800C3
:4006C00004F0ECFE13E0124B180004F0E7FE0EE0104B180004F0E2FE09E00F4B180004F0DDFE04E00D4B180004F0D8FEC046202004F0F0FEC046BD4602B080BDB0DA0100B3
:4007000088D90100ACD90100D4D90100F8D9010020DA010044DA01006CDA010094DA010090B585B000AF0200FB1D1A70FB1D1B780A21180006F05CFC0B00DAB20C23FB189F
:400740001A70FC1DFB1D1B780A21180006F0CAFB03002370FB1D1B780A21180006F048FC0B00DAB20C23FB185A70FC1DFB1D1B780A21180006F0B6FB03002370FB1D1B78DD
:400780000A21180006F034FC0B00DAB20C23FB189A700C23FB189B78002B1BD10C23FB185B78002B07D10C23FB181B783033180004F0E2FD23E00C23FB185B7830331800B3
:4007C00004F0DAFD0C23FB181B783033180004F0D3FD14E00C23FB189B783033180004F0CBFD0C23FB185B783033180004F0C4FD0C23FB181B783033180004F0BDFDC04651
:40080000BD4605B090BDC04680B584B000AF0200FB1D1A70FB1D1B780F221340DAB20C23FB181A70FB1DFA1D127812091A70FB1D1B780F221340DAB20C23FB185A700C2316
:40084000FB185B78092B07D80C23FB185B783033180004F091FD06E00C23FB185B783733180004F089FD0C23FB181B78092B07D80C23FB181B783033180004F07DFD06E0EA
:400880000C23FB181B783733180004F075FDC046BD4604B080BDC04690B587B000AF78601D4B7B610021786806F0E2FC031E09D07B695A1C7A612D221A707B6880221206BA
:4008C00053407B60786806F0FBFC03003B61386906F084FF031C191C786806F0D7FD031C7B60786808F06EFD00220C4B07F004FF03000C001800210006F0FAFC0300FB60C4
:40090000FB683A690649786908F0A6FE024B1800BD4607B090BDC046F811002080842E41CCDA010080B582B000AF786005F032F80121002005F070F80121002005F09AF8BB
:400940007B681900002005F0FBF85A2004F068FF012005F0C5F804F0F3FF044B180004F063FCC046BD4602B080BDC0467109000080B500AF04F0BAFC05F02AF902000423E4
:40098000134009D0042005F031F9054B1B889BB201339AB2024B1A80C046BD4680BDC0460824002090B5C3B000AFF864B964FB6C412B00D1ACE016D8262B00D167E006D844
:4009C000012B29D0202B00D1BBE200F07AFF282B01D100F0E8FE01D200F00CFE2B2B00D183E000F06EFF4C2B00D1A3E006D8422B00D196E04A2B72D000F063FF4E2B00D151
:400A000062E201D200F0AAFE89225200934201D100F031FE00F055FFB04B180004F03EFD202004F057FDAE4B1B78002B0FD1F223FC18002001F036FF03002380F223FB1862
:400A40001B88002B1ED1A74B01221A701AE0F223FC18002001F0D8FF03002380F223FB181B88002B0ED1A04B180004F017FD202004F030FD9D4B1B889AB29D4B1A80994BEB
:400A800002221A70964B00221A7000F01AFF994B1B78062B01D000F0CEFE974B1B78002B01D000F0C8FEF223FC18002001F0FAFE03002380F223FB181B88002B01D000F007
:400AC000BAFE8E4B180004F0E9FC8A4B1B781800FFF7D6FD202004F0FDFC00F0ACFE884B180004F0DBFC00F0ECFE864B180004F0D5FCBB6C1B781800FFF786FE7D4B1B787F
:400B00001800FFF7BDFD202004F0E4FC00F0D9FE7D4B180004F0C2FC202004F0DBFC00F0D0FE7A4B180004F0B9FC202004F0D2FC00F0C7FEB023FB18BA6C13CA13C3126841
:400B40001A60734B180004F0A9FCB023FB189B89DBB21800FFF758FE202004F0BBFCB023FB189B89152B67D1B023FB181B89022B4ED1684B180004F091FCB023FB185B6859
:400B800001331B781B021AB2B023FB185B681B781BB213431BB29AB25F4B1A805E4B1B88002B04D05C4B1B885C4A934210D1B023FB189B8904221900122001F031F8584BA0
:400BC000180004F06BFC544B00221A8000F079FE514B1B88180001F0F3F8524AB023FB18181D0023002118F025F8202004F072FC4D4B54225A714C4B69229A714A4B74229A
:400C0000DA71494B61221A72474B6E225A7213E0B023FB189B890D221900122001F000F83D4B00221A80414B180004F037FC202004F050FC00F045FEB023FB189B890E2B73
:400C400000D031E1344B1B88002B00D122E1B023FB181B89082B00D012E1354B180004F01DFC202004F036FCB023FB185B681A78304B1A70B023FB185B6803331B781B0217
:400C80001AB2B023FB185B6802331B781BB213431BB29AB2284B1A80B023FB185B681A78264B1A70B023FB185B685A78234B5A70B023FB185B689A78204B9A70B023FB18AF
:400CC0005B68DA781D4BDA701D4B180004F0E6FB00237A1DFF32136046E0C046D8DA0100F6110020080C0020ECDA01000824002016120020122500200C1200200CDB010068
:400D000024DB010044DB010068DB010070DB010090DB0100ACDB01000E120020FFFF0000C4DB0100242500200C240020DCDB0100F0DB01001E1200202012002034240020DA
:400D400010DC0100B023FB185A687B1DFF331B68D3181B781800FFF757FD7B1DFF331B6801337A1DFF321360B023FB181B891A007B1DFF331B689A42E4DC202004F0AAFB8F
:400D8000AF4B1A78AE4B5B781900100001F004FB0300180008F0D4FA0022AA4B07F088F803000C001800210008F060FB031C181CFFF772FD0300EC22BA181360A24B1800A5
:400DC00004F06CFBEC23FB181B68180004F066FB202004F07FFBB023FB185B681B78012B1FD19A4B1A889A4B1B8853409BB21A00FF231B02134026D1964AB023FB18181DF3
:400E00000023002117F016FF934B180004F046FB924B1B781800FFF733FC202004F05AFB11E08A4B1A888A4B1B889A4203D0874B1B88002B07D1874AB023FB18181D0023DB
:400E4000002117F0F7FE864B1B780133DAB2844B1A70844B180004F021FB814B1B781800FFF75EFC202004F035FB7F4B01221A707E4B180004F012FB202004F02BFB13E010
:400E8000B023FB189B890D221900122000F0C8FE00F017FDB023FB189B8911221900122000F0BEFE00F00DFD6A4B1A785B781B021A4300231204120C1B0C1B041343180027
:400EC00016F0B0FC00F0FDFC8023FB18BA6C13CA13C312681A605E4B1B88002B01D100F0ACFC8023FB189B89112B01D000F0A5FC8023FB181B89012B01D000F09EFC8023F7
:400F0000FB185B681A78564B1A70554B1B78013BDAB2534B1A704F4A8023FB18181D0023002117F087FE524B180004F0B7FA4C4B1B781800FFF7F4FB202004F0CBFA00F03D
:400F40007CFC464B1B78022B01D100F078FC9023FB18BA6C13CA13C303CA03C39023FB181B78002B00D0D3E29023FB181A7A414BDB7F9A425AD19023FB18DA689023FB1822
:400F80001B7A023BD3181B78012B00D0C0E29023FB18DA689023FB181B7A013BD3181A782F4B1B789A420ED39023FB18DA689023FB181B7A013BD3181B78FF2B1DD1284BB5
:400FC0001B78002B19D12C4B01221A709023FB185B682A4A1000190006231A0008F02BFB9023FB185A78264B1A70264B180004F055FA202004F06EFA8AE21F4B00221A7021
:401000001F4B00221A701D4B00221A701B4B00225A701A4B00229A70184B0022DA70174B00221A71154B00225A7171E200237A1CFF321360FF23FB1800221A7041E0C046C0
:4010400034240020000059401CDC0100201200200E1200202425002034DC010012250020F00B002044DC01000C12002084DC01009CDC01000C240020101200205824002081
:4010800011120020D4DC01009023FB185A68FF23FB181B78D3181A78FF23FB181B78EC49CB5C9A4206D17B1CFF331B6801337A1CFF321360FF23FB181A78FF23FB180132AF
:4010C0001A70FF23FB181B78052BDDD97B1CFF331B68062B00D016E201F0E8FCDD4B180004F0DCF9202004F0F5F9202004F0F2F9D94B180004F0D2F99023FB181B781A00E6
:40110000D6496423FB18180008F0A6FA6423FB18180004F0C3F9D24B180004F0BFF9D14B180004F0BBF99023FB181B7C5BB21A00CA495823FB18180008F08EFA5823FB18DC
:40114000180004F0ABF9C64B180004F0A7F9C64B180004F0A3F99023FB185B6805331B781800FFF751FB9023FB185B6804331B781800FFF749FB9023FB185B6803331B78A4
:401180001800FFF741FB9023FB185B6802331B781800FFF739FB9023FB185B6801331B781800FFF731FB9023FB185B681B781800FFF72AFB202004F08DF9202004F08AF908
:4011C000AA4B180004F06AF90023E822BA1813600023F822BA18136015E09023FB18DA68F823FB181B68D3181978A14AF823FB181B68D3180A1C1A70F823FB181B68013351
:40120000F822BA1813609023FB181B7A1A00F823FB181B689A42E0DC202004F05BF99023FB1810229A569023FB18DB681900100000F01AFF8F4C3B00180001F09BF88E4B5B
:40124000842252009446BC4463442000190044231A0008F0F0F9874B9B68181CFFF71CFB0300E422BA181360844B180004F016F9E423FB181B68180004F010F9202004F026
:4012800029F97C4B10229B5E1A007D495423FB18180008F0E1F97B4B180004F0FFF8754B10229B5EDBB21800FFF73AFA202004F011F9704BDB69181CFFF7EEFA0300E022EF
:4012C000BA181360704B180004F0E8F8E023FB181B68180004F0E2F8202004F0FBF8654BDB68181CFFF7D8FA0300DC22BA181360664B180004F0D2F8DC23FB181B681800F3
:4013000004F0CCF8202004F0E5F85A4B5B69181CFFF7C2FA0300D822BA1813605C4B180004F0BCF8D823FB181B68180004F0B6F8202004F0CFF84F4B9B69181CFFF7ACFA38
:401340000300D422BA181360524B180004F0A6F8D423FB181B68180004F0A0F8202004F0B9F8444B1B6A181CFFF796FA0300D022BA181360484B180004F090F8D023FB189D
:401380001B68180004F08AF8202004F0A3F8394B5B6A181CFFF780FA0300CC22BA1813603E4B180004F07AF8CC23FB181B68180004F074F8202004F08DF82E4B5B6B181CFA
:4013C000FFF76AFA0300C822BA181360344B180004F064F8C823FB181B68180004F05EF8202004F077F8234BDB6B181CFFF754FA0300C422BA1813602A4B180004F04EF8D3
:40140000C423FB181B68180004F048F8202004F061F8202004F05EF89023FB18DB685A7A214B1A709023FB18DB681A7A1E4B5A701D4B00229A701C4B0022DA701B4B180044
:4014400004F02CF80023F422BA18136040E0C04618120020ECDC010000DD01000CDD010010DD010014DD01001CDD01002CDD01003824002060240020F8FEFFFF5CDD0100A3
:401480006CDD010070DD010078DD010080DD01008CDD010094DD0100A0DD0100ACDD0100B4DD0100C0DD0100A424002010DC0100E64AF423FB181B68D3181B781800FFF78E
:4014C000A3F9F423FB181B680133F422BA181360F423FB181B68042BEADD202003F0FAFFDB4B1B780133DAB2D94B1A70D94B180003F0D4FFD84B1B88DBB21800FFF710F9B2
:40150000202003F0E7FFD54B1B889AB2D24B1A809023FB181B78042B00D090E19023FB181B7A142B00D08AE1CD4B1B78002B00D185E19023FB185B68CA490622180008F04D
:401540006BF8031E00D07AE19023FB185A78C64B1B789A4200D072E19023FB18D8689023FB181B7A1A00C14B190008F055F8031E00D064E1BE4B180003F090FF202003F090
:40158000A9FF01F093FABB4B180003F087FF202003F0A0FF9023FB185A78B74B9A719023FB185B681A78B44B1A709023FB185B685A78B14B5A709023FB185B689A78AE4B9E
:4015C0009A709023FB185B68DA78AB4BDA709023FB185B681A79A84B1A719023FB185B685A79A54B5A71A54B01221A709C4B00221A7024E1A24B180003F050FFA14B1B781A
:401600006822BA181100180014F075FB6823FB181B781800FFF7F8F86823FB185B781800FFF7F2F86823FB189B781800FFF7ECF8202003F04FFF944B1B78022B00D000E1A5
:40164000904B1A785B781B021A4300231204120C1B0C1B041343180001F020FB8B4B180003F01CFF8A4B1B781800FFF709F8202003F030FFE5E0874B01221A70864B180097
:4016800003F00CFF824B1B781800FEF7F9FF202003F020FFA423FB1811221A81A423FB186B4A1A60A423FB1801229A80A423F918744B1A785B781B021A4300231204120CE0
:4016C0001B0C1B041343180015F068FD5F4B1A785E4B5B781900100000F05EFE0300180007F02EFE00226D4B06F0E2FB03000C001800210007F0BAFE031C181CFFF7CCF8B0
:401700000300C022BA181360654B180003F0C6FEC023FB181B68180003F0C0FE202003F0D9FE7423FB180E221A817423FB18474A1A607423FB1808229A807423F918514B58
:401740001A785B781B021A4300231204120C1B0C1B041343180015F017FDB2E0514B180003F09CFE4A4B1B781800FEF789FF202003F0B0FE434B1B78002B64D0414B1B7856
:40178000180014F033FA484B01221A70474B180003F084FE3E4B1B781800FEF771FF202003F098FE4FE03B4B00221A70404B180003F074FE364B1B781800FEF761FF2020F5
:4017C00003F088FE304B1B78012B17D1394B1B78012B13D02E4B1B78062B2BD1002001F061F8354B180003F059FE294B1B781800FEF746FF202003F06DFE1BE0224B1B78B1
:40180000022B5DD12B4B1B78012B59D0204B1B78062B55D1002001F0F7F8284B180003F03DFE1B4B1B781800FEF72AFF202003F051FE45E044E0C04643E0C04641E0C04691
:401840003FE0C0463DE0C0463BE0C046A4240020F00B0020CCDD0100F411002008240020101200205824002011120020F40B0020D8DD0100ECDC01002C240020121200206E
:40188000FCDD010024250020080C002020DE0100122500201312002040DE0100000059401CDC010064DE01001412002080DE0100A4DE01000C1200200CDB0100C8DE01002D
:4018C000C046BD4643B090BD90B583B000AF6B4B1B78012B00D0CDE0694B180003F0DEFD202003F0F7FD08F00FFB664B1B78002B12D0644B1B78180014F078F908F004FBAC
:40190000614B180003F0CAFD604B1B781800FEF7B7FE202003F0DEFD5D4B1B78012B02D0022B4CD0A6E0594B1B78032B0FD101F027F808F0E9FA574B180003F0AFFD534BEC
:401940001B781800FEF79CFE202003F0C3FD4F4B1B78062B30D1BC1D002001F055F803002380BB1D1B88002B17D14B4B180003F095FD464B1B781800FEF782FE202003F059
:40198000A9FD464B1B889AB2454B1A80404B02221A703A4B00221A700EE03D4B01221A70404B180003F07AFD384B1B781800FEF767FE202003F08EFD08F0A6FA5AE0334BA7
:4019C0001B78042B0AD101F071F808F09DFA364B180003F063FD202003F07CFD2B4B1B78062B44D1314BDB7F013B314A11782F4AD154304B2D4A9A602F4B180003F04EFD0A
:401A00002B4B1B781800FEF78BFE202003F062FDBC1D002000F046FF03002380BB1D1B88002B15D11A4B01221A70244B00221A70124B00221A70224B180003F02FFD134BDD
:401A40001B781800FEF71CFE202003F043FD0EE00F4B02221A701B4B180003F01FFD0B4B1B781800FEF70CFE202003F033FD08F04BFAC046C046BD4603B090BD0C120020C9
:401A8000DCDE010024250020E8DE010012250020080C002008DF01002CDF0100082400201612002044DF01005CDF01000C240020F00B0020600C002074DF01001212002039
:401AC00088DF0100A8DF010090B583B000AF234B1B78DBB2002B3DD008F016FA204B1B78062B37D11D4B00221A70BC1D1D4B180000F0EEFF03002380BB1D1B88002B0CD058
:401B0000194B180003F0CAFC154B1B781800FEF7B7FD202003F0DEFC1AE0144B180003F0BDFC104B1B781800FEF76EFE0D4B5B781800FEF769FE0B4B9B781800FEF764FEB4
:401B4000074B1B781800FEF79BFD202003F0C2FC08F0DAF9C046BD4603B090BD12120020122500202C240020D0DF0100E8DF010080B500AF224B1B78022B1CD1214B1B8886
:401B80009BB21A00204B1B889BB2D31AB42B12DD1E4B1B78062B03D01C4B1B78042B0AD11B4B01221A701B4B180003F077FC202003F090FC22E0184B1B78002B1ED008F0E5
:401BC000A3F9134B1B78012B15D0104B1B78062B14D1114B00221A7008F096F90F4B180003F05CFC202003F075FC002000F00CFF08F08AF902E0084B00221A70BD4680BD9C
:401C0000080C00200824002016120020122500200C12002000E001001412002028E0010090B585B000AF040008001100FB1D221C1A703B1D021C1A80BB1D0A1C1A700C232A
:401C4000FB18FA1D12789A700C23FB183A1D12881A800C23FB18BA1D1278DA700C23F918084B1A785B781B021A4300231204120C1B0C1B041343180015F05CFDC046BD4608
:401C800005B090BD2425002080B5ACB000AF02003960FB1D1A700023A822BA1813603A4B1B68FB61394B1B68BB61394B1B687B61384B1B683B61384B1B68FB60374B1B6898
:401CC000BB60374B374A1A60374B384A1A602023FB18374A1A602023FB187F225A60AF23FB1800221A7015E0AF23FB181B789A1CAF23FB181B789B003968CB1819682023BD
:401D0000FB189200D150AF23FB181A78AF23FB1801321A70AF23FB181B781F2BE4D9204B2022BA181A60204B224A1A602023FB18214A1A60FB1D1A782023FB185A60184BA3
:401D40002022BA181A60184B1C4A1A60144B1B68A822BA1813600C4BFA691A600B4BBA691A600B4B7A691A600A4B3A691A600A4BFA681A60094BBA681A60A823FB181B68D3
:401D80001800BD462CB080BD00010B4008010B401CFF0B4020FF0B4028FF0B402CFF0B4008001040B6E800000400104015000080B6D7000004000080B6EB0000180000806E
:401DC00080B5A6B000AF0200BB1D1A80264B9422BA1813609223FB1800221A8015E09223FB181A889423FB181B68191D94203818016019680C23FB189200D1509223FB18C0
:401E00001A889223FB1801321A809223FB181B881F2BE4D9BB1D1A880C23FB181A600C23FB1819000120FFF72FFF03008C22BA1813608C23FB181A68A0231B069A4207D151
:401E40000A4B180003F02AFB202003F043FB06E0074B180003F022FB202003F03BFBC046BD4626B080BDC04680F2FF0F50E0010078E0010080B500AF094B1B78012B0CD1A3
:401E8000084B1B78032B08D1074B180003F006FB202003F01FFB00F009F8C046BD4680BD080C002012250020A0E0010080B582B000AF614B1B78082B00D984E09A005F4B3E
:401EC000D3181B689F46FB1DFF221A70BB1D00221A707B1D00221A703B1DFF221A70564B02221A707FE0FB1D00221A70BB1DFF221A707B1D00221A703B1DFF221A704E4B2C
:401F000003221A706FE0FB1D00221A70BB1D00221A707B1DFF221A703B1DFF221A70464B04221A705FE0FB1DFF221A70BB1DFF221A707B1D00221A703B1DFF221A703E4B7F
:401F400005221A704FE0FB1D00221A70BB1DFF221A707B1DFF221A703B1DFF221A70364B06221A703FE0FB1DFF221A70BB1D00221A707B1DFF221A703B1DFF221A702E4B9C
:401F800007221A702FE0FB1DFF221A70BB1DFF221A707B1DFF221A703B1DFF221A70264B08221A701FE0FB1DFF221A70BB1DFF221A707B1DFF221A703B1D22221A701E4B97
:401FC00001221A700FE0FB1DFF221A70BB1D00221A707B1D00221A703B1DFF221A70164B01221A70C046164BFA1D12781A70144BBA1D12785A70124B7A1D12789A70104BAA
:402000003A1D1278DA700E4B04211800FEF7D6FA0C4B01221A700C4B180003F03FFA0B4B1B781800FEF72CFB202003F053FAC046BD4602B080BDC046090C0020E4E00100E6
:40204000A82400200C120020BCE001001225002080B500AF03F0AEFA024B01221A70C046BD4680BD2212002090B583B000AF02003960FB1D1A703B68DA79804B1A713B68DC
:4020800009331A783B6808331B781900100000F083F90300180007F053F90022784B05F007FF03000C001800210007F0DFF9021C724B9A603B680A331A783B680B331B783C
:4020C0001900100000F0A8F90300180007F038F900226B4B05F0ECFE03000C001800210007F0C4F9021C654BDA603B680D331A783B680C331B781900100000F08DF903009C
:402100001AB25E4B1A823B680F331A783B680E331B781900100000F07FF90300180007F00FF90022564B05F0C3FE03000C001800210007F09BF9021C504B5A613B6811334E
:402140001A783B6810331B781900100000F064F90300180007F0F4F800224A4B05F0A8FE03000C001800210007F080F9021C434B9A613B6813331A783B6812331B78190020
:40218000100000F049F90300180007F0D9F800223B4B05F08DFE03000C001800210007F065F9021C354BDA613B681A331B786433180007F0C5F80022324B06F09DFA030047
:4021C0000C001800210007F051F9021C2B4B5A632A4B00229A62294B0022DA62274B00221A633B6815331A783B6814331B781900100000F0D1F80300180007F0A1F80022E9
:402200001F4B05F055FE03000C001800210007F02DF9021C194B1A623B6817331A783B6816331B781900100000F0B6F80300180007F086F80022124B05F03AFE03000C0079
:402240001800210007F012F9021C0C4B5A620B4BFA1D382112785A54084B38229B56180000F012F8021C054BDA63044B402201219954C046BD4603B090BDC046AC240020DA
:40228000000059400000244090B587B000AF0200FB1D1A70FB1D1B785BB2D9175A184A401723FB181A701723FB181B785BB2002B01D1274B48E01723FB181B785BB218004E
:4022C00007F03EF80022234B05F0F2FD03000C001800210007F0CAF8031C3B61FE218905386904F0C5FF031E10D0386907F06AF80023194C1A00230003F0CAFC03000C00F3
:402300001800210007F0B2F8031C1DE0386907F059F8124B124C1A00230003F0B9FC114A114B06F0E9F903000C00180021000F4A0F4B05F091FA03000C001800210007F0D5
:4023400095F8031CFB60FB68181CBD4607B090BD000080BF00804D40000020404A0C022B87D61E40159161156F64E63FD122DBF97E6ABC3F80B582B000AF78607A68054BF0
:402380001000190044231A0007F055F97868BD4602B080BDAC24002080B584B000AF0200FB1D1A70BB1D0A1C1A70FB1D1B781B0219B2BB1D1B781AB20C23FB180A431A8035
:4023C000FB1D1B785BB2002B17DA0A23FB180C22BA181288D2431A800A23FB181B8801339AB20A23FB181A800A23FB181B885B429AB20E23FB181A8005E00E23FB180C2242
:40240000BA1812881A800E23FB1800229B5E1800BD4604B080BDC04680B584B000AF0200FB1D1A70BB1D0A1C1A70FB1D1B781B021AB2BB1D1B781BB213431AB20E23FB18AF
:402440001A800E23FB181B881800BD4604B080BD80B582B000AF786039603A687B680021180007F0F1F8C046BD4602B080BDC04680B586B000AF7860396000233B6100233F
:402480007B612FE07B699B007A68D3181B68BB600F23FB18BA681A70BB68FF229343BB6018E03B695B003A68D3181B781A00BB68D31819003B695B003A68D3185B780B70EF
:4024C0003B6901333B610F23FB181A780F23FB18013A1A700F23FB181B78002BE1D17B6901337B617B69082BCCD9C046BD4606B080BDC04680B500AF054B03221A60054BFD
:4025000003221A60044B00221A60C046BD4680BD3000304030003140000E3F4080B500AF07F04EF803001B680C2B00D1FEE7FEE780B584B000AF78600F4B1A687B68D318EA
:402540001A000E4BD31A802B09DC0B4B1B68FB60094B1A687B68D218074B1A6007E007F02FF803000C221A6001235B42FB60FB681800BD4604B080BD0C0C002040250020D0
:4025800080B586B000AF224B7B61224B3B61204B7B6135E03B691B68FB603B695B68BB603B699B683B6000237B600CE0FB681A68BB681A60BB680433BB60FB680433FB6037
:4025C0007B6804337B607A683B689A42EED13B69DB683B6000237B6008E0BB6800221A60BB680433BB607B6804337B607A683B689A42F2D13B6910333B617B69013B7B6192
:402600007B69002BC6D106F0E1FFFDF7AFFEFEE70100000024E8010080B582B000AF154B144A126801218A431A6000237B600FE07B68032B04D8104B7A689200D35800E01F
:402640000E4B0F4A796889008B507B6801337B607B682F2BECD9FDF771FD0A4B00221A60044B044A126801210A431A60C046BD4602B080BD00001040000000001D25000092
:4026800000000020C000002080B500AF1B4B00221A701B4B00221A701A4B00221A701A4B00221A70194B5A88194B1A80174B9A88174B5A80154B9A79154B1A73134BDA79DB
:4026C000134B1A71124B0722DA81114B09221A820F4B00225A820E4B962292009A820C4B0022DA820A4B012252421A83094B1E221A8000F011F8C046BD4680BD392500206D
:40270000202500203725002036250020740C0020F42400200E25002080B500AF0C4B1B88002B05D10B4B0E220021180006F08CFF074BDB88002B05D1074B0622002118008A
:4027400006F082FF02F052F8C046BD4680BDC0465C0D00202825002018250020B0B594B004AF78603E23FB1800221A802823FA183E4B1000190014231A0006F05CFF3C4B6B
:402780001B78002B04D1FFF77FFF394B01221A707B68002B5FD0374B7A681A603E23FB181B88002B29D11023FB181C22BA185A601023FB182022BA181A601023FB1800223E
:4027C0001A812023FB181B221A802023FB181B225A802023FB1804221A711C23FB1800221A703E23FC180E23FA181023FB181100180007F07FFC030023803E23FB181B8849
:40280000002B2CD13E23FC182823FD18AE231A0119491A480023029300230193052300932B0007F0BDFB030023803E23FB181B88002B14D1124B01221A70124B08221A70FF
:402840003E23FC18104B1A221621180016F0DAF90300238003E03E23FB1801221A803E23FB181B881800BD4610B0B0BD98E2010023120020F0240020C8000020AD32000040
:40288000122500201325002004E3010080B500AF07F050FB024B00221A70C046BD4680BD1225002090B585B000AF0200FB1D1A70FB1D1B78022B04D90E23FB1801221A8042
:4028C0004CE02A4B1B78062B43D1294B1B78DBB21A00042313403CD1FB1D1B78002B0DD1244B254A1A82234B5B68902252001A80204B5B68A02252005A8010E0FB1D1B7876
:40290000012B0CD11B4B96221A821A4B5B68C822D2001A80174B5B688022D2015A80174BFA1D12781A700E23FC18124B180013F003FD030023800E23FB181B88002B0DD102
:402940000B4B1B78DBB204221343DAB2084B1A7004E00E23FB180422FF321A800E23FB181B881800BD4605B090BDC0461225002039250020600C0020FF7F0000372500207E
:4029800080B500AF13F070FD054B1B78DBB208221343DAB2024B1A70C046BD4680BDC0463925002080B584B000AF78600A00FB1C1A700023BB60BB68002B20D07B689A7999
:4029C000BB681A700F23FB1800221A7012E00F23FB181B780133BA68D3180F22BA18127879688A5C1A700F23FB181A780F23FB1801321A700F23FB181B78052BE7D9C046A9
:402A0000BD4604B080BDC04690B585B000AF0200FB1D1A70FB1D1B78022B04D90E23FB1801221A8035E0FB1D1B78002B09D11C4B06221A811A4B30225A80194B20229A80D9
:402A40000EE0FB1D1B78012B0AD1154B96221A81134B802212015A80114BE122D2009A80104BFA1D12781A700E23FC180C4B180013F0E8FB030023800E23FB181B88002BF3
:402A800007D1094B1B78DBB204221343DAB2064B1A700E23FB181B881800BD4605B090BD740C0020362500203925002080B500AF13F0F2FB054B1B78DBB208221343DAB2FA
:402AC000024B1A70C046BD4680BDC0463925002090B585B000AF7860294B1B78062B05D00E23FB180422FF321A8041E07B68002B04D10E23FB1801221A8039E00D23FB1891
:402B000000221A7012E00D23FB181B780D22BA1812787968895C1B4AD3180A1C5A710D23FB181A780D23FB1801321A700D23FB181B78052BE7D97B689A79124BDA720E2324
:402B4000FC18104B180013F02BFB030023800E23FB181B88002B0BD1094B05221A700A4B1B88002B04D0084B1B88180010F02CFA0E23FB181B881800BD4605B090BDC046D7
:402B800012250020F42400200E25002090B583B000AF104B1B78052B04D0BB1D0422FF321A8011E0BC1D13F0F1FA030023800A4B1B88002B01D010F021FABB1D1B88002B3E
:402BC00002D1044B06221A70BB1D1B881800BD4603B090BD122500200E25002080B582B000AF78607B681B789AB27B6801331B789BB21B029BB213439BB21800BD4602B040
:402C000080BDC04690B585B000AF78600F23FB1800221A707B689B890B22934232D17B68181D7A680F23FC184023002116F002F8030023700F23FB181B78002B1AD17B6828
:402C40005B681800FFF7CAFF03001A00022313409BB2002B07D00F4B1B687968822252001000984706E00B4B1B6879680622FF3210009847084B1B78DBB201229343DAB253
:402C8000054B1A700F23FB181B781800BD4605B090BDC046F02400203925002090B585B000AF3B1D1880304B1B78022B07D12F4B1B78002B09D02D4B1B78052B05D00C2311
:402CC000FB180422FF321A8047E00F23FB1800221A7014E00F23FB181A7813005B009B185B00234A9B1804220021180006F0ACFC0F23FB181A780F23FB1801321A700F2349
:402D0000FB181B78032BE5D91A4A3B1D1000190002231A0006F08FFC174B01221A80164B012252425A80FFF7F7FC0C23FC183B1D186814F08DF9030023800C23FB181B8832
:402D4000002B0AD1094B01221A700C4B1B78DBB202221343DAB2094B1A700C23FB181B881800BD4605B090BD12250020132500205C0D002024250020142500203925002077
:402D800080B582B000AF78607B68DB880D4A934214D10D4B5B88002B08D17B689A880A4B5A807B689A78084B1A7007E0074B1B687A68911D8622520010009847C046BD464B
:402DC00002B080BD052A000018250020F024002080B582B000AF78607B689B880B4A934210D10B4B9B88002B04D17B685A88084B9A8007E0074B1B687A68111D86225200B4
:402E000010009847C046BD4602B080BD0229000018250020F024002080B582B000AF78600C4B5A887B689B899A420ED10A4B1B6879688322520010009847084B1B78DBB2F4
:402E400001229343DAB2054B1A70C046BD4602B080BDC04618250020F02400203925002090B585B000AF78600F23FC187B681800FFF7C8FE03002370154B1B78DBB21A00B8
:402E8000012313401FD10F23FB181B78002B16D00823FB1812229A707B689A890823FB181A800823FB180F22BA181278DA700823FA187B681100186814F03CFC03E07B68A0
:402EC000186814F0AFFCC046BD4605B090BDC0463925002080B582B000AF7860C046BD4602B080BD80B582B000AF7860C046BD4602B080BD80B582B000AF7860C046BD4651
:402F000002B080BD80B582B000AF7860C046BD4602B080BD80B588B000AF7860394B1B78022B6AD1384B1B88002B66D00823F918354B022208009B180422190006F07BFB7C
:402F40007B6859687B681B891A000823FB180433180006F070FB0823FB18180001F0BAFC294B1B8801339AB20823FB181A80274B1B781900264A0B005B005B185B00D31805
:402F800002331A880823FB185A800823FB181A880823FB185B889A4221D80823F9181D4B1A785B781B021A4300231204120C1B0C1B041343180014F063F8031E12D0164BFB
:402FC0001B6884225200002110009847134B1B78DBB202229343DAB2104B1A7002E0012000F0BCFC0D4B1B78DBB201229343DAB20A4B1A70044B00221A80C046BD4608B00A
:4030000080BDC0461325002024120020382500205C0D002024250020F02400203925002080B588B000AF7860394B1B78022B6AD1384B1B88002B66D00823F918354B0222A4
:4030400008009B180422190006F0F5FA7B6859687B681B891A000823FB180433180006F0EAFA0823FB18180001F034FC294B1B8801339AB20823FB181A80274B1B781900C1
:40308000264A0B005B005B185B00D31802331A880823FB185A800823FB181A880823FB185B889A4221D80823F9181D4B1A785B781B021A4300231204120C1B0C1B04134346
:4030C000180013F0DDFF031E12D0164B1B6884225200002110009847134B1B78DBB202229343DAB2104B1A7002E0012000F036FC0D4B1B78DBB201229343DAB20A4B1A7000
:40310000044B00221A80C046BD4608B080BDC0461325002024120020382500205C0D002024250020F02400203925002080B500AF094B00225A70084B00221A70074B1B78A9
:40314000052B03D1054B07221A7002E0034B08221A70C046BD4680BD242500201325002080B582B000AF78607B681B78032B3ED1264B1B78DBB21A000223134037D0244B23
:403180001B78022B10D002DC012B05D024E0032B12D0042B18D01FE01E4B1B680822FF3200211000984717E01A4B1B68842252000021100098470FE0164B1B680A22FF32F8
:4031C00000211000984707E0124B1B6885225200002110009847C0460C4B1B78DBB202229343DAB2094B1A70094B00221A707B681B78042B05D1084B1B78052B01D1FFF7B5
:40320000C5FCC046BD4602B080BDC0463925002013250020F02400201225002080B500AFC046BD4680BDC04680B584B000AF78600E23FB1800221A707B689B79002B1CD14F
:403240000F23FB1800221A7012E00F23FB181B787A68D35C002B04D00E23FB1801221A700BE00F23FB181A780F23FB1801321A700F23FB181B78052BE7D90E23FB181B782F
:403280001800BD4604B080BD80B582B000AF0200BB1D1A80C046BD4602B080BD80B582B000AF7860C046BD4602B080BD80B588B000AF02003960FB1D1A70D44B1B78DBB202
:4032C00001221343DAB2D14B1A70FB1D1B78712B00D919E29A00CE4BD3181B689F461023FB1807221A701023FB1800225A701023FB18180008F0B2FE1023FB1807221A70D8
:403300001023FB1801225A701023FB18180008F0A5FE0023002B01D006F0EEFDBD4B1B681800FFF781FF031E11D0BA4B1B68180006F0EEFDB74B1B6800211800FFF732FBE4
:40334000B44B1B6801211800FFF72CFB36E0B24B1B781A003F231A40B04B1B789901FC231B010B401A43AE4B1B781903F8235B020B401A43AB4B1B785904FE231B040B40B4
:403380001343BB61BB69DAB2A74B1A70BB691B0ADAB2A54B5A70BB691B0CDAB2A24B9A70A14B180006F0B4FD9F4B00211800FFF7F9FA9D4B01211800FFF7F4FA032012F030
:4033C000C7FD0C23FB183F221A700C23FB1800225A700C23FB18180012F0D8FD934B06221A709CE13B681800FFF7BAFE97E13B681A788F4B1A7092E13B687B617B691B788D
:40340000002B00D082E17B695B78002B0BD1894B0222DA80874B1C229A80864B864A1A607B69844A5A60794B1B78DBB201229343DAB2764B1A7069E1744B1B78DBB21A0076
:403440002023134000D063E17C4B1B78102B02D17A4B0522DA707A4B1B78784A1100180012F02CFF03001A000A23FB181A800A23FB181B88002B06D0724B1B680A22BA187B
:40348000110036209847614B1B78DBB201221343DAB25E4B1A706A4B1B78684A1100180012F0E0FA34E13B681800FFF7F7FE36E13B681800FFF7F2FE634B1B88002B01D003
:4034C0000FF09CFD594B02221A7028E1574B06221A7024E1554B1B78022B00D11AE14B4B1B78DBB21A000123134000D112E1474B1B78DBB21A00042313400BD04B4B03226D
:403500001A70424B1B78DBB204229343DAB23F4B1A70FFE03D4B1B78DBB21A00082313400BD0424B06221A70384B1B78DBB208229343DAB2354B1A70ECE03C4B1B78032B32
:4035400000D0E7E0394B06221A70E3E0374B1B78022B00D1E0E02D4B1B78DBB21A000123134000D1D8E0294B1B78DBB21A00042313400BD02D4B04221A70244B1B78DBB27C
:4035800004229343DAB2214B1A70C5E01F4B1B78DBB21A00082313400BD0244B06221A701A4B1B78DBB208229343DAB2174B1A70B2E01E4B1B78042B00D0ADE01B4B062225
:4035C0001A70A9E03B681B881800FFF75DFEA6E01B4A3B681000190002231A0006F02BF8134B00221A70194B00221A70FFF716FE95E0FFF79BFD92E03B685B88162B27D89B
:403600001E23FB183A6852881A8025E039250020C8E40100880C00207CF1FF0F7DF1FF0F7BF1FF0F78F1FF0F800C002012250020202500203C120020A80B0020740D00200A
:4036400024250020F02400200E250020132500201E23FB1817221A801E23FB1819883B681A8800231204120C1B0C1B041343180014F06AF853E03B681800FFF7F1FB4EE032
:403680003B681800FFF726FC49E03B68180000F065F844E03B68180000F098FA3FE000F083FE3CE03B68180000F02AFD37E03B68180000F0C9FE32E03B681800FFF71AFCC5
:4036C0002DE03B681800FFF7A7FB3B681800FFF719FC204B1B78DBB21A00012313401DD13B68186813F07AFC18E03B681800FFF711FC14E03B681800FFF792FC0FE03B6883
:403700001800FFF7EFFB0AE0C04608E0C04606E0C04604E0C04602E0C04600E0C0460D4B1B78DBB21A00112313400ED0094B1B78DBB201229343DAB2064B1A70064B1B6870
:40374000FA1D1278396810009847C046BD4608B080BDC04639250020F024002080B586B000AF78600023FB60774B1B78012B00D0E6E0764B1B78DBB21A000223134000D197
:40378000DEE00A23FB187A6812891A800A23FB181B88062B05D00A23FB181B88142B00D0C7E00823FB187A6852891A801423FB1800221A80ABE07B685A681423FB181B88BA
:4037C000D318FB601323FB1800221A70FB681A885F4B1B889A4200D27CE0FB681A885C4B5B889A4200D975E00A23FB181B88062B00D068E0FB6801221A751623FB180022EA
:403800001A8055E01623FB181A88524913005B009B185B00CB1804331A88FB689B889A423FD11623FB181A884A4913005B009B185B005B5A002B13D11623FB181A88454949
:4038400013005B009B185B00FA68CB1811000422180005F0F0FE1323FB1801221A7020E01623FB181B88022B0FD81623FB181B885A1C384913005B009B185B00CB180433E0
:403880001A88FB689B889A420BD0334B1B68FA68111D0C22FF32100098471323FB1801221A701623FB181A881623FB1801321A801623FB181B88032B0CD81323FB181B7870
:4038C000002B9FD006E0FB6802221A75FB68180001F000F81323FB181B78002B0DD11B4B1B78DBB21A000123134006D01A4B1B68F9681222FF32100098471423FB181422DF
:40390000B9180A22BA18098812888A181A801423FA180823FB1812881B889A4200D24AE70A4B1B78DBB201229343DAB2074B1A7006E0094B1B680822FF32002110009847B0
:40394000C046BD4606B080BD1325002039250020142500205C0D0020F024002080B582B000AF0200FB1D1A70FB1D1B78002B06D0344B1B780133DAB2324B1A700CE0314BB8
:4039800000221A70304B00221A8005E02D4B1B780133DAB22B4B1A702A4B1B78032B19D8284B1B781900294A0B005B005B185B009A5A274B1B889A42E8D3224B1B781900CE
:4039C000224A0B005B005B185B009A5A204B5B889A42DBD81B4B1B78032B28D8194B1B781A0013005B009B185B00184A9918194B1A785B781B021A4300231204120C1B0CCE
:403A00001B041343180013F03BFB031E15D0124B1B68842252000021100098470F4B1B78DBB202229343DAB20C4B1A7005E00C4B03221A70002000F0ADFAC046BD4602B094
:403A400080BDC04638250020241200205C0D00201425002024250020F0240020392500201325002080B582B000AF78607B68DB884F4A934200D184E04D4A93420BDC4D4A1A
:403A8000934224D04B4A934200DD68E0A822920193420AD087E0484A93423CD0474A93424BD0474A934224D07DE0464B1B88002B04D17B689A88434B1A8074E0424B1B68CB
:403AC0007A68911D86225200100098476BE03D4B5B88002B04D17B689A883A4B5A8062E0394B1B687A68911D862252001000984759E0344B1B89002B04D17B689A88314B94
:403B00001A8150E0304B1B687A68911D862252001000984747E02B4B5B89002B04D17B689A88284B5A813EE0274B1B687A68911D862252001000984735E0224B9B89002B12
:403B400004D17B689A881F4B9A812CE01E4B1B687A68911D862252001000984723E0194B9B88002B04D17B689A88164B9A801AE0154B1B687A68911D862252001000984715
:403B800011E0104BDB88002B04D17B689A880D4BDA8007E00C4B1B687A68911D8622520010009847C046C046BD4602B080BDC046032A0000012A0000A62A0000C92A000046
:403BC000042A000028250020F024002090B593B000AF7860D44B1B78DBB21A000223134000D1D1E13E23FB187A6812891A803C23FB187A6852891A807B685B683B64CB4BE4
:403C00001B78032B00D0C7E04623FB1800221A80B8E03B6C1800FEF7E1FF03001A002423FB181A803B6C02333B643B6C1A782423FB189A703B6C01333B643B6C1800FEF791
:403C4000CDFF03001A002423FB189A803B6C02333B643E23FB181B88152B33D12423FB1802229A752423FB180622396C9B181022180005F0E0FC3B6C10333B64AC4B1B787C
:403C80001900AC4A0B005B005B185B00D31804331B881A00A84B9A425DD0A54B1B78012B5BD9A34B1B78032B57D8A14B1B789BB2023B9BB22422BA181100180000F072FE2E
:403CC000C0464AE03E23FB181B88072B48D12423FB1801229A753B6C1800FEF77FFF03001A002423FB18DA803B6C02333B64904B1B7819008F4A0B005B005B185B00D318A9
:403D000004331B88C0225201934203D08B4A934206D00BE02423FB181800FFF7A3FE1FE02423FB181800FFF72BF819E0804B1B78012B14D97E4B1B78032B10D87C4B1B7892
:403D40009BB2023B9BB22422BA181100180000F029FEC04603E0C04602E0C04600E0C046714B1B78DBB201229343DAB26E4B1A704623FB184622B9183E22BA1809881288A1
:403D80008A181A804623FA183C23FB1812881B889A4200D23DE7F7E0644B1B78022B00D0F2E04623FB1800221A80E4E03B6C1800FEF714FF03001A000C23FB181A803B6C80
:403DC00002333B643B6C1800FEF708FF03001A000C23FB185A803B6C02333B643B6C1800FEF7FCFE03001A000C23FB189A803B6C02333B643E23FB181B88062B30D10C2366
:403E0000FB1802229A7513F0B9F90C23FB1859884B4B1A785B781B021A4300231204120C1B0C1B041343180013F048F9031E07D1444B0C22BA1813CA13C313CA13C388E04A
:403E4000414B1B6884225200002110009847364B1B78DBB202229343DAB2334B1A7078E03E23FB181B88082B00D072E00C23FB1801229A753B6C1800FEF7B0FE03001A0045
:403E80000C23FB18DA803B6C02333B644423FB1800221A8033E04423FB181A88254913005B009B185B00CB1804331A880C23FB18DB889A421CD14423FB181A881D491300DD
:403EC0005B009B185B005B5A002B11D14423FB181A88184913005B009B185B000C22BA180220CB1811180422180005F0A4FB0BE04423FB181A884423FB1801321A804423E9
:403F0000FB181B88032BC6D9094B1B781900094A0B005B005B185B00D31804331B881A000A4B9A4214D014E03925002013250020382500205C0D0020FEFF0000011800009D
:403F40002425002024120020F024002012180000C0460F4B1B78DBB201229343DAB20C4B1A704623FB184622B9183E22BA18098812888A181A804623FA183C23FB18128869
:403F80001B889A4200D211E7C046BD4613B090BD3925002080B582B000AF0200FB1D1A70FB1D1B78002B06D0354B1B780133DAB2334B1A7009E0324B00221A7005E0304B6E
:403FC0001B780133DAB22E4B1A702D4B1B78032B19D82B4B1B7819002A4A0B005B005B185B009A5A284B1B889A42E8D3244B1B781900244A0B005B005B185B009A5A224BB8
:404000005B889A42DBD81E4B1B78032B2DD81C4B1B781A001B4913005B009B185B001B4A585ACB185B881B04034319001378527812021A4300231204120C1B0C1B041343D7
:40404000180012F0E9FF031E15D0114B1B680A22FF320021100098470E4B1B78DBB202229343DAB20B4B1A7005E00B4B04221A70002000F0E9F8C046BD4602B080BDC04633
:40408000382500205C0D00201425002024250020F0240020392500201325002080B582B000AF3B0000221A803B0000225A80114B1B78002B09D1104B5B8801339AB23B00FD
:4040C0001A800E4B1A893B005A803B1D3A0012681A603A1D002311880904090C1B0C1B040B43528812041B041B0C13431800BD4602B080BD38250020182500205C0D0020CD
:4041000080B58AB000AF78600823FB1800225A804A4B1B78042B00D08BE0494B1B78DBB21A000223134000D183E01E23FB187A6812891A807B681A7B0823FB181A75082368
:40414000FB187A6812881A800823FB181B7D012B04D12623FB1804221A8003E02623FB1812221A807B685B683B622423FB1800221A804EE03B6A1800FEF730FD03001A0093
:404180000823FB185A803B6A02333B620823FB181B7D022B15D10823FB183A6A043311001022180005F047FA3B6A10333B62254B1B78012B23D10823FB18180000F0B8FD3A
:4041C0001DE03B6A1800FEF709FD03001A000823FB189A803B6A02333B621A4B1B78002B04D10823FB181800FEF7F2FD154B1B78012B04D10823FB18180000F099FD2423D5
:40420000FB182422B9182622BA18098812888A181A802423FA181E23FB1812881B889A42A8D3074B1B78DBB201229343DAB2044B1A70C046BD460AB080BDC0461325002064
:40424000392500203825002080B584B000AF0200FB1D1A700C23FB1800221A800C23FB1800225A804A4B1B78012B17D0FB1D1B78002B0DD0464B1B780133DAB2444B1A7060
:40428000434B1B78012B09D1FB1D00221A7005E03F4B00221A70FB1D01221A703C4B1B78012B0CD1FB1D1B78180000F07FFC03001A000C23FB181A60FB1D01221A70344BC5
:4042C0001B78012B06D0FFF7E9FE03001A000C23FB181A600C23FB181A882E4B1B889A4215D90C23FB181A882A4B5B889A420ED80C23FB185A88274B1B889A4207D30C238D
:40430000FB181A880C23FB185B889A4203D9204B1B78012BA6D91E4B1B78012B21D80C23F9181D4B1A785B781B021A4300231204120C1B0C1B041343180012F057FE031E17
:4043400021D0164B1B6885225200002110009847134B1B78DBB202229343DAB2104B1A7011E0104B05221A700C4B1B68892252000021100098470A4B1B78DBB20222934323
:40438000DAB2074B1A70C046BD4604B080BDC046382500201425002024250020F0240020392500201325002080B500AF244B1B78DBB21A00022313403FD0224B1B78022B0B
:4043C00017D002DC012B05D037E0032B1DD0042B27D032E01B4B02221A700020FFF7BEFA174B1B78DBB201229343DAB2144B1A7023E00120FFF7B2FA114B1B78DBB2012256
:404400009343DAB20E4B1A7017E00120FFF7C2FD0B4B1B78DBB201229343DAB2084B1A700BE00120FFF710FF054B1B78DBB201229343DAB2024B1A70C046C046BD4680BD69
:40444000392500201325002080B582B000AF7860084B1B78DBB21A000223134005D07B689B790A2B01D1FFF79FFFC046BD4602B080BDC0463925002080B582B000AF7860A2
:4044800039607B681B689AB23B681A80C046BD4602B080BD80B582B000AF78600A00BB1C1A80BB1C1A887B681A60C046BD4602B080BDC04680B582B000AF78600A00BB1C70
:4044C0001A80BB1C1A887B681A60C046BD4602B080BDC04680B584B000AF494B1B78DBB21B02484A1278D2B21343FB60464B1B78DBB21B02454A1278D2B21343BB60BB6815
:40450000434A934207D1FB68072B04D1414BBB600423FB6009E0BA68D4231B019A4204D1FB68042B01D13B4BBB603B4BBA681A603A4BFA681A603A4B1B78DBB21B02394A12
:404540001278D2B21343FB60FA6880239B019A4202D0FB68002B01D1334BFB60334BFA681A60334B1B78DBB21B02324A1278D2B21343FB60FB68304A934206D0FB682F4A40
:40458000934202D0FB68052B01D12D4BFB602D4BFA681A602C4B1B681B097B602B4B1B68AA2B29D17B68012B26D9214B1B78DBB20E2B21D1264B1B78DBB29BB21B0299B2FC
:4045C000244B1B78DBB29AB2BB1C0A431A80224BBA1C12881A60214B1B78DBB29BB21B0299B21F4B1B78DBB29AB23B000A431A801C4B3A0012881A60C046BD4604B080BDE3
:40460000D9F0FF0FD8F0FF0FDFF0FF0FDEF0FF0F580B0000580D00006C002E4074002E40DBF0FF0FDAF0FF0F0220000078002E40DDF0FF0FDCF0FF0F0F0F000005050000FA
:40464000050F000080002E40EC0F00F0E00F00F06DF2FF0F6CF2FF0F84002E406FF2FF0F6EF2FF0F94002E4080B582B000AF0200BB1D1A80BB1D1B88180001F0D1F8C046E7
:40468000BD4602B080BDC04680B582B000AF78607B68180001F09EF8C046BD4602B080BD80B500AF00F0DAFFC046BD4680BDC04680B500AF00F0DEFFC046BD4680BDC046A4
:4046C00080B500AF00F0D6FF044B180000F090FF002000F09BFFC046BD4680BD815C000080B500AF034B180000F06EFFC046BD4680BDC046815C000080B500AF0223FF3353
:404700001800BD4680BDC04680B582B000AF78602B231800BD4602B080BDC04680B582B000AF78602B231800BD4602B080BDC04680B582B000AF78602B231800BD4602B07A
:4047400080BDC04680B582B000AF78602B231800BD4602B080BDC04680B582B000AF78602B231800BD4602B080BDC04680B582B000AF78602B231800BD4602B080BDC04612
:4047800080B582B000AF78602B231800BD4602B080BDC04680B582B000AF78602B231800BD4602B080BDC04680B500AF2B231800BD4680BD80B582B000AF0200FB1D1A701D
:4047C0002B231800BD4602B080BDC04680B582B000AF786039602B231800BD4602B080BD80B500AFC046BD4680BDC04680B582B000AFBB1D00221A8060E0BB1D1B889A1C31
:40480000324913005B009B185B005B5A002B50D13B1D00221A8040E0BB1D1B882C4A1B01D3180C331A683B1D1B881B01D31800221A80BB1C00221A8019E0BB1D1B88244A60
:404840001B01D3180C331A683B1D1B881B01D318D968BB1C1A8813005B009B189B00CB1800221A80BB1C1A88BB1C01321A80BB1D1B88174A1B01D3180C331A683B1D1B889D
:404880001B01D3189B7A9BB2BA1C12889A42D4D33B1D1A883B1D01321A80BB1D1B880C4A1B01D31809331B789BB23A1D12889A42B2D3BB1D1A88BB1D01321A80BB1D1B889D
:4048C000012B9AD9C046BD4602B080BD5C0D0020D00D002080B584B000AF78600D23FB1800221A700E23FB1800221A8046E00E23FB181B88284A1B01D31808331B78022B3B
:4049000035D10E23FB181B88234A1B01D318043318687B6804331022190004F07DFE031E25D10E23FB181B889A1C1C4913005B009B185B005B5A002B19D10E23FB181B8845
:404940009A1C164913005B009B185B007A68CB1811000422180004F06EFE114B1B780133DAB20F4B1A700D23FB1801221A700E23FB181A880E23FB1801321A800E23FB1874
:404980001B88012B04D80D23FB181B78002BAED0C046BD4604B080BDD00D00205C0D00203825002080B584B000AF02003960BB1D1A800D23FB1800221A70774B1B68002B4C
:4049C0000FD0764B1B88BA1D12889A4206D1724B1B683A681288013A92B21A806E4B00221A600E23FB1800221A80ABE00C23FB1800221A703B689B7D022B27D1BB1D1B8892
:404A0000674A1B01D3180C331A680E23FB181B881B01D3181B7A022B18D1BB1D1B88604A1B01D3180C331A680E23FB181B881B01D31858683B6806331022190004F0ECFDC5
:404A4000031E03D10C23FB1801221A703B689B7D012B27D1BB1D1B88514A1B01D3180C331A680E23FB181B881B01D3181B7A012B18D1BB1D1B884A4A1B01D3180C331A6826
:404A80000E23FB181B881B01D31858683B6806330222190004F0C0FD031E03D10C23FB1801221A700C23FB181B78012B43D1BB1D1B883B4A1B01D3180C331A680E23FB1879
:404AC0001B881B01D3181B88002B34D1BB1D1B88334A1B01D3180C331A680E23FB181B881B01D3183A6892881A80BB1D1B882C4A1B01D3180C331A680E23FB181B881B0179
:404B0000D3183A6892785A72BB1D1B88244A1B01D3180C331A680E23FB181B881B01D3189A1C1D4B1A601D4BBA1D12881A800D23FB1801221A700E23FB181A880E23FB184E
:404B400001321A80BB1D1B88154A1B01D31809331B789BB20E22BA1812889A4205D20D23FB181B78002B00D140E70B4B1B68002B0DD0094B1A680B4B1B7818000A49030015
:404B80005B001B185B00CB1802331B881380C046BD4604B080BDC046481200204C120020D00D0020382500205C0D002080B584B000AF0200FB1D1A700823FB1800221A800D
:404BC0000823FB1800225A80FB1D1B78002B2ED0524B1B880133524A1288524912018A1809321278934206D24C4B1B8801339AB24A4B1A8024E04A4B1B880133012B09D8D5
:404C0000474B1B8801339AB2454B1A80434B00221A8015E0444B1B780133DAB2424B1A703E4B1B8801339AB23C4B1A8008E03C4B00221A80394B00221A80FB1D01221A7060
:404C4000374B1B88374A1B01D31809331B789AB2324B1B889A421FD9314B1B88314A1B01D3180C331A682D4B1B881B01D3181B8801339AB20823FB181A80294B1B88294A6F
:404C80001B01D3180C331A68244B1B881B01D3185A880823FB185A800823FB181A88234B1B889A4215D90823FB181A881F4B5B889A420ED80823FB185A881C4B1B889A4269
:404CC00007D30823FB181A880823FB185B889A420CD9134B1B88134A1B01D31809331B789AB20E4B1B889A4200D96DE70C23FB180822BA1812681A600C23FA180023118864
:404D00000904090C1B0C1B040B43528812041B041B0C13431800BD4604B080BD4612002044120020D00D0020382500201425002080B584B000AF78600E23FB1800221A7084
:404D40000F23FB1800221A70B9E00D23FB1800221A707B681B7D022B37D1664B1B88664A1B01D3180C331A68644B1B881B01D318D9680F23FB181A7813005B009B189B0011
:404D8000CB181B7A022B20D15A4B1B885A4A1B01D3180C331A68594B1B881B01D318D9680F23FB181A7813005B009B189B00CB1858687B6804331022190004F02DFC031E41
:404DC00003D10D23FB1801221A707B681B7D012B37D1484B1B88484A1B01D3180C331A68464B1B881B01D318D9680F23FB181A7813005B009B189B00CB181B7A012B20D10C
:404E00003C4B1B883C4A1B01D3180C331A683B4B1B881B01D318D9680F23FB181A7813005B009B189B00CB1858687B6804330222190004F0F1FB031E03D10D23FB180122C1
:404E40001A700D23FB181B78012B31D1294B1B88294A1B01D3180C331A68284B1B881B01D318D9680F23FB181A7813005B009B189B00CB181B88002B1AD11E4B1B881E4A51
:404E80001B01D3180C331A681C4B1B881B01D318D9680F23FB181A7813005B009B189B00CB187A6852881A800E23FB1801221A700F23FB181A780F23FB1801321A700D4BEA
:404EC0001B880D4A1B01D3180C331A680B4B1B881B01D3189B7A0F22BA1812789A4205D20E23FB181B78002B00D12EE7C046BD4604B080BD44120020D00D002046120020CE
:404F000080B500AF064B1B78002B04D100F00AF8034B01221A7000F03FF8C046BD4680BD4E12002090B583B000AFFF2000F044F8B82000F05BF8012000F068F8012000F0C0
:404F400075F8FC1D00F095FE03002370104A104B1B78DBB201210B43DBB21370FB1D1B78180000F08AFE0B4A0A4B1B78DBB202218B43DBB21370074A064B1B78DBB2042150
:404F80008B43DBB21370C046BD4603B090BDC04690000F4070000F4080B500AF054A054B1B78DBB201210B43DBB21370C046BD4680BDC04670000F4080B582B000AF020020
:404FC000FB1D1A70FB1D1B78002B07D0054AFB1D1B781370044AFB1D1B781370C046BD4602B080BD40000F4000000F4080B582B000AF0200FB1D1A70034AFB1D1B7813705E
:40500000C046BD4602B080BD10000F4080B582B000AF0200FB1D1A70034AFB1D1B781370C046BD4602B080BD20000F4080B582B000AF0200FB1D1A70034AFB1D1B78137048
:40504000C046BD4602B080BD30000F4080B582B000AF0200FB1D1A70064B064A126806491140FA1D127892040A431A60C046BD4602B080BD08020440FFFFE3FF80B582B0B9
:4050800000AF0200FB1D1A70064B064A126806491140FA1D127892040A431A60C046BD4602B080BD08030440FFFFE3FF80B582B000AF0200FB1D1A70064B064A1268064999
:4050C0001140FA1D127852050A431A60C046BD4602B080BD08030440FFFF1FFF80B500AF064B1B78002B04D100F00AF8034B01221A7000F03FF8C046BD4680BD4F1200209A
:4051000090B583B000AFFF2000F044F8B82000F05BF8012000F068F8012000F075F8FC1D00F0A7FD03002370104A104B1B78DBB201210B43DBB21370FB1D1B78180000F0A8
:405140009CFD0B4A0A4B1B78DBB202218B43DBB21370074A064B1B78DBB204218B43DBB21370C046BD4603B090BDC04692000F4072000F4080B500AF054A054B1B78DBB2B2
:4051800001210B43DBB21370C046BD4680BDC04672000F4080B582B000AF0200FB1D1A70FB1D1B78002B07D0054AFB1D1B781370044AFB1D1B781370C046BD4602B080BD0A
:4051C00042000F4002000F4080B582B000AF0200FB1D1A70034AFB1D1B781370C046BD4602B080BD12000F4080B582B000AF0200FB1D1A70034AFB1D1B781370C046BD4601
:4052000002B080BD22000F4080B582B000AF0200FB1D1A70034AFB1D1B781370C046BD4602B080BD32000F4080B582B000AF786000F050F87B68180000F00AF8032000F03A
:4052400015F800F03BF8C046BD4602B080BDC04680B582B000AF7860034B7A681A66C046BD4602B080BDC0460000002090B585B000AF0200FB1D1A700623FB600B23FC18B1
:4052800000F0F7FC030023700B4B0B4A1268C0218A431100FA1D1078FA68904002000A431A600B23FB181B78180000F0E6FCC046BD4605B090BDC04608E400E080B500AF78
:4052C000034B802252001A60C046BD4680BDC04600E100E080B500AF034B802252001A60C046BD4680BDC04680E100E080B500AF034B802252001A60C046BD4680BDC046CC
:4053000080E200E080B500AF00F04CF8C046BD4680BDC04680B500AF064B064A1268802109060A431A6000F019F800F01DF8C046BD4680BD0000244080B500AF064B1B78D9
:40534000002B04D1FFF7DEFF034B01221A70FFF7E1FFC046BD4680BD5012002080B500AFC046BD4680BDC04680B500AF00F07CF8C046BD4680BDC04680B582B000AF78600F
:40538000C046064B1B681F221340082BF9D0044B7A681A60C046BD4602B080BD080224404002244080B500AF1B4B1C4A1A601C4B00221A601B4B1C4A1A601C4B1C4A1A6012
:4053C0001C4B07221A601C4B00221A601B4B01221A601B4B164A1A601A4B00221A601A4B04221A60194B00221A60194B00221A60184B00221A60184B00221A60174B0022D5
:405400001A60174B00221A60154B1B689AB2154B1A80C046BD4680BD000024400B000002400024404800244001000A00000324400700008004032440100324404400244041
:40544000000224400402244050002440880E2440C80E2440480F2440080F2440C80F2440880F24405212002080B500AF074B074A126807490A40902109040A431A60054B14
:40548000054A12881A60C046BD4680BD00010240FFFF0FFF880F24405212002080B584B000AF78600023FB6009E07A68FB68D3181B781800FFF760FFFB680133FB607A681A
:4054C000FB68D3181B78002BEFD1C046BD4604B080BDC04680B582B000AF78607B681800FFF74AFF0D20FFF747FF0A20FFF744FFC046BD4602B080BD80B582B000AF786006
:4055000000F04EF87B68180000F00AF8032000F015F800F03BF8C046BD4602B080BDC04680B582B000AF7860034B7A685A64C046BD4602B080BDC0460000002090B585B093
:4055400000AF0200FB1D1A700E23FB600B23FC1800F08FFB030023700A4B0A4A12680A491140FA1D1078FA68904002000A431A600B23FB181B78180000F07FFBC046BD463A
:4055800005B090BD00E400E0FF3FFFFF80B500AF024B02221A60C046BD4680BD00E100E080B500AF024B02221A60C046BD4680BD80E100E080B500AF024B02221A60C046E8
:4055C000BD4680BD80E200E080B582B000AF786000F050F87B68180000F00AF8002000F015F800F03BF8C046BD4602B080BDC04680B582B000AF7860034B7A681A67C04633
:40560000BD4602B080BDC0460000002090B585B000AF0200FB1D1A700623FB600B23FC1800F027FB030023700B4B0B4A1268C0218A431100FA1D1078FA68904002000A4313
:405640001A600B23FB181B78180000F016FBC046BD4605B090BDC0460CE400E080B500AF034B802252011A60C046BD4680BDC04600E100E080B500AF034B802252011A6093
:40568000C046BD4680BDC04680E100E090B58BB000AF78602723FC1800F0EBFA03002370194B1A680C23FB181A60184B1A680C23FB185A607B68033B154AD35C1A000C2312
:4056C000FB189A60134B1A680C23FB18DA601C23FB18114A1A600C23FA181C23FB185A600E4B1C22BA181A600D4B0E4A1A600B4B1B682723FB181B78180000F0BEFAC04631
:40570000BD460BB090BDC04608010B4000010B40FCE6010030001040B6EA000008001040040010401700008080B584B000AF78600023FB60154B154A126801210A431A60E2
:40574000134B144A1A60144B134A1268802109020A431A607B68002B12D01023FB600CE0012000F05DF800F019F8031E02D00023FB6005E07B68013B7B607B68002BEFD15B
:40578000FB681800BD4604B080BDC04660F02E4078002E400220000010002E4080B582B000AF054B1B68012213407B607B681800BD4602B080BDC0460C002E4080B582B022
:4057C00000AF0200FB1D1A7001BEC046BD4602B080BDC04680B582B000AF786009E00D4B1B68180000F03CFA7B680B4A944663447B607A6880231B029A42F0D8074B1B68FA
:405800007A685343180000F02BFAC046BD4602B080BDC046FC0D00200080FFFFF40D002080B582B000AF0200BB1D1A80BB1D1B88044A12785343180000F012FAC046BD466D
:4058400002B080BDF80D002080B500AF0F4B0F4A126801218A431A600C4B0C4A126802218A431A600A4B0A4A126830218A4310210A431A60064B064A126807218A4301219E
:405880000A431A60C046BD4680BDC04600F02E4000FF2E4080B500AF0F4B0F4A126802218A431A600D4B0D4A126807218A4302210A431A60094B094A126830218A43202107
:4058C0000A431A60044B044A126801210A431A60C046BD4680BDC04600F02E4000FF2E4080B500AFFFF7B0FF044B044A1268802109060A431A60C046BD4680BD00F02E400F
:4059000080B584B000AF78600C4B1B6801221340FB607B68002B02D0012B03D005E0FFF793FF06E0FFF7B6FF03E00020FFF746FFC046FB681800BD4604B080BD00F02E40DE
:4059400090B583B000AFFC1D00F093F903002370074B074A1268C02109020A431A60FB1D1B78180000F089F9C046BD4603B090BD00010B4080B500AF054B1A68C0231B02C5
:40598000134001D0012300E000231800BD4680BD00010B4090B583B000AFFC1D00F069F9030023700D4B0D4A12680D490A408021C9010A431A60094B084A126808490A401A
:4059C000802109020A431A60FB1D1B78180000F054F9C046BD4603B090BDC04600010B40FF3FFFFF80B582B000AF78607B68022B02D90020FFF7E2FE064B1A687B68DB003D
:405A00000133DA401300012213401800BD4602B080BDC04610020B4080B584B000AF786039607B68022B02D90020FFF7C7FE7B681800FFF7D7FF031E16D10D4B1B687A6847
:405A4000D200032191400A00D2431340FB603B6803221A407B68DB009A401300FA681343FB60034BFA681A60C046BD4604B080BD0C020B4080B584B000AF786039607B68C9
:405A8000002B02D07B68012B01D1012300E00023002B02D10020FFF791FE7B681800FFF7A1FF031E16D10D4B1B687A68D2000232012191400A00D2431340FB607B68DB0064
:405AC00002333A689A401300FA681343FB60034BFA681A60C046BD4604B080BD0C020B4080B582B000AF7860144B144A11687A680A431A607B680122134005D0C046002031
:405B0000FFF770FF031EFAD07A6880235B00134005D0C0460120FFF765FF031EFAD07A6880235B02134005D0C0460220FFF75AFF031EFAD0C046BD4602B080BD10020B40E0
:405B400080B584B000AF786039607B68002B02D07B68012B01D1012300E00023002B02D10020FFF72BFE174B1B689B0F9B0701D1C92300E05D231800FFF752FE124B1B68EA
:405B8000FB607B681B01114A9A401300DA43FB681340FB600C4B7A68120139689140FA680A431A60074B1B689B0F9B0701D1432300E01F231800FFF733FEC046BD4604B0B7
:405BC00080BDC0460C020B4008020B40FFFF000080B500AF034B1B68034A13401800BD4680BDC04610020B400404040090B585B000AF78600B23FC1800F03BF8030023709E
:405C0000FFF7B8FE031E04D00123FB60FFF7C2FE01E00023FB607B680D4A13407B600D4B0C4A12680C4911407A680A431A60094B1B68FB68012B01D1FFF782FE0B23FB1861
:405C40001B78180000F019F8C046BD4605B090BD0404040010020B40FBFBFBFF000000000230800803D00138FDD1C046C046C0467047EFF3108072B6704780F310887047A4
:405C800080B500AF0AF0E4F8C046BD4680BDC046F0B55F464D4656464446F0B491B01F0004000D00160000F0AFF9CF4B029003919B461B785BB2994601334FD032003B00B8
:405CC0003000390003F0E6FA0090002846D122002B002000290003F0DDFA00228246002834D100232000290001F082FA00283AD0002200233000390001F07AFA0590002847
:405D000000D174E006AB9846012342460693B74B5360434652469C60DD601A621E615F614246002300249361D4614B46002B00D194E00023AE4C009301940098019911B06F
:405D40003CBC90469946A246AB46F0BD00233000390001F04DFA002800D0EBE0029B039C00930194E9E70298039900F07DFF8146002800D186E0029803990022002301F001
:405D800037FA0028EAD02000290000F06DFF029A039B009201930028CFD03000390000F063FF029A039B009201930028C5D006AB98460423424606938C4B9460D5605360A2
:405DC00000230024136200239361D4615B461B78166157615BB2022B04D0404600F04EFF002840D103F0ECFB222303603BE03000390000F039FF029A039B00920193002878
:405E00009BD0002200233000390001F0F7F9002800D192E706AB9846012342460693734B53604346059A9C60DD601A621E615F615B461B785BB2002B0BD0002042466D49F0
:405E40009061D161022B09D103F0BAFB2123036009E04246002300249361D461404600F00DFF0028F0D043461B6A002B04D003F0A7FB43461B6A03604346DC699B690093E6
:405E800001945AE72000290000F0EEFE002800D171E73000390000F0E7FE002800D16AE7029803990B00020003F0F4F906AB984600287AD10323424606934C4B10625360E6
:405EC0005B461B789460D5605BB2166157619946002B48D1E0224146474B12068A61CB61200000220023290001F088F9002800D173E70022414B3000390002F0FDFB040044
:405F00000D0000F0C3FE02000B002000290001F06FF9002805D1E022394B120641468A61CB615B461B785BB299464B46022B00D053E757E706AB98460123424606932B4B4A
:405F4000536043469C60DD600024009A284D1A621E615F619C61DD614B4600940195022B00D07BE7E9E600224146264B20008A61CB6100220023290001F040F90028D4D0E5
:405F800000221E4B3000390002F0B6FB04000D0000F07CFE02000B002000290001F028F90028BED10022134BB8E70123424606930E4B536043464A469C60DD601A621E61F3
:405FC0005F6100245B461C57002C00D141E7002300221900100001F06BFF43469861D961022C00D130E739E7711100202CE701000000F03F0000F0FFFFFFEF470000E03FA2
:40600000FFFFEFC70000F07FF0B556464D4644465F46F0B41C001300670091B07F080093019406000D0080468946A2463B4332D06E4B6C0064089C4229DC26D09F4226DCB3
:406040006A4B9F4200D189E000239B464B46002B00DA87E0002A2FD1644B9F4200D19FE0634B9F425DD08023DB059A4501D100F0C1FB604B9A451FD14B46002B1CDB30004C
:40608000290000F0F7FC060007E000280DD05A4BE01830430BD100265549300011B03CBC90469946A246AB46F0BDA742C8DD534800F0E6FD0600F0E73000290000F0D0FD1F
:4060C0004346002B1DD0EB0F013B98465B464246134379D04A4B9F4200DC9FE0494B9F4201DC00F0CEFB484B9C4279DD5346002B79DD464A464B1000190002F0FDFA06002D
:40610000CBE7002C04D03A4AAB009B089342DAD15346002B00DAADE34B46002B0DDB0600BBE753462900002BB7DA32002B0000202F4901F0BDFE0600AFE72F4B9C465B4629
:4061400064441C4301D100F02BFC5B460600012BA3D180231B069C4661449EE7002A00D172E794E72B4B9F422BDC274B9F4200DC70E729493B158C466344142B01DC00F01E
:40618000F2FB3421CB1A0099D94008009840824200D05FE70123194001335B1A9B4659E7154BE018064300D175E7174B9C4200DC51E35346002B16DB009B019C1E002100BB
:4061C0006BE702239B4645E732002B003000290002F00CFD02000B0001F06AFE06005CE75346002B85DB0026002156E70000F07F0000F03F0000E03F000010C030E701006E
:406200000000E0410000F043FFFFEF3F9C7500883CE4377EFFFF3F4301FCFFFFE84B00229C4206DC0022E74B02F066FA35220C005242E54D2315AC46634499462403E34D0A
:40624000E34B240B914425439C4209DDE14B9C4200DCA9E301239C46DF4BE1449C466544002300240022089309940C930D940024D64B06920793069A079B29000A900B9175
:4062800002F0B4FC069A079B06000F000A980B9901F0E2FA02000B000020CC4901F008FE0A00010013000E910F9202003900300002F022FA0A0001008020049105921300D8
:4062C000002280210003844602920393002289056D100D4365442B190298039914001D0002F00AFA02000B003000390002F07EFC069A079B06000F002000290002F076FC37
:4063000002000B000A980B9902F070FC029A039B02F0F2F902000B003000390002F066FC0E9A0F9B02F0E8F9049D059E069007912A0033002800310002F0DEF906000F00A0
:40634000A64AA74B02F0D8F9A64AA74B01F084FA32003B0002F0D0F9A44AA54B01F07CFA32003B0002F0C8F9A24AA34B01F074FA32003B0002F0C0F9A04AA14B01F06CFA1C
:4063800032003B0002F0B8F99E4A9F4B01F064FA320004000D003B003000390002F0ACF902000B002000290002F0A6F9029E039F04000D000498059932003B0001F04CFA16
:4063C000069A079B02F098F922002B0001F044FA32000A900B913B00300039000296039702F08AF90022894B04000D0001F034FA0A9A0B9B01F030FA00260F0032000B00AC
:406400000298039902F078F90022029003917F4B3000390002F0EAFB22002B0002F0E6FB02000B000A980B9902F0E0FB049A059B02F062F9320004000D00069807993B00EA
:4064400002F05AF902000B002000290001F004FA04000D0002000B000298039901F0FCF90026E0226A4B120630000F0002F044F9029A039B049005913000390002F0B6FB85
:4064800002000B002000290002F0B0FB614A604B02F032F9604A04000D00604B3000390002F02AF902000B002000290001F0D4F90C9A0D9B01F0D0F9060048460F0002F0E1
:4064C0003FFF04000D000498059932003B0001F0C3F9089A099B01F0BFF922002B0001F0BBF9002022002B000290039102F07EFB089A099B02F07AFB049A059B02F076FBCC
:4065000002000B003000390002F070FB049005915B464246013B134300D197E100232B4C069307940098019900260B0032000F0002F05CFB029A039B02F0DEF8009A019B67
:4065400004000D000498059902F0D6F802000B002000290001F080F904000D00029803993B0032000494059502F0C6F8009001910B0002002900200001F06EF9284B8146B0
:406580000F008A46994200DC3CE1264BCB18034300D0DBE104980599234A244B01F05CF9009A019B04000D004846390002F01EFB02000B002000290000F034FE3E0037E0C0
:4065C000FFFF0F000000404301FCFFFF0000F03F8E98030079B60B000000F0FFEF4E454A287ECA3F65DBC9934A86CD3F01411DA96074D13F4D268F515555D53FFFAB6FDBAB
:40660000B66DDB3F033333333333E33F0000084009C7EE3FFD033ADCF5015B14E02F3EBEFFFF8F40000070BFFE822B654715973C002800D08AE18022E74B52039C46130072
:40664000361566443341E549DB195E001C001B038C461B0B13431422760DE14F66443741961B334198465346BC4300202100002B00DAA9E102000B000098019902F0B6FA52
:406680000B000090019102000498059901F0E4F843461B05994600200022D24B06000F0002F02AF8009A019B029003913000390002F09CFA02000B000498059902F096FA7E
:4066C000C94ACA4B02F018F8C94A04000D00C94B3000390002F010F802000B002000290001F0BAF804000D0002000B000298039901F0B2F8029A039B06000F0002F076FA3C
:4067000002000B002000290002F070FA3200009001913B003000390001F0EEFF04000D00B54AB64B01F0E8FFB54AB64B02F05EFA22002B0001F0E0FFB34AB44B01F08CF810
:4067400022002B0001F0D8FFB14AB24B02F04EFA22002B0001F0D0FFAF4AB04B01F07CF822002B0001F0C8FF02000B003000390002F03CFA04000D0002000B003000390042
:4067800001F0BAFF8023029003910022DB052000290002F02BFA02000B000298039901F087FB009A019B04000D003000390001F0A3FF009A019B01F04FF802000B00200070
:4067C000290002F013FA32003B0002F00FFA02000B000020924902F009FA4B465B181A15002A00DCF4E01900069A079B01F084FF060052E4320030002B00290001F07CFFD2
:4068000006004AE4874B4E0076089E4200DCBFE0854BCB1803430CD1009A019B02F0E6F902000B000498059900F0F2FC002800D101E7069807997D4A7D4B01F05DFF7B4A69
:406840007B4B01F059FF0600FFF727FC0023794C0693079466E65346002B00DBC3E4009B019C802212061E009446230063441900FFF713FC02000B000020694901F018FB87
:406880004AE46D4B9C4200DCAAE4654B9C4201DDFFF72CFC0022624B02F0A8F9C022674BD20504000D0001F027FF654A06000F00644B2000290001F01FFF00220290039118
:4068C000614B2000290001F017FF02000B005F485F4902F08BF922002B0001F00DFF02000B0000205B4902F081F92200049005912B002000290001F0FFFE02000B000498EC
:40690000059901F0F9FE544A4C4B01F0F5FE02000B000298039902F069F902000B0004000D003000390000F097FF002210003B0032000290039102F059F902000B002000DE
:40694000290002F053F904900591E1E5434A444B0698079901F0D0FE404A414B01F0CCFE0600FFF79AFB002A01D0FFF7A5FB1432D31A3A001A41110099408F4201D0FFF76A
:406980006FFB012313400222D31A9B46FFF768FB304B9E4200DD4EE60023994698467AE602000B00FFF714FC80232E4CDB05089309942D4B2D4C00220C930D9480242C4B49
:4069C000E4020692079356E443465B42984651E6424600F0FDF907E702FCFFFF01FCFFFFFFFF0F00432EE63FEF39FAFE422EE63F396CA80C615C20BED0A4BE726937663E83
:406A0000F16BD2C541BDBB3E2CDE25AF6A56113F93BDBE166CC1663F3E5555555555C53F0000F03FFFCB904000346F3F59F3F8C21F6EA5010000F0BFFEFFEF3F4715F73F4D
:406A400044DF5DF80BAE543E0000D03F555555555555D53F0000E03FFE822B659C7500883CE4377E03B8E23F06D0CF43EBFD4C3E0000F83FF0B556464D4644465F46754B65
:406A8000F0B40A000D00190083B0060004002940994200D1BAE0002D00DC94E02D1500D1A3E06D4B12039C468023120B5B0365441A43EB0700D581E06B109846E30F9B180A
:406AC0009B18802216210026002764009203B818984202DC87181B1AB618E00F5B0001391B18640052080029F1D1002201929446802212062020914609E09F4241D0E10F0F
:406B0000C9180138CB186400520800281ED0614651189F42F1DA8D18AC46CD0FED07BA464D4539D0DB1B8C42BF417F42DB1B641A019901388B46934459460191E10FC91850
:406B40005746CB18640052080028E0D123432BD1019B5B08414972108C466244F10702D5802109060B43414609058D181E002F003000390003B03CBC90469946A246AB4623
:406B8000F0BDA1420ED88D18AC46CD0FED074D4548D09A460023CAE76546002DC2DB7D1CAA46BFE73B00AAE7019B01333ED0019A01239446134063445B08CBE7E30F520060
:406BC0009A18640078E76B005B0803432F00002BCED00025002A31D1E20A153D6405002AFAD080235B031A4223D180200023400300E00B005200591C0242FAD02020401A77
:406C0000ED1A2300C3408C401A434AE702002B00290001F071FD32002B0000F01DFE06000F00A5E76546002DB9DAB2E70136002390E7012320205B420021E1E73B00020013
:406C4000390001F0D3FF02000B0001F031F906000F008DE70000F07F01FCFFFF0000E03F49004B0819007047034B48009C4640086044C00F7047C04600001080002070471B
:406C8000002001497047C0460000F87FF0B5474680B4CB0F98464A4C4B005B0D1E1982B007000A00132E35DC002E57DB454B040033411F000F4007430D00002F24D05B0850
:406CC0001C000C4020430027002807D0132E00D172E08022D202324199430A434346DE00394B11009E1934687568380022002B0000F0B2FD009001910098019922002B003C
:406D000001F074FF04000D002000290002B004BC9046F0BD332E0CDD80230400DB000D009E42F1D102000B0000F096FD04000D00EAE7264C0D00A446012463446442DC40BC
:406D4000A446614604000142DED049080142C5D08027FF051F4188430743BFE74B005B08034304000D00002BCED00B031B0B03435A42134380221B0B120313404A0C520488
:406D8000134319004346104ADB00D3181C685D6822002B0000F060FD009001910098019922002B0001F022FF42464B005B08D607334304001D00A7E780273F0689E7C0468B
:406DC00001FCFFFFFFFF0F0038E70100EDFBFFFF4B0070B55B0D14000A00002B1AD14B005B08034315D00022224B01F085FC224B0A009C4222DB4B005B0D363B1F4DE318C2
:406E0000AB4220DC002B0DDD1D4C1B0522401A43110070BD1B4DAB42F0D102000B0000F01BFDF6E71D00353518DA174B02009C420ADC0B001548164900F032F8134A144B88
:406E400001F05AFCE5E702000B001248124900F027F8104A104B01F04FFCDAE7084C363322401B051343190000220C4B01F044FCCFE7C04600005043B03CFFFFFE070000E6
:406E8000FFFF0F80FF07000050C3000059F3F8C21F6EA5019C7500883CE4377E0000903C30B54A00DB0FDB0752081A43110030BD90B583B000AFFC1DFEF7DBFE0300237065
:406EC000074B074A126804218A431A6030BFFB1D1B781800FEF7D1FEC046BD4603B090BD10ED00E0002243088B4274D303098B425FD3030A8B4244D3030B8B4228D3030C4B
:406F00008B420DD3FF22090212BA030C8B4202D31212090265D0030B8B4219D300E0090AC30B8B4201D3CB03C01A5241830B8B4201D38B03C01A5241430B8B4201D34B03CC
:406F4000C01A5241030B8B4201D30B03C01A5241C30A8B4201D3CB02C01A5241830A8B4201D38B02C01A5241430A8B4201D34B02C01A5241030A8B4201D30B02C01A5241DA
:406F8000CDD2C3098B4201D3CB01C01A524183098B4201D38B01C01A524143098B4201D34B01C01A524103098B4201D30B01C01A5241C3088B4201D3CB00C01A524183086B
:406FC0008B4201D38B00C01A524143088B4201D34B00C01A5241411A00D20146524110467047FFE701B5002000F0F0F802BDC0460029F7D076E7704703460B437FD40022D7
:4070000043088B4274D303098B425FD3030A8B4244D3030B8B4228D3030C8B420DD3FF22090212BA030C8B4202D31212090265D0030B8B4219D300E0090AC30B8B4201D32D
:40704000CB03C01A5241830B8B4201D38B03C01A5241430B8B4201D34B03C01A5241030B8B4201D30B03C01A5241C30A8B4201D3CB02C01A5241830A8B4201D38B02C01A9A
:407080005241430A8B4201D34B02C01A5241030A8B4201D30B02C01A5241CDD2C3098B4201D3CB01C01A524183098B4201D38B01C01A524143098B4201D34B01C01A52415C
:4070C00003098B4201D30B01C01A5241C3088B4201D3CB00C01A524183088B4201D38B00C01A524143088B4201D34B00C01A5241411A00D201465241104670475DE0CA0FD4
:4071000000D04942031000D34042534000229C4603098B422DD3030A8B4212D3FC22890112BA030A8B420CD3890192118B4208D3890192118B4204D389013AD0921100E073
:407140008909C3098B4201D3CB01C01A524183098B4201D38B01C01A524143098B4201D34B01C01A524103098B4201D30B01C01A5241C3088B4201D3CB00C01A52418308B6
:407180008B4201D38B00C01A5241D9D243088B4201D34B00C01A5241411A00D20146634652415B10104601D34042002B00D54942704763465B1000D3404201B5002000F0AF
:4071C00005F802BD0029F8D016E770477047C0468446101C62468C46191C634600E0C0461FB501F01FFA002801D40021C8421FBD10B501F073F94042013010BD10B501F003
:4072000011FA002801DB002010BD012010BDC04610B501F007FA002801DD002010BD012010BDC04610B501F099F9002801DC002010BD012010BDC04610B501F08FF900282C
