:400000000040002011000000652500006525000080B500AF02F0D8FA80B500AF2F4B12221A6005F019FC2E4B180005F0D5FD012005F022FC102005F0E5FA2A4B2A4A1A608A
:400040002A4B8022D2051A60294B294A126802210A431A60274B284A1A60284B00221A60274B274A126808218A431A60FA23DB00180005F015FB234B180005F08DFB224B0E
:40008000224A1A60224B234A1A60234B9F2212021A601F4B214A1A60214B8822D2011A601B4B204A1A60204B802212061A601F4B00221A601E4B42221A601E4B41221A601B
:4000C0001D4B40221A60094B8022D2051A60034B00221A60C046BD4680BDC04630001040001BB70004010B40060000800C020B4078002E407C002E402D3E000064F02E40C1
:400100006CF02E40DC05000008030140007F3E000000014042FF00800403014041FF00800003014040FF008008010B4000010B4038010140300101400401014080B582B0C5
:4001400000AF72B6524B00221A60524B01221A70FB1D00221A7022E0FB1D1A7813005B009B185B004C4A9B183B603B681A78597809020A43997809040A43DB781B061343C2
:4001800018003B681A795B791B0213439BB2190002F082F9FB1D1A78FB1D01321A70FB1D1B78012BD8D93D4A3D4B1100180002F083F93C4BA02212011A803B4B01221A7001
:4001C0003A4BEE2212061A60394B992212041A60384BC02292041A60374BCC2292051A60364B992212041A60354B992212041A60344B354A1A60354B802212061A60344BD1
:40020000802252051A60334B992212041A60324BD02252051A60314B02221A60304B02221A60304A2F4B1B78DBB23C218B43DBB214210B43DBB213702B4A2B4B1B78DBB2A5
:4002400016210B43DBB21370284BD82212041A60274B20221A60274BC42292021A60264B20221A60254BC0221A60254B8822D2031A60244BC0221A60234B902292031A60FC
:40028000FFF7CAFE02F05AF9C046BD4602B080BD6CF02E401C700F40C4E00100F4E00100D0E0010000600F4002600F400000024000010240000202400003024000500F4066
:4002C00010500F4020500F400400990024500F4028500F4030500F4038500F402000104000800F4001700F4000700F40080004400001044008010440180104400002044084
:4003000008020440000304400803044010B5064C2378002B07D1054B002B02D0044800E000BF0123237010BDE01100200000000064D80100084B10B5002B03D00749084864
:4003400000E000BF07480368002B00D110BD064B002BFBD09847F9E700000000E411002064D80100E80B00200000000080B582B000AF00F055F809F083FD01F0CFFA01F079
:40038000CDFB01F01FFC1D4B1B78002B0BD11C4B1B889BB21A001B4B1B889BB2D21AC3239B009A4204DD01F08FFD144B00221A70BB1D154A1900100004F082F8134B1B782F
:4003C000022BD8D1BB1D1A888023DB0013409BB2002BD0D10E4B180005F084F8202005F09DF802F077FA0B4B180002F0DBF90A4B01221A70094B01221A70BCE7EC0B0020C3
:400400000C240020FC1100201C112E401625002068D8010095090000FE110020080C002080B586B000AF62B6574B180002F0BAF904F08AFD04F076FEFF2004F00BFEFF2058
:4004400004F018FEFF2004F0F3FE062004F022FE062004F037FE062004F04CFE4B4B180000F058FA802004F0E3FE142005F06EF9FF2004F0DDFE464B9B68464A1000190051
:4004800020231A0009F093F8414B9B68DB7F1C2B15D83F4B9B68DB7F1A003E4B012199543B4B9B68DB7F01333B4A1178394AD154374B9B68DB7F0233DAB2364BDA77344BE7
:4004C000344A9A60354B7B617B695A1C7A611A781023FB181A707B691A781023FB185A701023FB181B78FF2B04D11023FB185B78FF2B39D01023FB181B78002B04D11023DB
:40050000FB185B78002B2FD01023FB185B781B021AB21023FB181B781BB213431BB29AB21F4B1A801B4B54225A711A4B69229A71184B7422DA71174B61221A72154B6E2249
:400540005A72134B134A9A603B1D15221A813B1D02229A803B1D1022BA181A60114A381D0023002118F022FB04F00AFF202004F0D5FF0D4B180004F0B5FF202004F0CEFF2D
:40058000C046BD4606B080BD95090000CC0C0000680C002010240020F00B002080F2FF0F14120020282500209CD8010080B584B000AF78600A00FB1C1A70FB1C1B78042BAA
:4005C00050D17B681B781A007B6803331B785343FF21180006F0CCFC03001A000F23FB181A707B6801331B781A007B6803331B785343FF21180006F0BBFC03001A000E23ED
:40060000FB181A707B6802331B781A007B6803331B785343FF21180006F0AAFC03001A000D23FB181A700F23FB181B78DB43DBB2180004F00FFD0E23FB181B78DB43DBB23B
:40064000180004F017FD0D23FB181B78DB43DBB2180004F0EDFD054B180004F043FF202004F05CFFC046BD4604B080BDF0D8010080B582B000AF0200FB1D1A70FB1D1B788E
:40068000062B27D89A00194BD3181B689F46184B180004F027FF22E0164B180004F022FF1DE0154B180004F01DFF18E0134B180004F018FF13E0124B180004F013FF0EE03A
:4006C000104B180004F00EFF09E00F4B180004F009FF04E00D4B180004F004FFC046202004F01CFFC046BD4602B080BD28DA010000D9010024D901004CD9010070D901004C
:4007000098D90100BCD90100E4D901000CDA010090B585B000AF0200FB1D1A70FB1D1B780A21180006F020FC0B00DAB20C23FB181A70FC1DFB1D1B780A21180006F08EFB56
:4007400003002370FB1D1B780A21180006F00CFC0B00DAB20C23FB185A70FC1DFB1D1B780A21180006F07AFB03002370FB1D1B780A21180006F0F8FB0B00DAB20C23FB189C
:400780009A700C23FB189B78002B1BD10C23FB185B78002B07D10C23FB181B783033180004F00EFE23E00C23FB185B783033180004F006FE0C23FB181B783033180004F08C
:4007C000FFFD14E00C23FB189B783033180004F0F7FD0C23FB185B783033180004F0F0FD0C23FB181B783033180004F0E9FDC046BD4605B090BDC04680B584B000AF02008B
:40080000FB1D1A70FB1D1B780F221340DAB20C23FB181A70FB1DFA1D127812091A70FB1D1B780F221340DAB20C23FB185A700C23FB185B78092B07D80C23FB185B783033CA
:40084000180004F0BDFD06E00C23FB185B783733180004F0B5FD0C23FB181B78092B07D80C23FB181B783033180004F0A9FD06E00C23FB181B783733180004F0A1FDC046E8
:40088000BD4604B080BDC04690B587B000AF78601D4B7B610021786806F0A6FC031E09D07B695A1C7A612D221A707B688022120653407B60786806F0BFFC03003B6138697A
:4008C00006F048FF031C191C786806F09BFD031C7B60786808F032FD00220C4B07F0C8FE03000C001800210006F0BEFC0300FB60FB683A690649786908F06AFE024B180071
:40090000BD4607B090BDC0460012002080842E4144DA010080B582B000AF786004F0F6FF0121002005F034F80121002005F05EF87B681900002005F0BFF85A2004F02CFFBE
:40094000012005F089F804F0B7FF044B180004F08FFCC046BD4602B080BDC0466109000080B500AF04F0E6FC05F0EEF802000423134009D0042005F0F5F8054B1B889BB2B8
:4009800001339AB2024B1A80C046BD4680BDC0460C24002090B5C3B000AFF864B964FB6C412B00D1B4E016D8262B00D168E006D8012B2AD0202B00D1C5E200F0ACFF282B0F
:4009C00001D100F018FF01D200F03BFE2B2B00D18BE000F0A0FF4C2B00D1ABE007D8422B00D19EE04A2B00D179E000F094FF4E2B00D16BE201D200F0D8FE8922520093426F
:400A000001D100F05FFE00F086FFB44B180004F069FD202004F082FDB14B1B78002B0FD1F223FC18002001F061FF03002380F223FB181B88002B1ED1AA4B01221A701AE0A3
:400A4000F223FC18002002F003F803002380F223FB181B88002B0ED1A34B180004F042FD202004F05BFDA14B1B889AB2A04B1A809C4B02221A709A4B00221A7000F04BFF40
:400A80009C4B180004F02EFD202004F047FD9A4B1B78062B01D000F033FF984B1B78002B01D000F02DFFF223FC18002001F01EFF03002380F223FB181B88002B01D000F0C2
:400AC0001FFF8F4B180004F00DFD8B4B1B781800FFF7CEFD202004F021FD00F011FF894B180004F0FFFC00F016FF874B180004F0F9FCBB6C1B781800FFF77EFE7E4B1B7801
:400B00001800FFF7B5FD202004F008FD00F003FF7E4B180004F0E6FC202004F0FFFC00F0FAFE7B4B180004F0DDFC202004F0F6FC00F0F1FEB023FB18BA6C13CA13C3126813
:400B40001A60744B180004F0CDFCB023FB189B89DBB21800FFF750FE202004F0DFFCB023FB189B89152B67D1B023FB181B89022B4ED1694B180004F0B5FCB023FB185B68F3
:400B800001331B781B021AB2B023FB185B681B781BB213431BB29AB2604B1A805F4B1B88002B04D05D4B1B885D4A934210D1B023FB189B8904221900122001F05BF8594B71
:400BC000180004F08FFC554B00221A8000F0A3FE524B1B88180001F01DF9534AB023FB18181D0023002117F0E1FF202004F096FC4E4B54225A714D4B69229A714B4B742235
:400C0000DA714A4B61221A72484B6E225A7213E0B023FB189B890D221900122001F02AF83E4B00221A80424B180004F05BFC202004F074FC00F06FFEB023FB189B890E2BD3
:400C400000D033E1354B1B88002B00D124E1B023FB181B89082B00D014E1364B180004F041FC202004F05AFCB023FB185B681A78314B1A70B023FB185B6803331B781B02C6
:400C80001AB2B023FB185B6802331B781BB213431BB29AB2294B1A80B023FB185B681A78274B1A70B023FB185B685A78244B5A70B023FB185B689A78214B9A70B023FB18AB
:400CC0005B68DA781E4BDA701E4B180004F00AFC00237A1DFF32136048E0C04650DA0100FE110020080C002064DA01000C2400201C12002084DA01001625002012120020BC
:400D0000B0DA0100C8DA0100E8DA01000CDB010014DB010034DB010050DB010014120020FFFF000068DB0100282500201024002080DB010094DB01001E12002020120020F7
:400D400038240020B4DB0100B023FB185A687B1DFF331B68D3181B781800FFF74DFD7B1DFF331B6801337A1DFF321360B023FB181B891A007B1DFF331B689A42E4DC202013
:400D800004F0CCFBB34B1A78B24B5B781900100001F026FB0300180008F08EFA0022AE4B07F042F803000C001800210008F01AFB031C181CFFF768FD0300EC22BA1813609D
:400DC000A64B180004F08EFBEC23FB181B68180004F088FB202004F0A1FBB023FB185B681B78012B1FD19E4B1A889E4B1B8853409BB21A00FF231B02134026D19A4AB023C0
:400E0000FB18181D0023002117F0D0FE974B180004F068FB964B1B781800FFF729FC202004F07CFB11E08E4B1A888E4B1B889A4203D08B4B1B88002B07D18B4AB023FB18E0
:400E4000181D0023002117F0B1FE8A4B1B780133DAB2884B1A70884B180004F043FB854B1B781800FFF754FC202004F057FB834B01221A70824B180004F034FB202004F0A3
:400E80004DFB13E0B023FB189B890D221900122000F0F0FE00F03FFDB023FB189B8911221900122000F0E6FE00F035FD6E4B1A785B781B021A4300231204120C1B0C1B04B6
:400EC0001343180016F06AFC00F025FD8023FB18BA6C13CA13C312681A60624B1B88002B01D100F00FFD8023FB189B89112B01D000F008FD8023FB181B89012B01D000F017
:400F000001FD8023FB185B681A785A4B1A70594B1B78013BDAB2574B1A70534A8023FB18181D0023002117F041FE564B180004F0D9FA504B1B781800FFF7EAFB202004F067
:400F4000EDFA00F0DFFC4A4B1B78022B01D100F0DBFC9023FB18BA6C13CA13C303CA03C39023FB181B78002B00D0F5E29023FB181A7A454BDB7F9A425AD19023FB18DA6821
:400F80009023FB181B7A023BD3181B78012B00D0E2E29023FB18DA689023FB181B7A013BD3181A78334B1B789A420ED39023FB18DA689023FB181B7A013BD3181B78FF2B2A
:400FC0001DD12C4B1B78002B19D1304B01221A709023FB185B682E4A1000190006231A0008F0E5FA9023FB185A782A4B1A702A4B180004F077FA202004F090FAACE2234B35
:4010000000221A70234B00221A70214B00221A701F4B00225A701E4B00229A701C4B0022DA701B4B00221A71194B00225A7193E200237A1CFF321360184B1B78002B03D0EA
:40104000174B1B78002B52D0FF23FB1800221A7045E0C0463824002000005940C0DB0100201200201412002028250020D8DB010016250020F00B0020E8DB0100121200203A
:4010800028DC010040DC010010240020161200205C2400201712002078DC010013120020221200209023FB185A68FF23FB181B78D3181A78FF23FB181B78ED49CB5C9A42CD
:4010C00006D17B1CFF331B6801337A1CFF321360FF23FB181A78FF23FB1801321A70FF23FB181B78052BDDD9E24B00221A707B1CFF331B68062B00D029E201F0FBFCDE4BB6
:40110000180004F0EFF9202004F008FA202004F005FADA4B180004F0E5F99023FB181B781A00D7496423FB18180008F051FA6423FB18180004F0D6F9D24B180004F0D2F952
:40114000D14B180004F0CEF99023FB181B7C5BB21A00CB495823FB18180008F039FA5823FB18180004F0BEF9C64B180004F0BAF9C64B180004F0B6F99023FB185B68053369
:401180001B781800FFF738FB9023FB185B6804331B781800FFF730FB9023FB185B6803331B781800FFF728FB9023FB185B6802331B781800FFF720FB9023FB185B68013315
:4011C0001B781800FFF718FB9023FB185B681B781800FFF711FB202004F0A0F9202004F09DF9AB4B180004F07DF90023E822BA1813600023F822BA18136015E09023FB1847
:40120000DA68F823FB181B68D3181978A14AF823FB181B68D3180A1C1A70F823FB181B680133F822BA1813609023FB181B7A1A00F823FB181B689A42E0DC202004F06EF96B
:401240009023FB1810229A569023FB18DB681900100000F02DFF904C3B00180001F0AEF88E4B842252009446BC4463442000190044231A0008F09BF9874B9B68181CFFF7DB
:4012800003FB0300E422BA181360854B180004F029F9E423FB181B68180004F023F9202004F03CF97C4B10229B5E1A007D495423FB18180008F08CF97B4B180004F012F9E8
:4012C000754B10229B5EDBB21800FFF721FA202004F024F9704BDB69181CFFF7D5FA0300E022BA181360714B180004F0FBF8E023FB181B68180004F0F5F8202004F00EF932
:40130000654BDB68181CFFF7BFFA0300DC22BA181360674B180004F0E5F8DC23FB181B68180004F0DFF8202004F0F8F85A4B5B69181CFFF7A9FA0300D822BA1813605D4B3A
:40134000180004F0CFF8D823FB181B68180004F0C9F8202004F0E2F84F4B9B69181CFFF793FA0300D422BA181360534B180004F0B9F8D423FB181B68180004F0B3F82020BC
:4013800004F0CCF8444B1B6A181CFFF77DFA0300D022BA181360494B180004F0A3F8D023FB181B68180004F09DF8202004F0B6F8394B5B6A181CFFF767FA0300CC22BA18A8
:4013C00013603F4B180004F08DF8CC23FB181B68180004F087F8202004F0A0F82E4B5B6B181CFFF751FA0300C822BA181360354B180004F077F8C823FB181B68180004F015
:4014000071F8202004F08AF8234BDB6B181CFFF73BFA0300C422BA1813602B4B180004F061F8C423FB181B68180004F05BF8202004F074F8202004F071F89023FB18DB684F
:401440005A7A224B1A709023FB18DB681A7A1F4B5A701E4B00229A701C4B0022DA701C4B180004F03FF80023F422BA18136041E00C0C00202212002090DC0100A4DC0100A5
:40148000B0DC0100B4DC0100B8DC0100C0DC0100D0DC01003C24002064240020F8FEFFFF00DD010010DD010014DD01001CDD010024DD010030DD010038DD010044DD010013
:4014C00050DD010058DD010064DD0100A8240020B4DB0100EC4AF423FB181B68D3181B781800FFF789F9F423FB181B680133F422BA181360F423FB181B68042BEADD2020BA
:4015000004F00CF8E14B1B780133DAB2DF4B1A70DF4B180003F0E6FFDE4B1B88DBB21800FFF7F6F8202003F0F9FFDB4B01221A70DA4B01221A70DA4B180003F0D3FFD94B1B
:401540001B781800FFF794F8202003F0E7FFD64B1B889AB2CF4B1A809023FB181B78042B00D0D1E19023FB181B7A142B00D0CBE1CE4B1B78002B00D1C6E19023FB185B6869
:40158000CB490622180008F003F8031E00D0BBE19023FB185A78C74B1B789A4200D0B3E19023FB18D8689023FB181B7A1A00C24B190007F0EDFF031E00D0A5E1BF4B1800BD
:4015C00003F090FF202003F0A9FFB44B00221A7001F090FABA4B180003F084FF202003F09DFF9023FB185A78B64B9A719023FB185B681A78B34B1A709023FB185B685A7864
:40160000B04B5A709023FB185B689A78AD4B9A709023FB185B68DA78AA4BDA709023FB185B681A79A74B1A719023FB185B685A79A44B5A71A44B01221A709C4B00221A7050
:4016400062E1A24B180003F04DFFA14B1B786822BA181100180014F00AFB6823FB181B781800FFF7C9F86823FB185B781800FFF7C3F86823FB189B781800FFF7BDF82020E8
:4016800003F04CFF934B1B78022B00D03EE1904B1A785B781B021A4300231204120C1B0C1B041343180001F01DFB8B4B180003F019FF7C4B1B781800FEF7DAFF202003F025
:4016C0002DFF23E1854B01221A70854B180003F009FF744B1B781800FEF7CAFF202003F01DFFA423FB1811221A81A423FB18674A1A60A423FB1801229A80A423F918744B88
:401700001A785B781B021A4300231204120C1B0C1B041343180015F0FDFC5B4B1A785A4B5B781900100000F05BFE0300180007F0C3FD00226B4B06F077FB03000C00180066
:40174000210007F04FFE031C181CFFF79DF80300C022BA181360644B180003F0C3FEC023FB181B68180003F0BDFE202003F0D6FE7423FB180E221A817423FB18424A1A6016
:401780007423FB1808229A807423F918504B1A785B781B021A4300231204120C1B0C1B041343180015F0ACFCB5E0504B180003F099FE3C4B1B781800FEF75AFF202003F0DC
:4017C000ADFE434B1B78002B00D1A1E0404B1B78180014F0C7F9304B01221A70304B180003F080FE2F4B1B781800FEF741FF202003F094FE8CE0394B00221A703C4B180020
:4018000003F070FE274B1B781800FEF731FF202003F084FE2F4B1B78012B17D1354B1B78012B13D01F4B1B78062B2BD1002001F05DF8314B180003F055FE1A4B1B78180093
:40184000FEF716FF202003F069FE1BE0214B1B78022B5FD1274B1B78012B5BD0114B1B78062B57D1002001F0F3F8244B180003F039FE0C4B1B781800FEF7FAFE202003F0FA
:401880004DFE47E046E0C046A8240020F00B002070DD0100FC1100201A120020131200207CDD0100162500200C240020161200205C24002017120020F40B0020A0DD0100A4
:4018C00090DC01003024002018120020C4DD010028250020080C0020E8DD01001912002008DE0100000059402CDE010044DE010060DE010012120020B0DA010084DE01004A
:40190000C04608E0C04606E0C04604E0C04602E0C04600E0C046BD4643B090BD90B583B000AF6B4B1B78012B00D0CDE0694B180003F0D8FD202003F0F1FD08F0A1FA664BBA
:401940001B78002B12D0644B1B78180014F00AF908F096FA614B180003F0C4FD604B1B781800FEF785FE202003F0D8FD5D4B1B78012B02D0022B4CD0A6E0594B1B78032B23
:401980000FD101F021F808F07BFA574B180003F0A9FD534B1B781800FEF76AFE202003F0BDFD4F4B1B78062B30D1BC1D002001F04FF803002380BB1D1B88002B17D14B4B90
:4019C000180003F08FFD464B1B781800FEF750FE202003F0A3FD464B1B889AB2454B1A80404B02221A703A4B00221A700EE03D4B01221A70404B180003F074FD384B1B78AA
:401A00001800FEF735FE202003F088FD08F038FA5AE0334B1B78042B0AD101F06BF808F02FFA364B180003F05DFD202003F076FD2B4B1B78062B44D1314BDB7F013B314A52
:401A400011782F4AD154304B2D4A9A602F4B180003F048FD2B4B1B781800FEF759FE202003F05CFDBC1D002000F040FF03002380BB1D1B88002B15D11A4B01221A70244BB5
:401A800000221A70124B00221A70224B180003F029FD134B1B781800FEF7EAFD202003F03DFD0EE00F4B02221A701B4B180003F019FD0B4B1B781800FEF7DAFD202003F004
:401AC0002DFD08F0DDF9C046C046BD4603B090BD1212002098DE010028250020A4DE010016250020080C0020C4DE0100E8DE01000C2400201C12002000DF010018DF0100C5
:401B000010240020F00B0020680C002030DF01001812002044DF010064DF010090B583B000AF234B1B78DBB2002B3DD008F0A8F9204B1B78062B37D11D4B00221A70BC1D36
:401B40001D4B180000F0E8FF03002380BB1D1B88002B0CD0194B180003F0C4FC154B1B781800FEF785FD202003F0D8FC1AE0144B180003F0B7FC104B1B781800FEF73CFEE2
:401B80000D4B5B781800FEF737FE0B4B9B781800FEF732FE074B1B781800FEF769FD202003F0BCFC08F06CF9C046BD4603B090BD1812002016250020302400208CDF0100E4
:401BC000A4DF010080B500AF224B1B78022B1CD1214B1B889BB21A00204B1B889BB2D31A1E2B12DD1E4B1B78062B03D01C4B1B78042B0AD11B4B01221A701B4B180003F0E5
:401C000071FC202003F08AFC22E0184B1B78002B1ED008F035F9134B1B78012B15D0104B1B78062B14D1114B00221A7008F028F90F4B180003F056FC202003F06FFC0020AB
:401C400000F006FF08F01CF902E0084B00221A70BD4680BD080C00200C2400201C1200201625002012120020BCDF01001A120020E4DF010090B585B000AF040008001100DE
:401C8000FB1D221C1A703B1D021C1A80BB1D0A1C1A700C23FB18FA1D12789A700C23FB183A1D12881A800C23FB18BA1D1278DA700C23F918084B1A785B781B021A43002370
:401CC0001204120C1B0C1B041343180015F0EEFCC046BD4605B090BD2825002080B5ACB000AF02003960FB1D1A700023A822BA1813603A4B1B68FB61394B1B68BB61394BDB
:401D00001B687B61384B1B683B61384B1B68FB60374B1B68BB60374B374A1A60374B384A1A602023FB18374A1A602023FB187F225A60AF23FB1800221A7015E0AF23FB18B9
:401D40001B789A1CAF23FB181B789B003968CB1819682023FB189200D150AF23FB181A78AF23FB1801321A70AF23FB181B781F2BE4D9204B2022BA181A60204B224A1A6017
:401D80002023FB18214A1A60FB1D1A782023FB185A60184B2022BA181A60184B1C4A1A60144B1B68A822BA1813600C4BFA691A600B4BBA691A600B4B7A691A600A4B3A6937
:401DC0001A600A4BFA681A60094BBA681A60A823FB181B681800BD462CB080BD00010B4008010B401CFF0B4020FF0B4028FF0B402CFF0B4008001040B6E800000400104011
:401E000015000080B6D7000004000080B6EB00001800008080B5A6B000AF0200BB1D1A80264B9422BA1813609223FB1800221A8015E09223FB181A889423FB181B68191D43
:401E400094203818016019680C23FB189200D1509223FB181A889223FB1801321A809223FB181B881F2BE4D9BB1D1A880C23FB181A600C23FB1819000120FFF72FFF03003D
:401E80008C22BA1813608C23FB181A68A0231B069A4207D10A4B180003F024FB202003F03DFB06E0074B180003F01CFB202003F035FBC046BD4626B080BDC04680F2FF0F0A
:401EC0000CE0010034E0010080B500AF0B4B1B78012B0FD10A4B1B78032B0BD1094B180003F000FB202003F019FB074B01221A7000F00CF8C046BD4680BDC046080C002001
:401F0000162500205CE001002212002080B582B000AF614B1B78082B00D984E09A005F4BD3181B689F46FB1DFF221A70BB1D00221A707B1D00221A703B1DFF221A70564B2A
:401F400002221A707FE0FB1D00221A70BB1DFF221A707B1D00221A703B1DFF221A704E4B03221A706FE0FB1D00221A70BB1D00221A707B1DFF221A703B1DFF221A70464B10
:401F800004221A705FE0FB1DFF221A70BB1DFF221A707B1D00221A703B1DFF221A703E4B05221A704FE0FB1D00221A70BB1DFF221A707B1DFF221A703B1DFF221A70364B2E
:401FC00006221A703FE0FB1DFF221A70BB1D00221A707B1DFF221A703B1DFF221A702E4B07221A702FE0FB1DFF221A70BB1DFF221A707B1DFF221A703B1DFF221A70264B4B
:4020000008221A701FE0FB1DFF221A70BB1DFF221A707B1DFF221A703B1D22221A701E4B01221A700FE0FB1DFF221A70BB1D00221A707B1D00221A703B1DFF221A70164B4A
:4020400001221A70C046164BFA1D12781A70144BBA1D12785A70124B7A1D12789A70104B3A1D1278DA700E4B04211800FEF79EFA0C4B01221A700C4B180003F033FA0B4B7D
:402080001B781800FEF7F4FA202003F047FAC046BD4602B080BDC046120C0020A0E00100AC2400201212002078E001001625002090B583B000AF02003960FB1D1A703B6872
:4020C000DA79804B1A713B6809331A783B6808331B781900100000F083F90300180007F0EBF80022784B05F09FFE03000C001800210007F077F9021C724B9A603B680A33F0
:402100001A783B680B331B781900100000F0A8F90300180007F0D0F800226B4B05F084FE03000C001800210007F05CF9021C654BDA603B680D331A783B680C331B78190017
:40214000100000F08DF903001AB25E4B1A823B680F331A783B680E331B781900100000F07FF90300180007F0A7F80022564B05F05BFE03000C001800210007F033F9021CFB
:40218000504B5A613B6811331A783B6810331B781900100000F064F90300180007F08CF800224A4B05F040FE03000C001800210007F018F9021C434B9A613B6813331A786F
:4021C0003B6812331B781900100000F049F90300180007F071F800223B4B05F025FE03000C001800210007F0FDF8021C354BDA613B681A331B786433180007F05DF8002221
:40220000324B06F035FA03000C001800210007F0E9F8021C2B4B5A632A4B00229A62294B0022DA62274B00221A633B6815331A783B6814331B781900100000F0D1F8030036
:40224000180007F039F800221F4B05F0EDFD03000C001800210007F0C5F8021C194B1A623B6817331A783B6816331B781900100000F0B6F80300180007F01EF80022124B4D
:4022800005F0D2FD03000C001800210007F0AAF8021C0C4B5A620B4BFA1D382112785A54084B38229B56180000F012F8021C054BDA63044B402201219954C046BD4603B073
:4022C00090BDC046B0240020000059400000244090B587B000AF0200FB1D1A70FB1D1B785BB2D9175A184A401723FB181A701723FB181B785BB2002B01D1274B48E0172392
:40230000FB181B785BB2180006F0D6FF0022234B05F08AFD03000C001800210007F062F8031C3B61FE218905386904F05DFF031E10D0386907F002F80023194C1A002300B1
:4023400003F062FC03000C001800210007F04AF8031C1DE0386906F0F1FF124B124C1A00230003F051FC114A114B06F081F903000C00180021000F4A0F4B05F029FA030073
:402380000C001800210007F02DF8031CFB60FB68181CBD4607B090BD000080BF00804D40000020404A0C022B87D61E40159161156F64E63FD122DBF97E6ABC3F80B582B095
:4023C00000AF78607A68054B1000190044231A0007F0EDF87868BD4602B080BDB024002080B584B000AF0200FB1D1A70BB1D0A1C1A70FB1D1B781B0219B2BB1D1B781AB2CA
:402400000C23FB180A431A80FB1D1B785BB2002B17DA0A23FB180C22BA181288D2431A800A23FB181B8801339AB20A23FB181A800A23FB181B885B429AB20E23FB181A802F
:4024400005E00E23FB180C22BA1812881A800E23FB1800229B5E1800BD4604B080BDC04680B584B000AF0200FB1D1A70BB1D0A1C1A70FB1D1B781B021AB2BB1D1B781BB27E
:4024800013431AB20E23FB181A800E23FB181B881800BD4604B080BD80B582B000AF786039603A687B680021180007F089F8C046BD4602B080BDC04680B586B000AF78607C
:4024C000396000233B6100237B612FE07B699B007A68D3181B68BB600F23FB18BA681A70BB68FF229343BB6018E03B695B003A68D3181B781A00BB68D31819003B695B000F
:402500003A68D3185B780B703B6901333B610F23FB181A780F23FB18013A1A700F23FB181B78002BE1D17B6901337B617B69082BCCD9C046BD4606B080BDC04680B500AF20
:40254000054B03221A60054B03221A60044B00221A60C046BD4680BD3000304030003140000E3F4080B500AF06F0E6FF03001B680C2B00D1FEE7FEE780B584B000AF786077
:402580000F4B1A687B68D3181A000E4BD31A802B09DC0B4B1B68FB60094B1A687B68D218074B1A6007E006F0C7FF03000C221A6001235B42FB60FB681800BD4604B080BD05
:4025C000140C00204825002080B586B000AF224B7B61224B3B61204B7B6135E03B691B68FB603B695B68BB603B699B683B6000237B600CE0FB681A68BB681A60BB6804333A
:40260000BB60FB680433FB607B6804337B607A683B689A42EED13B69DB683B6000237B6008E0BB6800221A60BB680433BB607B6804337B607A683B689A42F2D13B691033D9
:402640003B617B69013B7B617B69002BC6D106F079FFFDF78BFEFEE701000000DCE7010080B582B000AF154B144A126801218A431A6000237B600FE07B68032B04D8104B9B
:402680007A689200D35800E00E4B0F4A796889008B507B6801337B607B682F2BECD9FDF74DFD0A4B00221A60044B044A126801210A431A60C046BD4602B080BD0000104039
:4026C000000000006525000000000020C000002080B500AF1B4B00221A701B4B00221A701A4B00221A701A4B00221A70194B5A88194B1A80174B9A88174B5A80154B9A79AF
:40270000154B1A73134BDA79134B1A71124B0722DA81114B09221A820F4B00225A820E4B962292009A820C4B0022DA820A4B012252421A83094B1E221A8000F011F8C0464C
:40274000BD4680BD3D250020242500203B2500203A2500207C0C0020F82400201225002080B500AF0C4B1B88002B05D10B4B0E220021180006F024FF074BDB88002B05D187
:40278000074B06220021180006F01AFF02F052F8C046BD4680BDC046640D00202C2500201C250020B0B594B004AF78603E23FB1800221A802823FA183E4B100019001423C2
:4027C0001A0006F0F4FE3C4B1B78002B04D1FFF77FFF394B01221A707B68002B5FD0374B7A681A603E23FB181B88002B29D11023FB181C22BA185A601023FB182022BA1857
:402800001A601023FB1800221A812023FB181B221A802023FB181B225A802023FB1804221A711C23FB1800221A703E23FC180E23FA181023FB181100180007F017FC030048
:4028400023803E23FB181B88002B2CD13E23FC182823FD18AE231A0119491A480023029300230193052300932B0007F055FB030023803E23FB181B88002B14D1124B012208
:402880001A70124B08221A703E23FC18104B1A221621180016F072F90300238003E03E23FB1801221A803E23FB181B881800BD4610B0B0BD54E2010024120020F4240020D3
:4028C000C8000020F53200001625002017250020C0E2010080B500AF07F0E8FA024B00221A70C046BD4680BD1625002090B585B000AF0200FB1D1A70FB1D1B78022B04D996
:402900000E23FB1801221A804CE02A4B1B78062B43D1294B1B78DBB21A00042313403CD1FB1D1B78002B0DD1244B254A1A82234B5B68902252001A80204B5B68A0225200A9
:402940005A8010E0FB1D1B78012B0CD11B4B96221A821A4B5B68C822D2001A80174B5B688022D2015A80174BFA1D12781A700E23FC18124B180013F09BFC030023800E2375
:40298000FB181B88002B0DD10B4B1B78DBB204221343DAB2084B1A7004E00E23FB180422FF321A800E23FB181B881800BD4605B090BDC046162500203D250020680C002069
:4029C000FF7F00003B25002080B500AF13F008FD054B1B78DBB208221343DAB2024B1A70C046BD4680BDC0463D25002080B584B000AF78600A00FB1C1A700023BB60BB68D0
:402A0000002B20D07B689A79BB681A700F23FB1800221A7012E00F23FB181B780133BA68D3180F22BA18127879688A5C1A700F23FB181A780F23FB1801321A700F23FB18E0
:402A40001B78052BE7D9C046BD4604B080BDC04690B585B000AF0200FB1D1A70FB1D1B78022B04D90E23FB1801221A8035E0FB1D1B78002B09D11C4B06221A811A4B3022AA
:402A80005A80194B20229A800EE0FB1D1B78012B0AD1154B96221A81134B802212015A80114BE122D2009A80104BFA1D12781A700E23FC180C4B180013F080FB0300238093
:402AC0000E23FB181B88002B07D1094B1B78DBB204221343DAB2064B1A700E23FB181B881800BD4605B090BD7C0C00203A2500203D25002080B500AF13F08AFB054B1B7899
:402B0000DBB208221343DAB2024B1A70C046BD4680BDC0463D25002090B585B000AF7860294B1B78062B05D00E23FB180422FF321A8041E07B68002B04D10E23FB180122A9
:402B40001A8039E00D23FB1800221A7012E00D23FB181B780D22BA1812787968895C1B4AD3180A1C5A710D23FB181A780D23FB1801321A700D23FB181B78052BE7D97B68DB
:402B80009A79124BDA720E23FC18104B180013F0C3FA030023800E23FB181B88002B0BD1094B05221A700A4B1B88002B04D0084B1B88180010F0C4F90E23FB181B88180087
:402BC000BD4605B090BDC04616250020F82400201225002090B583B000AF104B1B78052B04D0BB1D0422FF321A8011E0BC1D13F089FA030023800A4B1B88002B01D010F010
:402C0000B9F9BB1D1B88002B02D1044B06221A70BB1D1B881800BD4603B090BD162500201225002080B582B000AF78607B681B789AB27B6801331B789BB21B029BB21343B9
:402C40009BB21800BD4602B080BDC04690B585B000AF78600F23FB1800221A707B689B890B22934232D17B68181D7A680F23FC184023002115F09AFF030023700F23FB18BC
:402C80001B78002B1AD17B685B681800FFF7CAFF03001A00022313409BB2002B07D00F4B1B687968822252001000984706E00B4B1B6879680622FF3210009847084B1B7899
:402CC000DBB201229343DAB2054B1A700F23FB181B781800BD4605B090BDC046F42400203D25002090B585B000AF3B1D1880304B1B78022B07D12F4B1B78002B09D02D4B7E
:402D00001B78052B05D00C23FB180422FF321A8047E00F23FB1800221A7014E00F23FB181A7813005B009B185B00234A9B1804220021180006F044FC0F23FB181A780F23AB
:402D4000FB1801321A700F23FB181B78032BE5D91A4A3B1D1000190002231A0006F027FC174B01221A80164B012252425A80FFF7F7FC0C23FC183B1D186814F025F9030048
:402D800023800C23FB181B88002B0AD1094B01221A700C4B1B78DBB202221343DAB2094B1A700C23FB181B881800BD4605B090BD1625002017250020640D00202825002072
:402DC000182500203D25002080B582B000AF78607B68DB880D4A934214D10D4B5B88002B08D17B689A880A4B5A807B689A78084B1A7007E0074B1B687A68911D8622520024
:402E000010009847C046BD4602B080BD052A00001C250020F424002080B582B000AF78607B689B880B4A934210D10B4B9B88002B04D17B685A88084B9A8007E0074B1B687D
:402E40007A68111D8622520010009847C046BD4602B080BD022900001C250020F424002080B582B000AF78600C4B5A887B689B899A420ED10A4B1B687968832252001000F4
:402E80009847084B1B78DBB201229343DAB2054B1A70C046BD4602B080BDC0461C250020F42400203D25002090B585B000AF78600F23FC187B681800FFF7C8FE03002370B4
:402EC000154B1B78DBB21A00012313401FD10F23FB181B78002B16D00823FB1812229A707B689A890823FB181A800823FB180F22BA181278DA700823FA187B6811001868C8
:402F000014F0D4FB03E07B68186814F047FCC046BD4605B090BDC0463D25002080B582B000AF7860C046BD4602B080BD80B582B000AF7860C046BD4602B080BD80B582B06B
:402F400000AF7860C046BD4602B080BD80B582B000AF7860C046BD4602B080BD80B588B000AF7860394B1B78022B6AD1384B1B88002B66D00823F918354B022208009B1857
:402F80000422190006F013FB7B6859687B681B891A000823FB180433180006F008FB0823FB18180001F0BAFC294B1B8801339AB20823FB181A80274B1B781900264A0B00FE
:402FC0005B005B185B00D31802331A880823FB185A800823FB181A880823FB185B889A4221D80823F9181D4B1A785B781B021A4300231204120C1B0C1B041343180013F067
:40300000FBFF031E12D0164B1B6884225200002110009847134B1B78DBB202229343DAB2104B1A7002E0012000F0BCFC0D4B1B78DBB201229343DAB20A4B1A70044B0022C6
:403040001A80C046BD4608B080BDC04617250020281200203C250020640D002028250020F42400203D25002080B588B000AF7860394B1B78022B6AD1384B1B88002B66D0C9
:403080000823F918354B022208009B180422190006F08DFA7B6859687B681B891A000823FB180433180006F082FA0823FB18180001F034FC294B1B8801339AB20823FB1829
:4030C0001A80274B1B781900264A0B005B005B185B00D31802331A880823FB185A800823FB181A880823FB185B889A4221D80823F9181D4B1A785B781B021A430023120408
:40310000120C1B0C1B041343180013F075FF031E12D0164B1B6884225200002110009847134B1B78DBB202229343DAB2104B1A7002E0012000F036FC0D4B1B78DBB20122AE
:403140009343DAB20A4B1A70044B00221A80C046BD4608B080BDC04617250020281200203C250020640D002028250020F42400203D25002080B500AF094B00225A70084B99
:4031800000221A70074B1B78052B03D1054B07221A7002E0034B08221A70C046BD4680BD282500201725002080B582B000AF78607B681B78032B3ED1264B1B78DBB21A0038
:4031C0000223134037D0244B1B78022B10D002DC012B05D024E0032B12D0042B18D01FE01E4B1B680822FF3200211000984717E01A4B1B68842252000021100098470FE00B
:40320000164B1B680A22FF3200211000984707E0124B1B6885225200002110009847C0460C4B1B78DBB202229343DAB2094B1A70094B00221A707B681B78042B05D1084BBE
:403240001B78052B01D1FFF7C5FCC046BD4602B080BDC0463D25002017250020F42400201625002080B500AFC046BD4680BDC04680B584B000AF78600E23FB1800221A7083
:403280007B689B79002B1CD10F23FB1800221A7012E00F23FB181B787A68D35C002B04D00E23FB1801221A700BE00F23FB181A780F23FB1801321A700F23FB181B78052B77
:4032C000E7D90E23FB181B781800BD4604B080BD80B582B000AF0200BB1D1A80C046BD4602B080BD80B582B000AF7860C046BD4602B080BD80B588B000AF02003960FB1DF4
:403300001A70D44B1B78DBB201221343DAB2D14B1A70FB1D1B78712B00D919E29A00CE4BD3181B689F461023FB1807221A701023FB1800225A701023FB18180008F04AFE2F
:403340001023FB1807221A701023FB1801225A701023FB18180008F03DFE0023002B01D006F086FDBD4B1B681800FFF781FF031E11D0BA4B1B68180006F086FDB74B1B683F
:4033800000211800FFF732FBB44B1B6801211800FFF72CFB36E0B24B1B781A003F231A40B04B1B789901FC231B010B401A43AE4B1B781903F8235B020B401A43AB4B1B7800
:4033C0005904FE231B040B401343BB61BB69DAB2A74B1A70BB691B0ADAB2A54B5A70BB691B0CDAB2A24B9A70A14B180006F04CFD9F4B00211800FFF7F9FA9D4B0121180079
:40340000FFF7F4FA032012F05FFD0C23FB183F221A700C23FB1800225A700C23FB18180012F070FD934B06221A709CE13B681800FFF7BAFE97E13B681A788F4B1A7092E109
:403440003B687B617B691B78002B00D082E17B695B78002B0BD1894B0222DA80874B1C229A80864B864A1A607B69844A5A60794B1B78DBB201229343DAB2764B1A7069E139
:40348000744B1B78DBB21A002023134000D063E17C4B1B78102B02D17A4B0522DA707A4B1B78784A1100180012F0C4FE03001A000A23FB181A800A23FB181B88002B06D0E9
:4034C000724B1B680A22BA18110036209847614B1B78DBB201221343DAB25E4B1A706A4B1B78684A1100180012F078FA34E13B681800FFF7F7FE36E13B681800FFF7F2FE3A
:40350000634B1B88002B01D00FF034FD594B02221A7028E1574B06221A7024E1554B1B78022B00D11AE14B4B1B78DBB21A000123134000D112E1474B1B78DBB21A00042330
:4035400013400BD04B4B03221A70424B1B78DBB204229343DAB23F4B1A70FFE03D4B1B78DBB21A00082313400BD0424B06221A70384B1B78DBB208229343DAB2354B1A701D
:40358000ECE03C4B1B78032B00D0E7E0394B06221A70E3E0374B1B78022B00D1E0E02D4B1B78DBB21A000123134000D1D8E0294B1B78DBB21A00042313400BD02D4B042241
:4035C0001A70244B1B78DBB204229343DAB2214B1A70C5E01F4B1B78DBB21A00082313400BD0244B06221A701A4B1B78DBB208229343DAB2174B1A70B2E01E4B1B78042BB7
:4036000000D0ADE01B4B06221A70A9E03B681B881800FFF75DFEA6E01B4A3B681000190002231A0005F0C3FF134B00221A70194B00221A70FFF716FE95E0FFF79BFD92E097
:403640003B685B88162B27D81E23FB183A6852881A8025E03D25002084E40100900C00207CF1FF0F7DF1FF0F7BF1FF0F78F1FF0F880C00201625002024250020401200209C
:40368000A80B00207C0D002028250020F424002012250020172500201E23FB1817221A801E23FB1819883B681A8800231204120C1B0C1B041343180014F002F853E03B68F6
:4036C0001800FFF7F1FB4EE03B681800FFF726FC49E03B68180000F065F844E03B68180000F098FA3FE000F083FE3CE03B68180000F02AFD37E03B68180000F0C9FE32E024
:403700003B681800FFF71AFC2DE03B681800FFF7A7FB3B681800FFF719FC204B1B78DBB21A00012313401DD13B68186813F012FC18E03B681800FFF711FC14E03B681800F9
:40374000FFF792FC0FE03B681800FFF7EFFB0AE0C04608E0C04606E0C04604E0C04602E0C04600E0C0460D4B1B78DBB21A00112313400ED0094B1B78DBB201229343DAB2C9
:40378000064B1A70064B1B68FA1D1278396810009847C046BD4608B080BDC0463D250020F424002080B586B000AF78600023FB60774B1B78012B00D0E6E0764B1B78DBB203
:4037C0001A000223134000D1DEE00A23FB187A6812891A800A23FB181B88062B05D00A23FB181B88142B00D0C7E00823FB187A6852891A801423FB1800221A80ABE07B68C6
:403800005A681423FB181B88D318FB601323FB1800221A70FB681A885F4B1B889A4200D27CE0FB681A885C4B5B889A4200D975E00A23FB181B88062B00D068E0FB680122F7
:403840001A751623FB1800221A8055E01623FB181A88524913005B009B185B00CB1804331A88FB689B889A423FD11623FB181A884A4913005B009B185B005B5A002B13D188
:403880001623FB181A88454913005B009B185B00FA68CB1811000422180005F088FE1323FB1801221A7020E01623FB181B88022B0FD81623FB181B885A1C384913005B00B4
:4038C0009B185B00CB1804331A88FB689B889A420BD0334B1B68FA68111D0C22FF32100098471323FB1801221A701623FB181A881623FB1801321A801623FB181B88032BC8
:403900000CD81323FB181B78002B9FD006E0FB6802221A75FB68180001F000F81323FB181B78002B0DD11B4B1B78DBB21A000123134006D01A4B1B68F9681222FF3210003D
:4039400098471423FB181422B9180A22BA18098812888A181A801423FA180823FB1812881B889A4200D24AE70A4B1B78DBB201229343DAB2074B1A7006E0094B1B68082252
:40398000FF32002110009847C046BD4606B080BD172500203D25002018250020640D0020F424002080B582B000AF0200FB1D1A70FB1D1B78002B06D0344B1B780133DAB28E
:4039C000324B1A700CE0314B00221A70304B00221A8005E02D4B1B780133DAB22B4B1A702A4B1B78032B19D8284B1B781900294A0B005B005B185B009A5A274B1B889A42F3
:403A0000E8D3224B1B781900224A0B005B005B185B009A5A204B5B889A42DBD81B4B1B78032B28D8194B1B781A0013005B009B185B00184A9918194B1A785B781B021A4337
:403A400000231204120C1B0C1B041343180013F0D3FA031E15D0124B1B68842252000021100098470F4B1B78DBB202229343DAB20C4B1A7005E00C4B03221A70002000F0A1
:403A8000ADFAC046BD4602B080BDC0463C25002028120020640D00201825002028250020F42400203D2500201725002080B582B000AF78607B68DB884F4A934200D184E03E
:403AC0004D4A93420BDC4D4A934224D04B4A934200DD68E0A822920193420AD087E0484A93423CD0474A93424BD0474A934224D07DE0464B1B88002B04D17B689A88434B9F
:403B00001A8074E0424B1B687A68911D86225200100098476BE03D4B5B88002B04D17B689A883A4B5A8062E0394B1B687A68911D862252001000984759E0344B1B89002BAB
:403B400004D17B689A88314B1A8150E0304B1B687A68911D862252001000984747E02B4B5B89002B04D17B689A88284B5A813EE0274B1B687A68911D86225200100098474D
:403B800035E0224B9B89002B04D17B689A881F4B9A812CE01E4B1B687A68911D862252001000984723E0194B9B88002B04D17B689A88164B9A801AE0154B1B687A68911DED
:403BC000862252001000984711E0104BDB88002B04D17B689A880D4BDA8007E00C4B1B687A68911D8622520010009847C046C046BD4602B080BDC046032A0000012A0000E0
:403C0000A62A0000C92A0000042A00002C250020F424002090B593B000AF7860D44B1B78DBB21A000223134000D1D1E13E23FB187A6812891A803C23FB187A6852891A8033
:403C40007B685B683B64CB4B1B78032B00D0C7E04623FB1800221A80B8E03B6C1800FEF7E1FF03001A002423FB181A803B6C02333B643B6C1A782423FB189A703B6C013349
:403C80003B643B6C1800FEF7CDFF03001A002423FB189A803B6C02333B643E23FB181B88152B33D12423FB1802229A752423FB180622396C9B181022180005F078FC3B6CBD
:403CC00010333B64AC4B1B781900AC4A0B005B005B185B00D31804331B881A00A84B9A425DD0A54B1B78012B5BD9A34B1B78032B57D8A14B1B789BB2023B9BB22422BA180B
:403D00001100180000F072FEC0464AE03E23FB181B88072B48D12423FB1801229A753B6C1800FEF77FFF03001A002423FB18DA803B6C02333B64904B1B7819008F4A0B00F3
:403D40005B005B185B00D31804331B88C0225201934203D08B4A934206D00BE02423FB181800FFF7A3FE1FE02423FB181800FFF72BF819E0804B1B78012B14D97E4B1B78AE
:403D8000032B10D87C4B1B789BB2023B9BB22422BA181100180000F029FEC04603E0C04602E0C04600E0C046714B1B78DBB201229343DAB26E4B1A704623FB184622B9184E
:403DC0003E22BA18098812888A181A804623FA183C23FB1812881B889A4200D23DE7F7E0644B1B78022B00D0F2E04623FB1800221A80E4E03B6C1800FEF714FF03001A0066
:403E00000C23FB181A803B6C02333B643B6C1800FEF708FF03001A000C23FB185A803B6C02333B643B6C1800FEF7FCFE03001A000C23FB189A803B6C02333B643E23FB18A6
:403E40001B88062B30D10C23FB1802229A7513F051F90C23FB1859884B4B1A785B781B021A4300231204120C1B0C1B041343180013F0E0F8031E07D1444B0C22BA1813CAC8
:403E800013C313CA13C388E0414B1B6884225200002110009847364B1B78DBB202229343DAB2334B1A7078E03E23FB181B88082B00D072E00C23FB1801229A753B6C1800D4
:403EC000FEF7B0FE03001A000C23FB18DA803B6C02333B644423FB1800221A8033E04423FB181A88254913005B009B185B00CB1804331A880C23FB18DB889A421CD144230B
:403F0000FB181A881D4913005B009B185B005B5A002B11D14423FB181A88184913005B009B185B000C22BA180220CB1811180422180005F03CFB0BE04423FB181A88442329
:403F4000FB1801321A804423FB181B88032BC6D9094B1B781900094A0B005B005B185B00D31804331B881A000A4B9A4214D014E03D250020172500203C250020640D002018
:403F8000FEFF0000011800002825002028120020F424002012180000C0460F4B1B78DBB201229343DAB20C4B1A704623FB184622B9183E22BA18098812888A181A80462325
:403FC000FA183C23FB1812881B889A4200D211E7C046BD4613B090BD3D25002080B582B000AF0200FB1D1A70FB1D1B78002B06D0354B1B780133DAB2334B1A7009E0324B18
:4040000000221A7005E0304B1B780133DAB22E4B1A702D4B1B78032B19D82B4B1B7819002A4A0B005B005B185B009A5A284B1B889A42E8D3244B1B781900244A0B005B009A
:404040005B185B009A5A224B5B889A42DBD81E4B1B78032B2DD81C4B1B781A001B4913005B009B185B001B4A585ACB185B881B04034319001378527812021A430023120422
:40408000120C1B0C1B041343180012F081FF031E15D0114B1B680A22FF320021100098470E4B1B78DBB202229343DAB20B4B1A7005E00B4B04221A70002000F0E9F8C04699
:4040C000BD4602B080BDC0463C250020640D00201825002028250020F42400203D2500201725002080B582B000AF3B0000221A803B0000225A80114B1B78002B09D1104B43
:404100005B8801339AB23B001A800E4B1A893B005A803B1D3A0012681A603A1D002311880904090C1B0C1B040B43528812041B041B0C13431800BD4602B080BD3C250020D0
:404140001C250020640D002080B58AB000AF78600823FB1800225A804A4B1B78042B00D08BE0494B1B78DBB21A000223134000D183E01E23FB187A6812891A807B681A7B2E
:404180000823FB181A750823FB187A6812881A800823FB181B7D012B04D12623FB1804221A8003E02623FB1812221A807B685B683B622423FB1800221A804EE03B6A18009A
:4041C000FEF730FD03001A000823FB185A803B6A02333B620823FB181B7D022B15D10823FB183A6A043311001022180005F0DFF93B6A10333B62254B1B78012B23D10823F4
:40420000FB18180000F0B8FD1DE03B6A1800FEF709FD03001A000823FB189A803B6A02333B621A4B1B78002B04D10823FB181800FEF7F2FD154B1B78012B04D10823FB18A9
:40424000180000F099FD2423FB182422B9182622BA18098812888A181A802423FA181E23FB1812881B889A42A8D3074B1B78DBB201229343DAB2044B1A70C046BD460AB0DA
:4042800080BDC046172500203D2500203C25002080B584B000AF0200FB1D1A700C23FB1800221A800C23FB1800225A804A4B1B78012B17D0FB1D1B78002B0DD0464B1B7852
:4042C0000133DAB2444B1A70434B1B78012B09D1FB1D00221A7005E03F4B00221A70FB1D01221A703C4B1B78012B0CD1FB1D1B78180000F07FFC03001A000C23FB181A60F0
:40430000FB1D01221A70344B1B78012B06D0FFF7E9FE03001A000C23FB181A600C23FB181A882E4B1B889A4215D90C23FB181A882A4B5B889A420ED80C23FB185A88274B90
:404340001B889A4207D30C23FB181A880C23FB185B889A4203D9204B1B78012BA6D91E4B1B78012B21D80C23F9181D4B1A785B781B021A4300231204120C1B0C1B041343DF
:40438000180012F0EFFD031E21D0164B1B6885225200002110009847134B1B78DBB202229343DAB2104B1A7011E0104B05221A700C4B1B68892252000021100098470A4BD6
:4043C0001B78DBB202229343DAB2074B1A70C046BD4604B080BDC0463C2500201825002028250020F42400203D2500201725002080B500AF244B1B78DBB21A0002231340D5
:404400003FD0224B1B78022B17D002DC012B05D037E0032B1DD0042B27D032E01B4B02221A700020FFF7BEFA174B1B78DBB201229343DAB2144B1A7023E00120FFF7B2FA78
:40444000114B1B78DBB201229343DAB20E4B1A7017E00120FFF7C2FD0B4B1B78DBB201229343DAB2084B1A700BE00120FFF710FF054B1B78DBB201229343DAB2024B1A70D6
:40448000C046C046BD4680BD3D2500201725002080B582B000AF7860084B1B78DBB21A000223134005D07B689B790A2B01D1FFF79FFFC046BD4602B080BDC0463D250020F8
:4044C00080B582B000AF786039607B681B689AB23B681A80C046BD4602B080BD80B582B000AF78600A00BB1C1A80BB1C1A887B681A60C046BD4602B080BDC04680B582B0AA
:4045000000AF78600A00BB1C1A80BB1C1A887B681A60C046BD4602B080BDC04680B584B000AF494B1B78DBB21B02484A1278D2B21343FB60464B1B78DBB21B02454A127884
:40454000D2B21343BB60BB68434A934207D1FB68072B04D1414BBB600423FB6009E0BA68D4231B019A4204D1FB68042B01D13B4BBB603B4BBA681A603A4BFA681A603A4B7A
:404580001B78DBB21B02394A1278D2B21343FB60FA6880239B019A4202D0FB68002B01D1334BFB60334BFA681A60334B1B78DBB21B02324A1278D2B21343FB60FB68304AC7
:4045C000934206D0FB682F4A934202D0FB68052B01D12D4BFB602D4BFA681A602C4B1B681B097B602B4B1B68AA2B29D17B68012B26D9214B1B78DBB20E2B21D1264B1B7877
:40460000DBB29BB21B0299B2244B1B78DBB29AB2BB1C0A431A80224BBA1C12881A60214B1B78DBB29BB21B0299B21F4B1B78DBB29AB23B000A431A801C4B3A0012881A605A
:40464000C046BD4604B080BDD9F0FF0FD8F0FF0FDFF0FF0FDEF0FF0F580B0000580D00006C002E4074002E40DBF0FF0FDAF0FF0F0220000078002E40DDF0FF0FDCF0FF0FE8
:404680000F0F000005050000050F000080002E40EC0F00F0E00F00F06DF2FF0F6CF2FF0F84002E406FF2FF0F6EF2FF0F94002E4080B582B000AF0200BB1D1A80BB1D1B8857
:4046C000180001F069F8C046BD4602B080BDC04680B582B000AF78607B68180001F036F8C046BD4602B080BD80B500AF00F072FFC046BD4680BDC04680B500AF00F076FF78
:40470000C046BD4680BDC04680B500AF00F06EFF044B180000F028FF002000F033FFC046BD4680BDF95B000080B500AF034B180000F006FFC046BD4680BDC046F95B0000B3
:4047400080B500AF0223FF331800BD4680BDC04680B582B000AF78602B231800BD4602B080BDC04680B582B000AF78602B231800BD4602B080BDC04680B582B000AF78601A
:404780002B231800BD4602B080BDC04680B582B000AF78602B231800BD4602B080BDC04680B582B000AF78602B231800BD4602B080BDC04680B582B000AF78602B231800AF
:4047C000BD4602B080BDC04680B582B000AF78602B231800BD4602B080BDC04680B582B000AF78602B231800BD4602B080BDC04680B500AF2B231800BD4680BD80B582B038
:4048000000AF0200FB1D1A702B231800BD4602B080BDC04680B582B000AF786039602B231800BD4602B080BD80B500AFC046BD4680BDC04680B582B000AFBB1D00221A800E
:4048400060E0BB1D1B889A1C324913005B009B185B005B5A002B50D13B1D00221A8040E0BB1D1B882C4A1B01D3180C331A683B1D1B881B01D31800221A80BB1C00221A8091
:4048800019E0BB1D1B88244A1B01D3180C331A683B1D1B881B01D318D968BB1C1A8813005B009B189B00CB1800221A80BB1C1A88BB1C01321A80BB1D1B88174A1B01D31837
:4048C0000C331A683B1D1B881B01D3189B7A9BB2BA1C12889A42D4D33B1D1A883B1D01321A80BB1D1B880C4A1B01D31809331B789BB23A1D12889A42B2D3BB1D1A88BB1DE9
:4049000001321A80BB1D1B88012B9AD9C046BD4602B080BD640D0020D80D002080B584B000AF78600D23FB1800221A700E23FB1800221A8046E00E23FB181B88284A1B0188
:40494000D31808331B78022B35D10E23FB181B88234A1B01D318043318687B6804331022190004F015FE031E25D10E23FB181B889A1C1C4913005B009B185B005B5A002B58
:4049800019D10E23FB181B889A1C164913005B009B185B007A68CB1811000422180004F006FE114B1B780133DAB20F4B1A700D23FB1801221A700E23FB181A880E23FB18DC
:4049C00001321A800E23FB181B88012B04D80D23FB181B78002BAED0C046BD4604B080BDD80D0020640D00203C25002080B584B000AF02003960BB1D1A800D23FB180022E1
:404A00001A70774B1B68002B0FD0764B1B88BA1D12889A4206D1724B1B683A681288013A92B21A806E4B00221A600E23FB1800221A80ABE00C23FB1800221A703B689B7DF7
:404A4000022B27D1BB1D1B88674A1B01D3180C331A680E23FB181B881B01D3181B7A022B18D1BB1D1B88604A1B01D3180C331A680E23FB181B881B01D31858683B6806330D
:404A80001022190004F084FD031E03D10C23FB1801221A703B689B7D012B27D1BB1D1B88514A1B01D3180C331A680E23FB181B881B01D3181B7A012B18D1BB1D1B884A4AEE
:404AC0001B01D3180C331A680E23FB181B881B01D31858683B6806330222190004F058FD031E03D10C23FB1801221A700C23FB181B78012B43D1BB1D1B883B4A1B01D318DE
:404B00000C331A680E23FB181B881B01D3181B88002B34D1BB1D1B88334A1B01D3180C331A680E23FB181B881B01D3183A6892881A80BB1D1B882C4A1B01D3180C331A6836
:404B40000E23FB181B881B01D3183A6892785A72BB1D1B88244A1B01D3180C331A680E23FB181B881B01D3189A1C1D4B1A601D4BBA1D12881A800D23FB1801221A700E2304
:404B8000FB181A880E23FB1801321A80BB1D1B88154A1B01D31809331B789BB20E22BA1812889A4205D20D23FB181B78002B00D140E70B4B1B68002B0DD0094B1A680B4BDD
:404BC0001B7818000A4903005B001B185B00CB1802331B881380C046BD4604B080BDC0464C12002050120020D80D00203C250020640D002080B584B000AF0200FB1D1A70AA
:404C00000823FB1800221A800823FB1800225A80FB1D1B78002B2ED0524B1B880133524A1288524912018A1809321278934206D24C4B1B8801339AB24A4B1A8024E04A4B7E
:404C40001B880133012B09D8474B1B8801339AB2454B1A80434B00221A8015E0444B1B780133DAB2424B1A703E4B1B8801339AB23C4B1A8008E03C4B00221A80394B00229B
:404C80001A80FB1D01221A70374B1B88374A1B01D31809331B789AB2324B1B889A421FD9314B1B88314A1B01D3180C331A682D4B1B881B01D3181B8801339AB20823FB18F4
:404CC0001A80294B1B88294A1B01D3180C331A68244B1B881B01D3185A880823FB185A800823FB181A88234B1B889A4215D90823FB181A881F4B5B889A420ED80823FB18CD
:404D00005A881C4B1B889A4207D30823FB181A880823FB185B889A420CD9134B1B88134A1B01D31809331B789AB20E4B1B889A4200D96DE70C23FB180822BA1812681A6058
:404D40000C23FA18002311880904090C1B0C1B040B43528812041B041B0C13431800BD4604B080BD4A12002048120020D80D00203C2500201825002080B584B000AF78601F
:404D80000E23FB1800221A700F23FB1800221A70B9E00D23FB1800221A707B681B7D022B37D1664B1B88664A1B01D3180C331A68644B1B881B01D318D9680F23FB181A789D
:404DC00013005B009B189B00CB181B7A022B20D15A4B1B885A4A1B01D3180C331A68594B1B881B01D318D9680F23FB181A7813005B009B189B00CB1858687B68043310229C
:404E0000190004F0C5FB031E03D10D23FB1801221A707B681B7D012B37D1484B1B88484A1B01D3180C331A68464B1B881B01D318D9680F23FB181A7813005B009B189B0072
:404E4000CB181B7A012B20D13C4B1B883C4A1B01D3180C331A683B4B1B881B01D318D9680F23FB181A7813005B009B189B00CB1858687B6804330222190004F089FB031E8E
:404E800003D10D23FB1801221A700D23FB181B78012B31D1294B1B88294A1B01D3180C331A68284B1B881B01D318D9680F23FB181A7813005B009B189B00CB181B88002B36
:404EC0001AD11E4B1B881E4A1B01D3180C331A681C4B1B881B01D318D9680F23FB181A7813005B009B189B00CB187A6852881A800E23FB1801221A700F23FB181A780F2373
:404F0000FB1801321A700D4B1B880D4A1B01D3180C331A680B4B1B881B01D3189B7A0F22BA1812789A4205D20E23FB181B78002B00D12EE7C046BD4604B080BD48120020D6
:404F4000D80D00204A12002080B500AF064B1B78002B04D100F00AF8034B01221A7000F03FF8C046BD4680BD5212002090B583B000AFFF2000F044F8B82000F05BF801205C
:404F800000F068F8012000F075F8FC1D00F02DFE03002370104A104B1B78DBB201210B43DBB21370FB1D1B78180000F022FE0B4A0A4B1B78DBB202218B43DBB21370074A15
:404FC000064B1B78DBB204218B43DBB21370C046BD4603B090BDC04690000F4070000F4080B500AF054A054B1B78DBB201210B43DBB21370C046BD4680BDC04670000F4062
:4050000080B582B000AF0200FB1D1A70FB1D1B78002B07D0054AFB1D1B781370044AFB1D1B781370C046BD4602B080BD40000F4000000F4080B582B000AF0200FB1D1A7080
:40504000034AFB1D1B781370C046BD4602B080BD10000F4080B582B000AF0200FB1D1A70034AFB1D1B781370C046BD4602B080BD20000F4080B582B000AF0200FB1D1A7008
:40508000034AFB1D1B781370C046BD4602B080BD30000F4080B582B000AF0200FB1D1A70064B064A126806491140FA1D127892040A431A60C046BD4602B080BD0802044045
:4050C000FFFFE3FF80B582B000AF0200FB1D1A70064B064A126806491140FA1D127892040A431A60C046BD4602B080BD08030440FFFFE3FF80B582B000AF0200FB1D1A707C
:40510000064B064A126806491140FA1D127852050A431A60C046BD4602B080BD08030440FFFF1FFF80B500AF064B1B78002B04D100F00AF8034B01221A7000F03FF8C046B0
:40514000BD4680BD5312002090B583B000AFFF2000F044F8B82000F05BF8012000F068F8012000F075F8FC1D00F03FFD03002370104A104B1B78DBB201210B43DBB21370BE
:40518000FB1D1B78180000F034FD0B4A0A4B1B78DBB202218B43DBB21370074A064B1B78DBB204218B43DBB21370C046BD4603B090BDC04692000F4072000F4080B500AFE6
:4051C000054A054B1B78DBB201210B43DBB21370C046BD4680BDC04672000F4080B582B000AF0200FB1D1A70FB1D1B78002B07D0054AFB1D1B781370044AFB1D1B78137003
:40520000C046BD4602B080BD42000F4002000F4080B582B000AF0200FB1D1A70034AFB1D1B781370C046BD4602B080BD12000F4080B582B000AF0200FB1D1A70034AFB1DE7
:405240001B781370C046BD4602B080BD22000F4080B582B000AF0200FB1D1A70034AFB1D1B781370C046BD4602B080BD32000F4080B582B000AF786000F050F87B681800E0
:4052800000F00AF8032000F015F800F03BF8C046BD4602B080BDC04680B582B000AF7860034B7A681A66C046BD4602B080BDC0460000002090B585B000AF0200FB1D1A7032
:4052C0000623FB600B23FC1800F08FFC030023700B4B0B4A1268C0218A431100FA1D1078FA68904002000A431A600B23FB181B78180000F07EFCC046BD4605B090BDC046F2
:4053000008E400E080B500AF034B802252001A60C046BD4680BDC04600E100E080B500AF034B802252001A60C046BD4680BDC04680E100E080B500AF034B802252001A6027
:40534000C046BD4680BDC04680E200E080B500AF00F04CF8C046BD4680BDC04680B500AF064B064A1268802109060A431A6000F019F800F01DF8C046BD4680BD0000244015
:4053800080B500AF064B1B78002B04D1FFF7DEFF034B01221A70FFF7E1FFC046BD4680BD5412002080B500AFC046BD4680BDC04680B500AF00F07CF8C046BD4680BDC046F1
:4053C00080B582B000AF7860C046064B1B681F221340082BF9D0044B7A681A60C046BD4602B080BD080224404002244080B500AF1B4B1C4A1A601C4B00221A601B4B1C4AA5
:405400001A601C4B1C4A1A601C4B07221A601C4B00221A601B4B01221A601B4B164A1A601A4B00221A601A4B04221A60194B00221A60194B00221A60184B00221A60184BF3
:4054400000221A60174B00221A60174B00221A60154B1B689AB2154B1A80C046BD4680BD000024400B000002400024404800244001000A0000032440070000800403244000
:405480001003244044002440000224400402244050002440880E2440C80E2440480F2440080F2440C80F2440880F24405612002080B500AF074B074A126807490A409021D5
:4054C00009040A431A60054B054A12881A60C046BD4680BD00010240FFFF0FFF880F24405612002080B584B000AF78600023FB6009E07A68FB68D3181B781800FFF760FF86
:40550000FB680133FB607A68FB68D3181B78002BEFD1C046BD4604B080BDC04680B582B000AF78607B681800FFF74AFF0D20FFF747FF0A20FFF744FFC046BD4602B080BDDF
:4055400080B582B000AF786000F050F87B68180000F00AF8002000F015F800F03BF8C046BD4602B080BDC04680B582B000AF7860034B7A681A67C046BD4602B080BDC0463D
:405580000000002090B585B000AF0200FB1D1A700623FB600B23FC1800F027FB030023700B4B0B4A1268C0218A431100FA1D1078FA68904002000A431A600B23FB181B783E
:4055C000180000F016FBC046BD4605B090BDC0460CE400E080B500AF034B802252011A60C046BD4680BDC04600E100E080B500AF034B802252011A60C046BD4680BDC04616
:4056000080E100E090B58BB000AF78602723FC1800F0EBFA03002370194B1A680C23FB181A60184B1A680C23FB185A607B68033B154AD35C1A000C23FB189A60134B1A68F1
:405640000C23FB18DA601C23FB18114A1A600C23FA181C23FB185A600E4B1C22BA181A600D4B0E4A1A600B4B1B682723FB181B78180000F0BEFAC046BD460BB090BDC0468D
:4056800008010B4000010B40B8E6010030001040B6EA000008001040040010401700008080B584B000AF78600023FB60154B154A126801210A431A60134B144A1A60144B23
:4056C000134A1268802109020A431A607B68002B12D01023FB600CE0012000F05DF800F019F8031E02D00023FB6005E07B68013B7B607B68002BEFD1FB681800BD4604B03F
:4057000080BDC04660F02E4078002E400220000010002E4080B582B000AF054B1B68012213407B607B681800BD4602B080BDC0460C002E4080B582B000AF0200FB1D1A7081
:4057400001BEC046BD4602B080BDC04680B582B000AF786009E00D4B1B68180000F03CFA7B680B4A944663447B607A6880231B029A42F0D8074B1B687A685343180000F04D
:405780002BFAC046BD4602B080BDC046040E00200080FFFFFC0D002080B582B000AF0200BB1D1A80BB1D1B88044A12785343180000F012FAC046BD4602B080BD000E002040
:4057C00080B500AF0F4B0F4A126801218A431A600C4B0C4A126802218A431A600A4B0A4A126830218A4310210A431A60064B064A126807218A4301210A431A60C046BD4663
:4058000080BDC04600F02E4000FF2E4080B500AF0F4B0F4A126802218A431A600D4B0D4A126807218A4302210A431A60094B094A126830218A4320210A431A60044B044AF3
:40584000126801210A431A60C046BD4680BDC04600F02E4000FF2E4080B500AFFFF7B0FF044B044A1268802109060A431A60C046BD4680BD00F02E4080B584B000AF786003
:405880000C4B1B6801221340FB607B68002B02D0012B03D005E0FFF793FF06E0FFF7B6FF03E00020FFF746FFC046FB681800BD4604B080BD00F02E4090B583B000AFFC1D0F
:4058C00000F093F903002370074B074A1268C02109020A431A60FB1D1B78180000F089F9C046BD4603B090BD00010B4080B500AF054B1A68C0231B02134001D0012300E05E
:4059000000231800BD4680BD00010B4090B583B000AFFC1D00F069F9030023700D4B0D4A12680D490A408021C9010A431A60094B084A126808490A40802109020A431A604F
:40594000FB1D1B78180000F054F9C046BD4603B090BDC04600010B40FF3FFFFF80B582B000AF78607B68022B02D90020FFF7E2FE064B1A687B68DB000133DA4013000122AC
:4059800013401800BD4602B080BDC04610020B4080B584B000AF786039607B68022B02D90020FFF7C7FE7B681800FFF7D7FF031E16D10D4B1B687A68D200032191400A007B
:4059C000D2431340FB603B6803221A407B68DB009A401300FA681343FB60034BFA681A60C046BD4604B080BD0C020B4080B584B000AF786039607B68002B02D07B68012B0F
:405A000001D1012300E00023002B02D10020FFF791FE7B681800FFF7A1FF031E16D10D4B1B687A68D2000232012191400A00D2431340FB607B68DB0002333A689A4013002C
:405A4000FA681343FB60034BFA681A60C046BD4604B080BD0C020B4080B582B000AF7860144B144A11687A680A431A607B680122134005D0C0460020FFF770FF031EFAD025
:405A80007A6880235B00134005D0C0460120FFF765FF031EFAD07A6880235B02134005D0C0460220FFF75AFF031EFAD0C046BD4602B080BD10020B4080B584B000AF7860C1
:405AC00039607B68002B02D07B68012B01D1012300E00023002B02D10020FFF72BFE174B1B689B0F9B0701D1C92300E05D231800FFF752FE124B1B68FB607B681B01114AA6
:405B00009A401300DA43FB681340FB600C4B7A68120139689140FA680A431A60074B1B689B0F9B0701D1432300E01F231800FFF733FEC046BD4604B080BDC0460C020B4050
:405B400008020B40FFFF000080B500AF034B1B68034A13401800BD4680BDC04610020B400404040090B585B000AF78600B23FC1800F03BF803002370FFF7B8FE031E04D019
:405B80000123FB60FFF7C2FE01E00023FB607B680D4A13407B600D4B0C4A12680C4911407A680A431A60094B1B68FB68012B01D1FFF782FE0B23FB181B78180000F019F8D7
:405BC000C046BD4605B090BD0404040010020B40FBFBFBFF000000000230800803D00138FDD1C046C046C0467047EFF3108072B6704780F31088704780B500AF0AF0E4F817
:405C0000C046BD4680BDC046F0B55F464D4656464446F0B491B01F0004000D00160000F0AFF9CF4B029003919B461B785BB2994601334FD032003B003000390003F0E6FAB6
:405C40000090002846D122002B002000290003F0DDFA00228246002834D100232000290001F082FA00283AD0002200233000390001F07AFA0590002800D174E006AB98464F
:405C8000012342460693B74B5360434652469C60DD601A621E615F614246002300249361D4614B46002B00D194E00023AE4C009301940098019911B03CBC90469946A2460F
:405CC000AB46F0BD00233000390001F04DFA002800D0EBE0029B039C00930194E9E70298039900F07DFF8146002800D186E0029803990022002301F037FA0028EAD02000E4
:405D0000290000F06DFF029A039B009201930028CFD03000390000F063FF029A039B009201930028C5D006AB98460423424606938C4B9460D5605360002300241362002376
:405D40009361D4615B461B78166157615BB2022B04D0404600F04EFF002840D103F0ECFB222303603BE03000390000F039FF029A039B0092019300289BD0002200233000F7
:405D8000390001F0F7F9002800D192E706AB9846012342460693734B53604346059A9C60DD601A621E615F615B461B785BB2002B0BD0002042466D499061D161022B09D127
:405DC00003F0BAFB2123036009E04246002300249361D461404600F00DFF0028F0D043461B6A002B04D003F0A7FB43461B6A03604346DC699B69009301945AE72000290072
:405E000000F0EEFE002800D171E73000390000F0E7FE002800D16AE7029803990B00020003F0F4F906AB984600287AD10323424606934C4B106253605B461B789460D56028
:405E40005BB2166157619946002B48D1E0224146474B12068A61CB61200000220023290001F088F9002800D173E70022414B3000390002F0FDFB04000D0000F0C3FE020061
:405E80000B002000290001F06FF9002805D1E022394B120641468A61CB615B461B785BB299464B46022B00D053E757E706AB98460123424606932B4B536043469C60DD6016
:405EC0000024009A284D1A621E615F619C61DD614B4600940195022B00D07BE7E9E600224146264B20008A61CB6100220023290001F040F90028D4D000221E4B30003900E7
:405F000002F0B6FB04000D0000F07CFE02000B002000290001F028F90028BED10022134BB8E70123424606930E4B536043464A469C60DD601A621E615F6100245B461C576F
:405F4000002C00D141E7002300221900100001F06BFF43469861D961022C00D130E739E779110020E8E601000000F03F0000F0FFFFFFEF470000E03FFFFFEFC70000F07F34
:405F8000F0B556464D4644465F46F0B41C001300670091B07F080093019406000D0080468946A2463B4332D06E4B6C0064089C4229DC26D09F4226DC6A4B9F4200D189E087
:405FC00000239B464B46002B00DA87E0002A2FD1644B9F4200D19FE0634B9F425DD08023DB059A4501D100F0C1FB604B9A451FD14B46002B1CDB3000290000F0F7FC06008B
:4060000007E000280DD05A4BE01830430BD100265549300011B03CBC90469946A246AB46F0BDA742C8DD534800F0E6FD0600F0E73000290000F0D0FD4346002B1DD0EB0F16
:40604000013B98465B464246134379D04A4B9F4200DC9FE0494B9F4201DC00F0CEFB484B9C4279DD5346002B79DD464A464B1000190002F0FDFA0600CBE7002C04D03A4A12
:40608000AB009B089342DAD15346002B00DAADE34B46002B0DDB0600BBE753462900002BB7DA32002B0000202F4901F0BDFE0600AFE72F4B9C465B4664441C4301D100F017
:4060C0002BFC5B460600012BA3D180231B069C4661449EE7002A00D172E794E72B4B9F422BDC274B9F4200DC70E729493B158C466344142B01DC00F0F2FB3421CB1A0099A8
:40610000D94008009840824200D05FE70123194001335B1A9B4659E7154BE018064300D175E7174B9C4200DC51E35346002B16DB009B019C1E0021006BE702239B4645E777
:4061400032002B003000290002F00CFD02000B0001F06AFE06005CE75346002B85DB0026002156E70000F07F0000F03F0000E03F000010C0ECE601000000E0410000F04363
:40618000FFFFEF3F9C7500883CE4377EFFFF3F4301FCFFFFE84B00229C4206DC0022E74B02F066FA35220C005242E54D2315AC46634499462403E34DE34B240B9144254345
:4061C0009C4209DDE14B9C4200DCA9E301239C46DF4BE1449C466544002300240022089309940C930D940024D64B06920793069A079B29000A900B9102F0B4FC069A079BAC
:4062000006000F000A980B9901F0E2FA02000B000020CC4901F008FE0A00010013000E910F9202003900300002F022FA0A00010080200491059213000022802100038446AC
:4062400002920393002289056D100D4365442B190298039914001D0002F00AFA02000B003000390002F07EFC069A079B06000F002000290002F076FC02000B000A980B99F4
:4062800002F070FC029A039B02F0F2F902000B003000390002F066FC0E9A0F9B02F0E8F9049D059E069007912A0033002800310002F0DEF906000F00A64AA74B02F0D8F9CF
:4062C000A64AA74B01F084FA32003B0002F0D0F9A44AA54B01F07CFA32003B0002F0C8F9A24AA34B01F074FA32003B0002F0C0F9A04AA14B01F06CFA32003B0002F0B8F932
:406300009E4A9F4B01F064FA320004000D003B003000390002F0ACF902000B002000290002F0A6F9029E039F04000D000498059932003B0001F04CFA069A079B02F098F9E1
:4063400022002B0001F044FA32000A900B913B00300039000296039702F08AF90022894B04000D0001F034FA0A9A0B9B01F030FA00260F0032000B000298039902F078F958
:406380000022029003917F4B3000390002F0EAFB22002B0002F0E6FB02000B000A980B9902F0E0FB049A059B02F062F9320004000D00069807993B0002F05AF902000B00B2
:4063C0002000290001F004FA04000D0002000B000298039901F0FCF90026E0226A4B120630000F0002F044F9029A039B049005913000390002F0B6FB02000B002000290002
:4064000002F0B0FB614A604B02F032F9604A04000D00604B3000390002F02AF902000B002000290001F0D4F90C9A0D9B01F0D0F9060048460F0002F03FFF04000D000498CC
:40644000059932003B0001F0C3F9089A099B01F0BFF922002B0001F0BBF9002022002B000290039102F07EFB089A099B02F07AFB049A059B02F076FB02000B0030003900C1
:4064800002F070FB049005915B464246013B134300D197E100232B4C069307940098019900260B0032000F0002F05CFB029A039B02F0DEF8009A019B04000D000498059913
:4064C00002F0D6F802000B002000290001F080F904000D00029803993B0032000494059502F0C6F8009001910B0002002900200001F06EF9284B81460F008A46994200DCE6
:406500003CE1264BCB18034300D0DBE104980599234A244B01F05CF9009A019B04000D004846390002F01EFB02000B002000290000F034FE3E0037E0FFFF0F000000404346
:4065400001FCFFFF0000F03F8E98030079B60B000000F0FFEF4E454A287ECA3F65DBC9934A86CD3F01411DA96074D13F4D268F515555D53FFFAB6FDBB66DDB3F03333333E2
:406580003333E33F0000084009C7EE3FFD033ADCF5015B14E02F3EBEFFFF8F40000070BFFE822B654715973C002800D08AE18022E74B52039C461300361566443341E54935
:4065C000DB195E001C001B038C461B0B13431422760DE14F66443741961B334198465346BC4300202100002B00DAA9E102000B000098019902F0B6FA0B000090019102003B
:406600000498059901F0E4F843461B05994600200022D24B06000F0002F02AF8009A019B029003913000390002F09CFA02000B000498059902F096FAC94ACA4B02F018F803
:40664000C94A04000D00C94B3000390002F010F802000B002000290001F0BAF804000D0002000B000298039901F0B2F8029A039B06000F0002F076FA02000B002000290090
:4066800002F070FA3200009001913B003000390001F0EEFF04000D00B54AB64B01F0E8FFB54AB64B02F05EFA22002B0001F0E0FFB34AB44B01F08CF822002B0001F0D8FFD2
:4066C000B14AB24B02F04EFA22002B0001F0D0FFAF4AB04B01F07CF822002B0001F0C8FF02000B003000390002F03CFA04000D0002000B003000390001F0BAFF80230290F9
:4067000003910022DB052000290002F02BFA02000B000298039901F087FB009A019B04000D003000390001F0A3FF009A019B01F04FF802000B002000290002F013FA320075
:406740003B0002F00FFA02000B000020924902F009FA4B465B181A15002A00DCF4E01900069A079B01F084FF060052E4320030002B00290001F07CFF06004AE4874B4E0058
:4067800076089E4200DCBFE0854BCB1803430CD1009A019B02F0E6F902000B000498059900F0F2FC002800D101E7069807997D4A7D4B01F05DFF7B4A7B4B01F059FF060029
:4067C000FFF727FC0023794C0693079466E65346002B00DBC3E4009B019C802212061E009446230063441900FFF713FC02000B000020694901F018FB4AE46D4B9C4200DC7D
:40680000AAE4654B9C4201DDFFF72CFC0022624B02F0A8F9C022674BD20504000D0001F027FF654A06000F00644B2000290001F01FFF002202900391614B2000290001F052
:4068400017FF02000B005F485F4902F08BF922002B0001F00DFF02000B0000205B4902F081F92200049005912B002000290001F0FFFE02000B000498059901F0F9FE544A2E
:406880004C4B01F0F5FE02000B000298039902F069F902000B0004000D003000390000F097FF002210003B0032000290039102F059F902000B002000290002F053F9049088
:4068C0000591E1E5434A444B0698079901F0D0FE404A414B01F0CCFE0600FFF79AFB002A01D0FFF7A5FB1432D31A3A001A41110099408F4201D0FFF76FFB012313400222E1
:40690000D31A9B46FFF768FB304B9E4200DD4EE60023994698467AE602000B00FFF714FC80232E4CDB05089309942D4B2D4C00220C930D9480242C4BE4020692079356E47C
:4069400043465B42984651E6424600F0FDF907E702FCFFFF01FCFFFFFFFF0F00432EE63FEF39FAFE422EE63F396CA80C615C20BED0A4BE726937663EF16BD2C541BDBB3E6B
:406980002CDE25AF6A56113F93BDBE166CC1663F3E5555555555C53F0000F03FFFCB904000346F3F59F3F8C21F6EA5010000F0BFFEFFEF3F4715F73F44DF5DF80BAE543EF5
:4069C0000000D03F555555555555D53F0000E03FFE822B659C7500883CE4377E03B8E23F06D0CF43EBFD4C3E0000F83FF0B556464D4644465F46754BF0B40A000D001900D5
:406A000083B0060004002940994200D1BAE0002D00DC94E02D1500D1A3E06D4B12039C468023120B5B0365441A43EB0700D581E06B109846E30F9B189B18802216210026AC
:406A4000002764009203B818984202DC87181B1AB618E00F5B0001391B18640052080029F1D1002201929446802212062020914609E09F4241D0E10FC9180138CB186400E0
:406A8000520800281ED0614651189F42F1DA8D18AC46CD0FED07BA464D4539D0DB1B8C42BF417F42DB1B641A019901388B46934459460191E10FC9185746CB1864005208F4
:406AC0000028E0D123432BD1019B5B08414972108C466244F10702D5802109060B43414609058D181E002F003000390003B03CBC90469946A246AB46F0BDA1420ED88D18C7
:406B0000AC46CD0FED074D4548D09A460023CAE76546002DC2DB7D1CAA46BFE73B00AAE7019B01333ED0019A01239446134063445B08CBE7E30F52009A18640078E76B001B
:406B40005B0803432F00002BCED00025002A31D1E20A153D6405002AFAD080235B031A4223D180200023400300E00B005200591C0242FAD02020401AED1A2300C3408C40DE
:406B80001A434AE702002B00290001F071FD32002B0000F01DFE06000F00A5E76546002DB9DAB2E70136002390E7012320205B420021E1E73B000200390001F0D3FF02008F
:406BC0000B0001F031F906000F008DE70000F07F01FCFFFF0000E03F49004B0819007047034B48009C4640086044C00F7047C0460000108000207047002001497047C04673
:406C00000000F87FF0B5474680B4CB0F98464A4C4B005B0D1E1982B007000A00132E35DC002E57DB454B040033411F000F4007430D00002F24D05B081C000C402043002705
:406C4000002807D0132E00D172E08022D202324199430A434346DE00394B11009E1934687568380022002B0000F0B2FD009001910098019922002B0001F074FF04000D0039
:406C80002000290002B004BC9046F0BD332E0CDD80230400DB000D009E42F1D102000B0000F096FD04000D00EAE7264C0D00A446012463446442DC40A446614604000142DA
:406CC000DED049080142C5D08027FF051F4188430743BFE74B005B08034304000D00002BCED00B031B0B03435A42134380221B0B120313404A0C5204134319004346104A8F
:406D0000DB00D3181C685D6822002B0000F060FD009001910098019922002B0001F022FF42464B005B08D607334304001D00A7E780273F0689E7C04601FCFFFFFFFF0F0055
:406D4000F0E60100EDFBFFFF4B0070B55B0D14000A00002B1AD14B005B08034315D00022224B01F085FC224B0A009C4222DB4B005B0D363B1F4DE318AB4220DC002B0DDD95
:406D80001D4C1B0522401A43110070BD1B4DAB42F0D102000B0000F01BFDF6E71D00353518DA174B02009C420ADC0B001548164900F032F8134A144B01F05AFCE5E70200F2
:406DC0000B001248124900F027F8104A104B01F04FFCDAE7084C363322401B051343190000220C4B01F044FCCFE7C04600005043B03CFFFFFE070000FFFF0F80FF070000E9
:406E000050C3000059F3F8C21F6EA5019C7500883CE4377E0000903C30B54A00DB0FDB0752081A43110030BD90B583B000AFFC1DFEF7DBFE03002370074B074A1268042136
:406E40008A431A6030BFFB1D1B781800FEF7D1FEC046BD4603B090BD10ED00E0002243088B4274D303098B425FD3030A8B4244D3030B8B4228D3030C8B420DD3FF22090234
:406E800012BA030C8B4202D31212090265D0030B8B4219D300E0090AC30B8B4201D3CB03C01A5241830B8B4201D38B03C01A5241430B8B4201D34B03C01A5241030B8B42DE
:406EC00001D30B03C01A5241C30A8B4201D3CB02C01A5241830A8B4201D38B02C01A5241430A8B4201D34B02C01A5241030A8B4201D30B02C01A5241CDD2C3098B4201D397
:406F0000CB01C01A524183098B4201D38B01C01A524143098B4201D34B01C01A524103098B4201D30B01C01A5241C3088B4201D3CB00C01A524183088B4201D38B00C01AF1
:406F4000524143088B4201D34B00C01A5241411A00D20146524110467047FFE701B5002000F0F0F802BDC0460029F7D076E7704703460B437FD4002243088B4274D30309F2
:406F80008B425FD3030A8B4244D3030B8B4228D3030C8B420DD3FF22090212BA030C8B4202D31212090265D0030B8B4219D300E0090AC30B8B4201D3CB03C01A5241830B50
:406FC0008B4201D38B03C01A5241430B8B4201D34B03C01A5241030B8B4201D30B03C01A5241C30A8B4201D3CB02C01A5241830A8B4201D38B02C01A5241430A8B4201D363
:407000004B02C01A5241030A8B4201D30B02C01A5241CDD2C3098B4201D3CB01C01A524183098B4201D38B01C01A524143098B4201D34B01C01A524103098B4201D30B01A4
:40704000C01A5241C3088B4201D3CB00C01A524183088B4201D38B00C01A524143088B4201D34B00C01A5241411A00D201465241104670475DE0CA0F00D04942031000D3CC
:407080004042534000229C4603098B422DD3030A8B4212D3FC22890112BA030A8B420CD3890192118B4208D3890192118B4204D389013AD0921100E08909C3098B4201D336
:4070C000CB01C01A524183098B4201D38B01C01A524143098B4201D34B01C01A524103098B4201D30B01C01A5241C3088B4201D3CB00C01A524183088B4201D38B00C01A30
:407100005241D9D243088B4201D34B00C01A5241411A00D20146634652415B10104601D34042002B00D54942704763465B1000D3404201B5002000F005F802BD0029F8D088
:4071400016E770477047C0468446101C62468C46191C634600E0C0461FB501F01FFA002801D40021C8421FBD10B501F073F94042013010BD10B501F011FA002801DB002001
:4071800010BD012010BDC04610B501F007FA002801DD002010BD012010BDC04610B501F099F9002801DC002010BD012010BDC04610B501F08FF9002801DA002010BD0120F3
:4071C00010BDC0468446081C6146FFE71FB500F0D5F8002801D40021C8421FBD10B500F061F84042013010BD10B500F0C7F8002801DB002010BD012010BDC04610B500F010
:40720000BDF8002801DD002010BD012010BDC04610B500F06FF8002801DC002010BD012010BDC04610B500F065F8002801DA002010BD012010BDC0469E2110B5C905041C48
