:400000000040002011000000A1270000A127000080B500AF02F0F6FB80B500AF2F4B12221A6005F0A3FB2E4B180005F05DFD012005F0ACFB102005F06FFA2A4B2A4A1A60CB
:400040002A4B8022D2051A60294B294A126802210A431A60274B284A1A60284B00221A60274B274A126808218A431A60FA23DB00180005F09FFA234B180005F017FB224BFB
:40008000224A1A60224B234A1A60234B9F2212021A601F4B214A1A60214B8822D2011A601B4B204A1A60204B802212061A601F4B00221A601E4B42221A601E4B41221A601B
:4000C0001D4B40221A60094B8022D2051A60034B00221A60C046BD4680BDC04630001040001BB70004010B40060000800C020B4078002E407C002E402D3E000064F02E40C1
:400100006CF02E40DC05000008030140007F3E000000014042FF00800403014041FF00800003014040FF008008010B4000010B4038010140300101400401014080B582B0C5
:4001400000AF72B6524B00221A60524B01221A70FB1D00221A7022E0FB1D1A7813005B009B185B004C4A9B183B603B681A78597809020A43997809040A43DB781B061343C2
:4001800018003B681A795B791B0213439BB2190002F0A0FAFB1D1A78FB1D01321A70FB1D1B78012BD8D93D4A3D4B1100180002F0A1FA3C4BA02212011A803B4B01221A70C3
:4001C0003A4BEE2212061A60394B992212041A60384BC02292041A60374BCC2292051A60364B992212041A60354B992212041A60344B354A1A60354B802212061A60344BD1
:40020000802252051A60334B992212041A60324BD02252051A60314B02221A60304B02221A60304A2F4B1B78DBB23C218B43DBB214210B43DBB213702B4A2B4B1B78DBB2A5
:4002400016210B43DBB21370284BD82212041A60274B20221A60274BC42292021A60264B20221A60254BC0221A60254B8822D2031A60244BC0221A60234B902292031A60FC
:40028000FFF7CAFE02F078FAC046BD4602B080BD6CF02E401C700F406CCF01009CCF010078CF010000600F4002600F400000024000010240000202400003024000500F4082
:4002C00010500F4020500F400400990024500F4028500F4030500F4038500F402000104000800F4001700F4000700F40080004400001044008010440180104400002044084
:4003000008020440000304400803044010B5064C2378002B07D1054B002B02D0044800E000BF0123237010BDE01100200000000094C60100084B10B5002B03D00749084846
:4003400000E000BF07480368002B00D110BD064B002BFBD09847F9E700000000E411002094C60100E80B00200000000080B582B000AF00F05BF808F09BFC01F00FFB01F0FE
:4003800057FC01F0A9FC1F4B1B78002B0BD11E4B1B889BB21A001D4B1B889BB2D21A96239B009A4205DD1A4B01221A70154B00221A7001F013FEBB1D164A1900100004F012
:4003C0009DF9154B1B78022BD5D1BB1D1A888023DB0013409BB2002BCDD1104B180005F00BF8202005F024F802F092FB0C4B180002F0F6FA0B4B01221A700B4B01221A70AE
:40040000B9E7C046EC0B002014240020FC110020181200201C112E409A2C002098C60100C9080000FE110020040C002080B586B000AF62B64C4B180002F0D2FA4B4B1800D3
:4004400000F002FA4A4B9B684A4A1000190020231A0007F0C4FF464B9B68DB7F1C2B1DD8434B9B68DB7F1A00424B02219954404B9B68DB7F0133404A11783E4AD1543C4BF5
:400480009B68DB7F02333D4A11783A4AD154384B9B68DB7F0333DAB2364BDA77344B354A9A60374B7B617B695A1C7A611A781023FB181A707B691A781023FB185A701023D7
:4004C000FB181B78FF2B04D11023FB185B78FF2B39D01023FB181B78002B04D11023FB185B78002B2FD01023FB185B781B021AB21023FB181B781BB213431BB29AB2214B6C
:400500001A801C4B54225A711A4B69229A71194B7422DA71174B61221A72164B6E225A72134B144A9A603B1D15221A813B1D02229A803B1D1022BA181A60134A381D0023EA
:40054000002117F04BFA04F0A5FE202004F070FF0E4B180004F050FF202004F069FFC046BD4606B080BDC046C9080000CC0C0000640C002018240020131200201212002064
:4005800080F2FF0F16120020AC2C0020CCC6010080B582B000AF0200FB1D1A70FB1D1B78062B2CD89A001C4BD3181B689F461B4B180004F021FF27E0194B180004F01CFFD6
:4005C00022E0184B180004F017FF1DE0164B180004F012FF18E0154B180004F00DFF13E0134B1B889AB2134B1A80134B180004F003FF09E0114B180004F0FEFE04E0104B59
:40060000180004F0F9FEC046202004F011FFC046BD4602B080BDC04648C8010020C7010044C701006CC7010090C70100B8C70100142400201E120020DCC7010004C8010045
:400640002CC8010090B585B000AF0200FB1D1A70FB1D1B780A21180005F0FEFA0B00DAB20C23FB181A70FC1DFB1D1B780A21180005F06CFA03002370FB1D1B780A21180094
:4006800005F0EAFA0B00DAB20C23FB185A70FC1DFB1D1B780A21180005F058FA03002370FB1D1B780A21180005F0D6FA0B00DAB20C23FB189A700C23FB189B78002B1BD1D8
:4006C0000C23FB185B78002B07D10C23FB181B783033180004F0FEFD23E00C23FB185B783033180004F0F6FD0C23FB181B783033180004F0EFFD14E00C23FB189B7830334D
:40070000180004F0E7FD0C23FB185B783033180004F0E0FD0C23FB181B783033180004F0D9FDC046BD4605B090BDC04680B584B000AF0200FB1D1A70FB1D1B780F22134052
:40074000DAB20C23FB181A70FB1DFA1D127812091A70FB1D1B780F221340DAB20C23FB185A700C23FB185B78092B07D80C23FB185B783033180004F0ADFD06E00C23FB187E
:400780005B783733180004F0A5FD0C23FB181B78092B07D80C23FB181B783033180004F099FD06E00C23FB181B783733180004F091FDC046BD4604B080BDC04690B587B051
:4007C00000AF78601D4B7B610021786805F084FB031E09D07B695A1C7A612D221A707B688022120653407B60786805F09DFB03003B61386906F012FA031C191C786806F0CD
:400800001DF8031C7B60786807F0B0FC00220C4B06F066FE03000C001800210005F09CFB0300FB60FB683A690649786907F0E8FD024B1800BD4607B090BDC046001200206B
:4008400080842E4164C8010080B582B000AF786004F0E6FF0121002005F024F80121002005F04EF87B681900002005F0AFF85A2004F01CFF012005F079F804F0A7FF044B90
:40088000180004F07FFCC046BD4602B080BDC0469508000080B500AF04F0D6FC05F0DEF802000423134009D0042005F0E5F8054B1B889BB201339AB2024B1A80C046BD46A6
:4008C00080BDC0461424002090B5F1B002AFF864B964FB6C412B00D1BFE016D8262B00D171E006D8012B2AD0202B00D109E301F028F8282B01D100F0CFFF01D200F05FFE89
:400900002B2B00D196E001F01CF84C2B00D1B6E007D8422B00D1A9E04A2B00D184E001F010F84E2B00D1AAE201D200F07DFF89225200934201D100F0D1FE01F002F8BF4B81
:40094000180004F059FD202004F072FDBC4B1B78002B16D1D1235B00FC18002002F0E4F803002380B74B1B889AB2B74B1A80D1235B00FB181B88002B20D1B44B01221A7075
:400980001CE0D1235B00FC18002002F07FF903002380D1235B00FB181B88002B0ED1AC4B180004F029FD202004F042FDA54B1B889AB2A84B1A80A54B02221A70A04B0022E6
:4009C0001A7000F0BEFFA44B180004F015FD202004F02EFDA14B1B78062B01D000F0A4FF9F4B1B78002B01D000F09EFFD1235B00FC18002002F098F803002380D1235B0040
:400A0000FB181B88002B01D000F08EFF954B180004F0F2FC914B1B781800FFF7B9FD202004F006FD00F080FF8F4B180004F0E4FC00F087FF8D4B180004F0DEFCBB6C1B7820
:400A40001800FFF773FE854B1B781800FFF7A0FD202004F0EDFC00F074FF854B180004F0CBFC202004F0E4FC00F06BFF814B180004F0C2FC202004F0DBFC00F062FFC02383
:400A80005B00FB18BA6C13CA13C312681A607A4B180004F0B1FCC0235B00FB189B89DBB21800FFF743FE202004F0C2FCC0235B00FB189B89152B6DD1C0235B00FB181B8952
:400AC000022B52D16D4B180004F096FCC0235B00FB185B6801331B781B021AB2C0235B00FB185B681B781BB213431BB29AB2644B1A80634B1B88002B04D0614B1B88614A16
:400B0000934211D1C0235B00FB189B8904221900122001F039F95C4B180004F06DFC584B00221A8000F00DFF554B1B88180001F0FBF9564AC0235B00FB18181D00230021D4
:400B400016F04CFF202004F073FC514B54225A714F4B69229A714E4B7422DA714C4B61221A724B4B6E225A7214E0C0235B00FB189B890D221900122001F006F9404B0022E2
:400B80001A80444B180004F037FC202004F050FC00F0D7FEC0235B00FB189B890E2B00D05DE1374B1B88002B00D14DE1C0235B00FB181B89082B00D03BE1374B180004F0DB
:400BC0001BFC202004F034FCC0235B00FB185B6803331B781B021AB2C0235B00FB185B6802331B781BB213431BB29AB22B4B1A80C0235B00FB185B681A78294B1A70C02305
:400C00005B00FB185B685A78254B5A70C0235B00FB185B689A78224B9A70C0235B00FB185B68DA781E4BDA701E4B180004F0E4FB0023DA225200BA1813604BE070C8010053
:400C4000FE110020142400201C120020040C002084C8010026120020A4C801009A2C002014120020D0C80100E8C8010008C901002CC9010034C9010054C9010070C90100C9
:400C800016120020FFFF000088C90100AC2C002018240020A0C90100B4C901002812002040240020D4C90100C0235B00FB185A68DA235B00FB181B68D3181B781800FFF757
:400CC00035FDDA235B00FB181B680133DA225200BA181360C0235B00FB181B891A00DA235B00FB181B689A42DEDC202004F0A0FBE94B1A78E84B5B781900100001F0EAF9E2
:400D00000300180007F0F0F90022E44B05F0C4FF03000C001800210007F07CFA031C181CFFF74CFD0300CE225200BA181360DC4B180004F061FBCE235B00FB181B68180055
:400D400004F05AFB202004F073FBC0235B00FB185B681B78012B20D1D24B1A88D24B1B8853409BB21A00FF231B02134028D1CF4AC0235B00FB18181D0023002116F02EFEAB
:400D8000CB4B180004F038FBCA4B1B781800FFF7FFFB202004F04CFB12E0C24B1A88C24B1B889A4203D0BF4B1B88002B08D1BF4AC0235B00FB18181D0023002116F00EFE1D
:400DC000BD4B1B780133DAB2BB4B1A70BB4B180004F012FBB84B1B781800FFF733FC202004F026FBCE235B00FB181B681B78180007F07AF90022002305F048F8031E0DD052
:400E0000AD4B1978A44B1A78A34B5C78AC4B1B889BB2AC480093230001F0C6F9AA4B01221A70AA4B180004F0E7FA202004F000FB15E0C0235B00FB189B890D22190012200E
:400E400000F0A2FF00F07DFDC0235B00FB189B8911221900122000F097FF00F072FD934B1A785B781B021A4300231204120C1B0C1B041343180015F0A9FB00F062FDA82314
:400E80005B00FB18BA6C13CA13C312681A60864B1B88002B01D100F049FDA8235B00FB189B89112B01D000F041FDA8235B00FB181B89012B01D000F039FDA8235B00FB187F
:400EC0005B681A787C4B1A707B4B1B78013BDAB2794B1A70754AA8235B00FB18181D0023002116F07BFD7A4B180004F085FA724B1B781800FFF7A6FB202004F099FA00F0E8
:400F000015FD6C4B1B78022B01D100F011FDB0235B00FB18BA6C13CA13C303CA03C3B0235B00FB181B78002B00D0B3E2B0235B00FB181A7A674BDB7F9A4200D0D8E0B0232F
:400F40005B00FB18DA68B0235B00FB181B7A033BD3181B78022B00D09CE2B0235B00FB185B689A225200BA181000190006231A0007F035FA5023FA189A235B00FB1811007D
:400F8000180001F051FB031E65D0534B180004F033FAB0235B00FB18DA68B0235B00FB181B7A013BD3181B781800FFF74BFB202004F03EFAB0235B00FB18DA68B0235B002B
:400FC000FB181B7A013BD3181A78444B1B789A4228D2B0235B00FB18DA68B0235B00FB181B7A013BD3181B78002B1BD03C4B01221A70B0235B00FB185B683A4A100019008A
:4010000006231A0007F0EBF9B0235B00FB185A78354B1A70354B180004F0EEF9202004F007FA37E22E4B00221A702F4B00221A702C4B00221A702B4B00225A70294B00224E
:401040009A70284B0022DA70264B00221A71254B00225A711EE2184B1B78002B00D019E21F4B01221A70B0235B00FB185B681D4A1000190006231A0007F0B1F9B0235B0063
:40108000FB185A78184B1A70184B180004F0B4F9202004F0CDF9FDE14024002000005940E0C901002812002016120020AC2C0020F8C901009A2C00201312002008CA010049
:4010C00026120020382400201412002048CA010060CA01001824002098CA01001212002019120020642400201A120020C4CA01000023D8225200BA181360A44B1B78002B66
:401100002FD0B023FF33FB1800221A7023E0B0235B00FB185A68B023FF33FB181B78D3181A78B023FF33FB181B789949CB5C9A4208D1D8235B00FB181B680133D8225200E9
:40114000BA181360B023FF33FB181A78B023FF33FB1801321A70B023FF33FB181B78052BD5D9D8235B00FB181B68062B00D091E101F0DEFD874B180004F03EF9202004F0AE
:4011800057F9202004F054F9CD235B00FB18824A12881A80814B180004F02EF9B0235B00FB181B781A007E4998235B00FB18180007F026F998235B00FB18180004F01CF9AB
:4011C000784B180004F018F9774B180004F014F9B0235B00FB181B7C5BB21A00704992235B00FB18180007F00BF992235B00FB18180004F001F96B4B180004F0FDF86B4BB0
:40120000180004F0F9F8B0235B00FB185B6805331B781800FFF78AFAB0235B00FB185B6804331B781800FFF781FAB0235B00FB185B6803331B781800FFF778FAB0235B007E
:40124000FB185B6802331B781800FFF76FFAB0235B00FB185B6801331B781800FFF766FAB0235B00FB185B681B781800FFF75EFA202004F0DDF8202004F0DAF84C4B180065
:4012800004F0BAF80023D4225200BA1813601AE0B0235B00FB18DA68D4235B00FB181B68D3181978434AD4235B00FB181B68D3180A1C1A70D4235B00FB181B680133D422D5
:4012C0005200BA181360B0235B00FB181B7A1A00D4235B00FB181B689A42D9DC202004F0A7F8B0235B00FB1810229A56B0235B00FB18DB681900100000F0A8FE2E4C3B00C0
:40130000180000F0D5FE2D4BDC2252009446BC4463442000190044231A0007F060F8264B9B68181CFFF74AFA0300CA225200BA181360234B180004F05FF8CA235B00FB18EC
:401340001B68180004F058F8202004F071F8B0235B00FB18DB685A7A1A4B1A70B0235B00FB18DB681A7A174B5A70164B00229A70144B0022DA70144B180004F03DF800234B
:40138000D2225200BA18136033E0C04618120020080C0020DCCA010014240020F0CA0100FCCA010000CB010004CB01000CCB01001CCB0100442400206C24002048FEFFFFB2
:4013C0004CCB0100B0240020D4C90100A84AD2235B00FB181B68D3181B781800FFF7A6F9D2235B00FB181B680133D2225200BA181360D2235B00FB181B68042BE6DD202083
:4014000004F016F89B4B1B780133DAB2994B1A70984B1978B0235B00FB18DB6809331A78B0235B00FB18DB6808331C78924B1B8892480093230000F0B7FE914B180003F04E
:40144000DBFF8D4B1B88DBB21800FFF7FBF8202003F0EEFF8B4B00221A708B4B01221A708A4B00221A708A4B1B889AB2824B1A80884B180003F0C0FF7F4B1B88DAB2864B51
:401480001B88DBB2D31ADBB21800FFF7DBF8202003F0CEFFB0235B00FB181B78042B00D046E2B0235B00FB181B7A142B00D03FE27A4B1B78002B00D13AE2B0235B00FB18EF
:4014C0005B6877490622180006F07AFF031E00D02EE2B0235B00FB185A78724B1B789A4200D025E2B0235B00FB18D868B0235B00FB181B7A1A006C4B190006F061FF031EEB
:4015000000D015E2694B180003F076FF202003F08FFF674B180003F06FFF5D4B1B889BB2DAB2554B1B88DBB2D31ADBB21800FFF789F8202003F07CFF534B00221A7001F0DE
:40154000F7FB5C4B180003F057FF202003F070FFB0235B00FB185A78574B9A71B0235B00FB185B681A78544B1A70B0235B00FB185B685A78504B5A70B0235B00FB185B6811
:401580009A784D4B9A70B0235B00FB185B68DA78494BDA70B0235B00FB185B681A79464B1A71B0235B00FB185B685A79424B5A71424B01221A70394B00221A70B8E1404BD3
:4015C000180003F019FF324B1B889BB2DAB23D4B1B88DBB2D31ADBB21800FFF733F8202003F026FF384B180003F006FF374B1B789E225200BA181100180013F050FA9E2349
:401600005B00FB181B781800FFF790F89E235B00FB185B781800FFF789F89E235B00FB189B781800FFF782F8202003F001FF284B1B78022B00D07DE1244B1A785B781B0233
:401640001A4300231204120C1B0C1B041343180001F066FC1F4B180003F0CEFE1E4B1B781800FEF795FF202003F0E2FE62E1C046B024002012120020FC110020840C002060
:401680005CCB01002A12002015120020181200201424002068CB01001C12002019120020642400201A120020F00B002074CB010098CB0100DCCA01003824002022120020C6
:4016C000A8CB01001E120020B8CB0100AC2C0020040C0020DCCB01009A2C00209A4B01221A709A4B180003F087FE994B1B781800FEF74EFF202003F09BFE964B1B78002BA9
:4017000000D186E0944B180003F076FE934B1B781800FEF797FF202003F08AFE8F4B1A788F4B1A708B4B1A788D4B5A70BA235B00FB1811221A81BA235B00FB18884A1A60BB
:40174000BA235B00FB1802229A80BA235B00F918844B1A785B781B021A4300231204120C1B0C1B041343180014F0ECFB7E4B1A787D4B5B781900100000F0ACFC0300180021
:4017800006F0B2FC0022794B05F086FA03000C001800210006F03EFD031C181CFFF70EF80300C8225200BA181360714B180003F023FEC8235B00FB181B68180003F01CFEF5
:4017C000202003F035FEA2235B00FB180E221A81A2235B00FB18644A1A60A2235B00FB1808229A80A2235B00F9185E4B1A785B781B021A4300231204120C1B0C1B04134307
:40180000180014F095FB5B4B1B889AB25A4B1A8092E0504B1B78002B00D08DE0514B1B78180013F0B7F887E0544B180003F0E4FD504B1B889BB2DAB24F4B1B88DBB2D31A67
:40184000DBB21800FEF7FEFE202003F0F1FD4C4B180003F0D1FD3E4B1B781800FEF798FE202003F0E5FD3F4B1B78002B66D03D4B1B78180013F08EF8424B01221A70424B6C
:40188000180003F0B9FD324B1B781800FEF780FE202003F0CDFD51E02B4B00221A703B4B180003F0A9FD2A4B1B781800FEF770FE202003F0BDFD364B1B78012B17D1314B31
:4018C0001B78012B13D0224B1B78062B2BD1002001F02AF92F4B180003F08EFD1C4B1B781800FEF755FE202003F0A2FD1BE0284B1B78022B24D1234B1B78012B20D0144B0A
:401900001B78062B1CD1002001F0C0F9224B180003F072FD0E4B1B781800FEF739FE202003F086FD0CE00BE0C0460AE0C04608E0C04606E0C04604E0C04602E0C04600E006
:40194000C046BD466FB090BD23120020FCCB01009A2C00201212002020CC010013120020B8240020AC2C0020B02400200000594048CC0100142400202012002060CC01000C
:4019800070CC0100141200208CCC0100A8CC0100040C0020D0C80100CCCC010090B585B000AF8B4B1B78012B00D00CE1894B180003F022FD202003F03BFD07F079F9864B56
:4019C0001B78002B12D0844B1B78180012F0E2FF07F06EF9814B180003F00EFD804B1B781800FEF7D5FD202003F022FD7D4B1B78012B02D0022B4CD0E5E0794B1B78032B2F
:401A00000FD101F0FFF807F053F9774B180003F0F3FC734B1B781800FEF7BAFD202003F007FD6F4B1B78062B30D1BC1D002001F02DF903002380BB1D1B88002B17D16B4B1A
:401A4000180003F0D9FC664B1B781800FEF7A0FD202003F0EDFC664B1B889AB2654B1A80604B02221A705A4B00221A700EE05D4B01221A70604B180003F0BEFC584B1B78FF
:401A80001800FEF785FD202003F0D2FC07F010F999E0534B1B78042B0AD101F049F907F007F9564B180003F0A7FC202003F0C0FC4B4B1B78062B00D082E0514BDB7F013BBC
:401AC000504A11784E4AD1544D4BDB7F023B4E4A11784B4AD1544D4B494A9A604C4B180003F08AFC202003F0A3FC0023FB602FE0484B180003F080FC0023BB600DE0464B7A
:401B0000FA68D4214A43D258BB68D3181B781800FEF70CFEBB680133BB60BB68052BEEDD202003F085FC3D4B180003F065FC3A4AFB68D021D4204343D3185B181B7818004C
:401B4000FEF780FD202003F073FCFB680133FB60334B1B781A00FB689A42C9DC202003F067FCBC1D002000F0DFFF03002380BB1D1B88002B15D11B4B01221A70294B002218
:401B80001A70134B00221A70274B180003F034FC134B1B781800FEF7FBFC202003F048FC0EE0104B02221A70204B180003F024FC0B4B1B781800FEF7EBFC202003F038FCA7
:401BC00007F076F8C046C046BD4605B090BDC04614120020E0CC0100AC2C0020ECCC01009A2C0020040C00200CCD010030CD0100142400202612002048CD010060CD0100E3
:401C0000182400201212002013120020640C002078CD010088CD01000425002094CD01002C120020221200209CCD0100BCCD010090B583B000AF234B1B78DBB2002B3DD055
:401C400007F036F8204B1B78062B37D11D4B00221A70BC1D1D4B180001F07CF803002380BB1D1B88002B0CD0194B180003F0C4FB154B1B781800FEF78BFC202003F0D8FB53
:401C80001AE0144B180003F0B7FB104B1B781800FEF74CFD0D4B5B781800FEF747FD0B4B9B781800FEF742FD074B1B781800FEF76FFC202003F0BCFB06F0FAFFC046BD465A
:401CC00003B090BD221200209A2C002038240020E4CD0100FCCD010080B500AF224B1B78022B1CD1214B1B889BB21A00204B1B889BB2D31A012B12DD1E4B1B78062B03D0DB
:401D00001C4B1B78042B0AD11B4B01221A701B4B180003F071FB202003F08AFB22E0184B1B78002B1ED006F0C3FF134B1B78012B15D0104B1B78062B14D1114B00221A7020
:401D400006F0B6FF0F4B180003F056FB202003F06FFB002000F09AFF06F0AAFF02E0084B00221A70BD4680BD040C002014240020261200209A2C00201412002014CE01000D
:401D8000241200203CCE010090B585B000AF040008001100FB1D221C1A703B1D021C1A80BB1D0A1C1A700C23FB18FA1D12789A700C23FB183A1D12881A800C23FB18BA1D31
:401DC0001278DA700C23F918084B1A785B781B021A4300231204120C1B0C1B041343180014F07CFBC046BD4605B090BDAC2C002080B5ACB000AF02003960FB1D1A70002374
:401E0000A822BA1813603A4B1B68FB61394B1B68BB61394B1B687B61384B1B683B61384B1B68FB60374B1B68BB60374B374A1A60374B384A1A602023FB18374A1A60202377
:401E4000FB187F225A60AF23FB1800221A7015E0AF23FB181B789A1CAF23FB181B789B003968CB1819682023FB189200D150AF23FB181A78AF23FB1801321A70AF23FB1821
:401E80001B781F2BE4D9204B2022BA181A60204B224A1A602023FB18214A1A60FB1D1A782023FB185A60184B2022BA181A60184B1C4A1A60144B1B68A822BA1813600C4BCD
:401EC000FA691A600B4BBA691A600B4B7A691A600A4B3A691A600A4BFA681A60094BBA681A60A823FB181B681800BD462CB080BD00010B4008010B401CFF0B4020FF0B40C7
:401F000028FF0B402CFF0B4008001040B6E800000400104015000080B6D7000004000080B6EB00001800008080B5A6B000AF0200BB1D1A80264B9422BA1813609223FB18AE
:401F400000221A8015E09223FB181A889423FB181B68191D94203818016019680C23FB189200D1509223FB181A889223FB1801321A809223FB181B881F2BE4D9BB1D1A88FD
:401F80000C23FB181A600C23FB1819000120FFF72FFF03008C22BA1813608C23FB181A68A0231B069A4207D10A4B180003F024FA202003F03DFA06E0074B180003F01CFAB2
:401FC000202003F035FAC046BD4626B080BDC04680F2FF0F64CE01008CCE010080B500AF134B1B78012B1FD1124B1B78032B1BD1114B180003F000FA202003F019FA0F4B53
:4020000001221A700E4B00221A700E4B01221A700D4B180003F0F0F9064B1B781800FEF7B7FA202003F004FAC046BD4680BDC046040C00209A2C0020B4CE01002A12002088
:402040001512002014120020D0CE010090B583B000AF02003960FB1D1A703B68DA79124B1A713B6809331A783B6808331B781900100000F02FF80300180006F035F8002270
:402080000A4B04F009FE03000C001800210006F0C1F8021C044B9A60034B402201219954C046BD4603B090BDBC2400200000594080B582B000AF78607A68054B10001900C8
:4020C00044231A0006F08BF97868BD4602B080BDBC24002080B584B000AF0200FB1D1A70BB1D0A1C1A70FB1D1B781B0219B2BB1D1B781AB20C23FB180A431A80FB1D1B7831
:402100005BB2002B17DA0A23FB180C22BA181288D2431A800A23FB181B8801339AB20A23FB181A800A23FB181B885B429AB20E23FB181A8005E00E23FB180C22BA18128843
:402140001A800E23FB1800229B5E1800BD4604B080BDC04680B582B000AF0200FB1D1A70FB1D1B780F4ACE21D4204343D3185B1800221A80FB1D1B780A4ACC21D4204343AD
:40218000D3185B1800221A70FB1D1B78054ACD21D4204343D3185B1800221A70C046BD4602B080BD0425002090B587B000AF78600C0010001900FB1C221C1A70BB1C021C5C
:4021C0001A707B1C0A1C1A70874B1B78002B58D01723FB1800221A701623FB1800221A7000233B6135E00023FB6017E07F4B3A69D4214A43D258FB68D3181A787968FB68DF
:40220000CB181B789A4206D11623FB181A781623FB1801321A70FB680133FB60FB68052BE4DD724B3A69D4214A43D2587B689A4208D13B69DAB26E4B1A701723FB180122C1
:402240001A7009E01623FB1800221A703B6901333B613B69082BC6DD1723FB181B78002B1DD1614B1A78624B1A705F4B1B780133DAB25D4B1A705E4B1B781800FFF76AFFB5
:402280000DE05B4B00221A70574B1B780133DAB2554B1A70564B1B781800FFF75BFF544B1B781800514ACE21D4234343D3185B181B88312B00D992E04D4B1B7819004B4B51
:4022C000D4224A437968D150494B1B781800474AD021D4234343D3185B18FA1C12781A70434B1B781800424B1B781C003F4ACE21D4236343D3185B181B8819003B4AD42373
:402300004343D3185B180433BA1C12781A70384B1B781C00364B1B781800344ACE21D4234343D3185B181B881800304A3621D4236343D3181B185B187A1C12781A702C4B17
:402340001B7818002A4B1B781C00284ACE21D4236343D3185B181B881900244B6A224243521834325200282179180988D152204B1B7818001D4ACC21D4234343D3185B1801
:4023800018781B4B1B781C00184ACD21D4236343D3185B181B78190000F02CF8144B1B781249CE20D4225A438A1812181288013294B20E4ACE21D4204343D3185B18221C63
:4023C0001A800B4B1B781800084AD021D4234343D3185B18FA1C12781A70012300E000231800BD4607B090BD2C120020042500200025002090B587B000AF0200FB1D1A70F9
:40240000BB1D0A1C1A704D4B1B7818004C4ACC21D4234343D3185B181B78002B26D1474B1B781800464ACD21D4234343D3185B181B78002B1AD1414B1B781C00FB1D18789C
:402440003F4ACC21D4236343D3185B18021C1A703A4B1B781C00BB1D1878394ACD21D4236343D3185B18021C1A7063E0FB1D1A78BB1D1B7819001000FFF72CFE03001800D7
:4024800005F032FE00222F4B04F006FC03000C001800210005F0BEFE031C7B61FB1D1A78BB1D1B7819001000FFF714FE0300180005F01AFE0022234B04F0EEFB03000C0087
:4024C0001800210005F0A6FE031C3B611B4B1B7818001B4ACE21D4234343D3185B181B88180004F053FB031C3969181C04F092F8031C7969181C03F04DFD031CFB600F4B59
:402500001B7818000E4ACE21D4234343D3185B181B880133180004F039FB031C191CF86803F0AEFE031CBB60BA1DF91DBB68181C00F00AF8C046BD4607B090BD00250020A2
:40254000042500200000594090B589B000AFF860B9607A60FB683B611023FB181A78BB681A701023FB185A787B681A70294B180002F042FFFB68181CFEF720F90300FB6135
:40258000254B180002F038FFFB69180002F034FF202002F04DFF214B180002F02DFFBB681B781800FEF7C2F87B681B781800FEF7BDF8202002F03CFFBB681A787B681B785C
:4025C00019001000FFF786FD0300180005F08CFD0022134B04F060FB03000C001800210005F018FE031CBB61BB69181CFEF7E6F803007B610B4B180002F0FEFE7B691800E1
:4026000002F0FAFE202002F013FFC046BD4609B090BDC046FCCE01002CCF01003CCF01000000594050CF010080B586B000AF786039601723FB1800221A701623FB180022D9
:402640001A7000233B6138E00023FB6017E0204B3A69D4214A43D258FB68D3181A78FB687968CB181B789A4206D11623FB181A781623FB1801321A70FB680133FB60FB6841
:40268000052BE4DD1623FB181B78062B0ED138680F4A3B69D4214B43D318D422190005F09EFE1723FB1801221A7009E01623FB1800221A703B6901333B613B69082BC3DDC9
:4026C0001723FB181B781800BD4606B080BDC0460425002080B582B000AF786039603A687B680021180005F083FEC046BD4602B080BDC04680B586B000AF78603960002336
:402700003B6100237B612FE07B699B007A68D3181B68BB600F23FB18BA681A70BB68FF229343BB6018E03B695B003A68D3181B781A00BB68D31819003B695B003A68D318FB
:402740005B780B703B6901333B610F23FB181A780F23FB18013A1A700F23FB181B78002BE1D17B6901337B617B69082BCCD9C046BD4606B080BDC04680B500AF054B0322F6
:402780001A60054B03221A60044B00221A60C046BD4680BD3000304030003140000E3F4080B500AF05F0E0FD03001B680C2B00D1FEE7FEE780B584B000AF78600F4B1A68D7
:4027C0007B68D3181A000E4BD31A802B09DC0B4B1B68FB60094B1A687B68D218074B1A6007E005F0C1FD03000C221A6001235B42FB60FB681800BD4604B080BD100C00206C
:40280000C82C002080B586B000AF224B7B61224B3B61204B7B6135E03B691B68FB603B695B68BB603B699B683B6000237B600CE0FB681A68BB681A60BB680433BB60FB6832
:402840000433FB607B6804337B607A683B689A42EED13B69DB683B6000237B6008E0BB6800221A60BB680433BB607B6804337B607A683B689A42F2D13B6910333B617B6995
:40288000013B7B617B69002BC6D105F073FDFDF76DFDFEE7010000002CD7010080B582B000AF154B144A126801218A431A6000237B600FE07B68032B04D8104B7A6892004D
:4028C000D35800E00E4B0F4A796889008B507B6801337B607B682F2BECD9FDF72FFC0A4B00221A60044B044A126801210A431A60C046BD4602B080BD00001040000000008A
:40290000A127000000000020C000002080B500AF1B4B00221A701B4B00221A701A4B00221A701A4B00221A70194B5A88194B1A80174B9A88174B5A80154B9A79154B1A7341
:40294000134BDA79134B1A71124B0722DA81114B09221A820F4B00225A820E4B962292009A820C4B0022DA820A4B012252421A83094B1E221A8000F011F8C046BD4680BDB7
:40298000C12C0020A82C0020BF2C0020BE2C0020780C00207C2C0020962C002080B500AF0C4B1B88002B05D10B4B0E220021180005F01EFD074BDB88002B05D1074B0622D5
:4029C0000021180005F014FD02F052F8C046BD4680BDC046600D0020B02C0020A02C0020B0B594B004AF78603E23FB1800221A802823FA183E4B1000190014231A0005F0E2
:402A0000EEFC3C4B1B78002B04D1FFF77FFF394B01221A707B68002B5FD0374B7A681A603E23FB181B88002B29D11023FB181C22BA185A601023FB182022BA181A6010237F
:402A4000FB1800221A812023FB181B221A802023FB181B225A802023FB1804221A711C23FB1800221A703E23FC180E23FA181023FB181100180006F011FA030023803E23B8
:402A8000FB181B88002B2CD13E23FC182823FD18AE231A0119491A480023029300230193052300932B0006F04FF9030023803E23FB181B88002B14D1124B01221A70124BEC
:402AC00008221A703E23FC18104B1A221621180014F06CFF0300238003E03E23FB1801221A803E23FB181B881800BD4610B0B0BDFCD001002D120020782C0020C800002067
:402B0000313500009A2C00209B2C002068D1010080B500AF06F0E2F8024B00221A70C046BD4680BD9A2C002090B585B000AF0200FB1D1A70FB1D1B78022B04D90E23FB1889
:402B400001221A804CE02A4B1B78062B43D1294B1B78DBB21A00042313403CD1FB1D1B78002B0DD1244B254A1A82234B5B68902252001A80204B5B68A02252005A8010E0E1
:402B8000FB1D1B78012B0CD11B4B96221A821A4B5B68C822D2001A80174B5B688022D2015A80174BFA1D12781A700E23FC18124B180012F095FA030023800E23FB181B8850
:402BC000002B0DD10B4B1B78DBB204221343DAB2084B1A7004E00E23FB180422FF321A800E23FB181B881800BD4605B090BDC0469A2C0020C12C0020640C0020FF7F00004D
:402C0000BF2C002080B500AF12F002FB054B1B78DBB208221343DAB2024B1A70C046BD4680BDC046C12C002080B584B000AF78600A00FB1C1A700023BB60BB68002B20D0E3
:402C40007B689A79BB681A700F23FB1800221A7012E00F23FB181B780133BA68D3180F22BA18127879688A5C1A700F23FB181A780F23FB1801321A700F23FB181B78052BF6
:402C8000E7D9C046BD4604B080BDC04690B585B000AF0200FB1D1A70FB1D1B78022B04D90E23FB1801221A8035E0FB1D1B78002B09D11C4B06221A811A4B30225A80194BED
:402CC00020229A800EE0FB1D1B78012B0AD1154B96221A81134B802212015A80114BE122D2009A80104BFA1D12781A700E23FC180C4B180012F07AF9030023800E23FB1854
:402D00001B88002B07D1094B1B78DBB204221343DAB2064B1A700E23FB181B881800BD4605B090BD780C0020BE2C0020C12C002080B500AF12F084F9054B1B78DBB20822DA
:402D40001343DAB2024B1A70C046BD4680BDC046C12C002090B585B000AF7860294B1B78062B05D00E23FB180422FF321A8041E07B68002B04D10E23FB1801221A8039E0E0
:402D80000D23FB1800221A7012E00D23FB181B780D22BA1812787968895C1B4AD3180A1C5A710D23FB181A780D23FB1801321A700D23FB181B78052BE7D97B689A79124BDC
:402DC000DA720E23FC18104B180012F0BDF8030023800E23FB181B88002B0BD1094B05221A700A4B1B88002B04D0084B1B8818000EF0BEFF0E23FB181B881800BD4605B008
:402E000090BDC0469A2C00207C2C0020962C002090B583B000AF104B1B78052B04D0BB1D0422FF321A8011E0BC1D12F083F8030023800A4B1B88002B01D00EF0B3FFBB1D64
:402E40001B88002B02D1044B06221A70BB1D1B881800BD4603B090BD9A2C0020962C002080B582B000AF78607B681B789AB27B6801331B789BB21B029BB213439BB2180086
:402E8000BD4602B080BDC04690B585B000AF78600F23FB1800221A707B689B890B22934232D17B68181D7A680F23FC184023002114F094FD030023700F23FB181B78002B2A
:402EC0001AD17B685B681800FFF7CAFF03001A00022313409BB2002B07D00F4B1B687968822252001000984706E00B4B1B6879680622FF3210009847084B1B78DBB2012265
:402F00009343DAB2054B1A700F23FB181B781800BD4605B090BDC046782C0020C12C002090B585B000AF3B1D1880304B1B78022B07D12F4B1B78002B09D02D4B1B78052B11
:402F400005D00C23FB180422FF321A8047E00F23FB1800221A7014E00F23FB181A7813005B009B185B00234A9B1804220021180005F03EFA0F23FB181A780F23FB180132EF
:402F80001A700F23FB181B78032BE5D91A4A3B1D1000190002231A0005F021FA174B01221A80164B012252425A80FFF7F7FC0C23FC183B1D186812F01FFF030023800C2385
:402FC000FB181B88002B0AD1094B01221A700C4B1B78DBB202221343DAB2094B1A700C23FB181B881800BD4605B090BD9A2C00209B2C0020600D0020AC2C00209C2C00207D
:40300000C12C002080B582B000AF78607B68DB880D4A934214D10D4B5B88002B08D17B689A880A4B5A807B689A78084B1A7007E0074B1B687A68911D8622520010009847C4
:40304000C046BD4602B080BD052A0000A02C0020782C002080B582B000AF78607B689B880B4A934210D10B4B9B88002B04D17B685A88084B9A8007E0074B1B687A68111D03
:403080008622520010009847C046BD4602B080BD02290000A02C0020782C002080B582B000AF78600C4B5A887B689B899A420ED10A4B1B6879688322520010009847084B79
:4030C0001B78DBB201229343DAB2054B1A70C046BD4602B080BDC046A02C0020782C0020C12C002090B585B000AF78600F23FC187B681800FFF7C8FE03002370154B1B780F
:40310000DBB21A00012313401FD10F23FB181B78002B16D00823FB1812229A707B689A890823FB181A800823FB180F22BA181278DA700823FA187B681100186813F0CEF9AE
:4031400003E07B68186813F041FAC046BD4605B090BDC046C12C002080B582B000AF7860C046BD4602B080BD80B582B000AF7860C046BD4602B080BD80B582B000AF7860F3
:40318000C046BD4602B080BD80B582B000AF7860C046BD4602B080BD80B588B000AF7860394B1B78022B6AD1384B1B88002B66D00823F918354B022208009B18042219005D
:4031C00005F00DF97B6859687B681B891A000823FB180433180005F002F90823FB18180001F0BAFC294B1B8801339AB20823FB181A80274B1B781900264A0B005B005B183F
:403200005B00D31802331A880823FB185A800823FB181A880823FB185B889A4221D80823F9181D4B1A785B781B021A4300231204120C1B0C1B041343180012F0F5FD031EE0
:4032400012D0164B1B6884225200002110009847134B1B78DBB202229343DAB2104B1A7002E0012000F0BCFC0D4B1B78DBB201229343DAB20A4B1A70044B00221A80C046FF
:40328000BD4608B080BDC0469B2C002030120020C02C0020600D0020AC2C0020782C0020C12C002080B588B000AF7860394B1B78022B6AD1384B1B88002B66D00823F9182F
:4032C000354B022208009B180422190005F087F87B6859687B681B891A000823FB180433180005F07CF80823FB18180001F034FC294B1B8801339AB20823FB181A80274B29
:403300001B781900264A0B005B005B185B00D31802331A880823FB185A800823FB181A880823FB185B889A4221D80823F9181D4B1A785B781B021A4300231204120C1B0C8C
:403340001B041343180012F06FFD031E12D0164B1B6884225200002110009847134B1B78DBB202229343DAB2104B1A7002E0012000F036FC0D4B1B78DBB201229343DAB258
:403380000A4B1A70044B00221A80C046BD4608B080BDC0469B2C002030120020C02C0020600D0020AC2C0020782C0020C12C002080B500AF094B00225A70084B00221A7051
:4033C000074B1B78052B03D1054B07221A7002E0034B08221A70C046BD4680BDAC2C00209B2C002080B582B000AF78607B681B78032B3ED1264B1B78DBB21A000223134014
:4034000037D0244B1B78022B10D002DC012B05D024E0032B12D0042B18D01FE01E4B1B680822FF3200211000984717E01A4B1B68842252000021100098470FE0164B1B685C
:403440000A22FF3200211000984707E0124B1B6885225200002110009847C0460C4B1B78DBB202229343DAB2094B1A70094B00221A707B681B78042B05D1084B1B78052B9D
:4034800001D1FFF7C5FCC046BD4602B080BDC046C12C00209B2C0020782C00209A2C002080B500AFC046BD4680BDC04680B584B000AF78600E23FB1800221A707B689B79E0
:4034C000002B1CD10F23FB1800221A7012E00F23FB181B787A68D35C002B04D00E23FB1801221A700BE00F23FB181A780F23FB1801321A700F23FB181B78052BE7D90E233B
:40350000FB181B781800BD4604B080BD80B582B000AF0200BB1D1A80C046BD4602B080BD80B582B000AF7860C046BD4602B080BD80B588B000AF02003960FB1D1A70D44BF9
:403540001B78DBB201221343DAB2D14B1A70FB1D1B78712B00D919E29A00CE4BD3181B689F461023FB1807221A701023FB1800225A701023FB18180007F044FC1023FB1859
:4035800007221A701023FB1801225A701023FB18180007F037FC0023002B01D005F080FBBD4B1B681800FFF781FF031E11D0BA4B1B68180005F080FBB74B1B680021180025
:4035C000FFF732FBB44B1B6801211800FFF72CFB36E0B24B1B781A003F231A40B04B1B789901FC231B010B401A43AE4B1B781903F8235B020B401A43AB4B1B785904FE2379
:403600001B040B401343BB61BB69DAB2A74B1A70BB691B0ADAB2A54B5A70BB691B0CDAB2A24B9A70A14B180005F046FB9F4B00211800FFF7F9FA9D4B01211800FFF7F4FAD9
:40364000032011F059FB0C23FB183F221A700C23FB1800225A700C23FB18180011F06AFB934B06221A709CE13B681800FFF7BAFE97E13B681A788F4B1A7092E13B687B613E
:403680007B691B78002B00D082E17B695B78002B0BD1894B0222DA80874B1C229A80864B864A1A607B69844A5A60794B1B78DBB201229343DAB2764B1A7069E1744B1B7824
:4036C000DBB21A002023134000D063E17C4B1B78102B02D17A4B0522DA707A4B1B78784A1100180011F0BEFC03001A000A23FB181A800A23FB181B88002B06D0724B1B68C2
:403700000A22BA18110036209847614B1B78DBB201221343DAB25E4B1A706A4B1B78684A1100180011F072F834E13B681800FFF7F7FE36E13B681800FFF7F2FE634B1B88EF
:40374000002B01D00EF02EFB594B02221A7028E1574B06221A7024E1554B1B78022B00D11AE14B4B1B78DBB21A000123134000D112E1474B1B78DBB21A00042313400BD01A
:403780004B4B03221A70424B1B78DBB204229343DAB23F4B1A70FFE03D4B1B78DBB21A00082313400BD0424B06221A70384B1B78DBB208229343DAB2354B1A70ECE03C4BB6
:4037C0001B78032B00D0E7E0394B06221A70E3E0374B1B78022B00D1E0E02D4B1B78DBB21A000123134000D1D8E0294B1B78DBB21A00042313400BD02D4B04221A70244B59
:403800001B78DBB204229343DAB2214B1A70C5E01F4B1B78DBB21A00082313400BD0244B06221A701A4B1B78DBB208229343DAB2174B1A70B2E01E4B1B78042B00D0ADE010
:403840001B4B06221A70A9E03B681B881800FFF75DFEA6E01B4A3B681000190002231A0004F0BDFD134B00221A70194B00221A70FFF716FE95E0FFF79BFD92E03B685B8835
:40388000162B27D81E23FB183A6852881A8025E0C12C00202CD301008C0C00207CF1FF0F7DF1FF0F7BF1FF0F78F1FF0F840C00209A2C0020A82C002048120020A80B0020D5
:4038C000780D0020AC2C0020782C0020962C00209B2C00201E23FB1817221A801E23FB1819883B681A8800231204120C1B0C1B041343180012F0FCFD53E03B681800FFF753
:40390000F1FB4EE03B681800FFF726FC49E03B68180000F065F844E03B68180000F098FA3FE000F083FE3CE03B68180000F02AFD37E03B68180000F0C9FE32E03B68180034
:40394000FFF71AFC2DE03B681800FFF7A7FB3B681800FFF719FC204B1B78DBB21A00012313401DD13B68186812F00CFA18E03B681800FFF711FC14E03B681800FFF792FCF7
:403980000FE03B681800FFF7EFFB0AE0C04608E0C04606E0C04604E0C04602E0C04600E0C0460D4B1B78DBB21A00112313400ED0094B1B78DBB201229343DAB2064B1A7030
:4039C000064B1B68FA1D1278396810009847C046BD4608B080BDC046C12C0020782C002080B586B000AF78600023FB60774B1B78012B00D0E6E0764B1B78DBB21A00022346
:403A0000134000D1DEE00A23FB187A6812891A800A23FB181B88062B05D00A23FB181B88142B00D0C7E00823FB187A6852891A801423FB1800221A80ABE07B685A681423C9
:403A4000FB181B88D318FB601323FB1800221A70FB681A885F4B1B889A4200D27CE0FB681A885C4B5B889A4200D975E00A23FB181B88062B00D068E0FB6801221A751623E6
:403A8000FB1800221A8055E01623FB181A88524913005B009B185B00CB1804331A88FB689B889A423FD11623FB181A884A4913005B009B185B005B5A002B13D11623FB18C2
:403AC0001A88454913005B009B185B00FA68CB1811000422180004F082FC1323FB1801221A7020E01623FB181B88022B0FD81623FB181B885A1C384913005B009B185B00B9
:403B0000CB1804331A88FB689B889A420BD0334B1B68FA68111D0C22FF32100098471323FB1801221A701623FB181A881623FB1801321A801623FB181B88032B0CD8132379
:403B4000FB181B78002B9FD006E0FB6802221A75FB68180001F000F81323FB181B78002B0DD11B4B1B78DBB21A000123134006D01A4B1B68F9681222FF32100098471423FF
:403B8000FB181422B9180A22BA18098812888A181A801423FA180823FB1812881B889A4200D24AE70A4B1B78DBB201229343DAB2074B1A7006E0094B1B680822FF320021D4
:403BC00010009847C046BD4606B080BD9B2C0020C12C00209C2C0020600D0020782C002080B582B000AF0200FB1D1A70FB1D1B78002B06D0344B1B780133DAB2324B1A706E
:403C00000CE0314B00221A70304B00221A8005E02D4B1B780133DAB22B4B1A702A4B1B78032B19D8284B1B781900294A0B005B005B185B009A5A274B1B889A42E8D3224B8F
:403C40001B781900224A0B005B005B185B009A5A204B5B889A42DBD81B4B1B78032B28D8194B1B781A0013005B009B185B00184A9918194B1A785B781B021A4300231204E4
:403C8000120C1B0C1B041343180012F0CDF8031E15D0124B1B68842252000021100098470F4B1B78DBB202229343DAB20C4B1A7005E00C4B03221A70002000F0ADFAC046F4
:403CC000BD4602B080BDC046C02C002030120020600D00209C2C0020AC2C0020782C0020C12C00209B2C002080B582B000AF78607B68DB884F4A934200D184E04D4A9342F6
:403D00000BDC4D4A934224D04B4A934200DD68E0A822920193420AD087E0484A93423CD0474A93424BD0474A934224D07DE0464B1B88002B04D17B689A88434B1A8074E0DA
:403D4000424B1B687A68911D86225200100098476BE03D4B5B88002B04D17B689A883A4B5A8062E0394B1B687A68911D862252001000984759E0344B1B89002B04D17B689F
:403D80009A88314B1A8150E0304B1B687A68911D862252001000984747E02B4B5B89002B04D17B689A88284B5A813EE0274B1B687A68911D862252001000984735E0224B41
:403DC0009B89002B04D17B689A881F4B9A812CE01E4B1B687A68911D862252001000984723E0194B9B88002B04D17B689A88164B9A801AE0154B1B687A68911D8622520033
:403E00001000984711E0104BDB88002B04D17B689A880D4BDA8007E00C4B1B687A68911D8622520010009847C046C046BD4602B080BDC046032A0000012A0000A62A0000C7
:403E4000C92A0000042A0000B02C0020782C002090B593B000AF7860D44B1B78DBB21A000223134000D1D1E13E23FB187A6812891A803C23FB187A6852891A807B685B6804
:403E80003B64CB4B1B78032B00D0C7E04623FB1800221A80B8E03B6C1800FEF7E1FF03001A002423FB181A803B6C02333B643B6C1A782423FB189A703B6C01333B643B6C67
:403EC0001800FEF7CDFF03001A002423FB189A803B6C02333B643E23FB181B88152B33D12423FB1802229A752423FB180622396C9B181022180004F072FA3B6C10333B64E8
:403F0000AC4B1B781900AC4A0B005B005B185B00D31804331B881A00A84B9A425DD0A54B1B78012B5BD9A34B1B78032B57D8A14B1B789BB2023B9BB22422BA181100180081
:403F400000F072FEC0464AE03E23FB181B88072B48D12423FB1801229A753B6C1800FEF77FFF03001A002423FB18DA803B6C02333B64904B1B7819008F4A0B005B005B180C
:403F80005B00D31804331B88C0225201934203D08B4A934206D00BE02423FB181800FFF7A3FE1FE02423FB181800FFF72BF819E0804B1B78012B14D97E4B1B78032B10D824
:403FC0007C4B1B789BB2023B9BB22422BA181100180000F029FEC04603E0C04602E0C04600E0C046714B1B78DBB201229343DAB26E4B1A704623FB184622B9183E22BA18F0
:40400000098812888A181A804623FA183C23FB1812881B889A4200D23DE7F7E0644B1B78022B00D0F2E04623FB1800221A80E4E03B6C1800FEF714FF03001A000C23FB1813
:404040001A803B6C02333B643B6C1800FEF708FF03001A000C23FB185A803B6C02333B643B6C1800FEF7FCFE03001A000C23FB189A803B6C02333B643E23FB181B88062BD2
:4040800030D10C23FB1802229A7511F04BFF0C23FB1859884B4B1A785B781B021A4300231204120C1B0C1B041343180011F0DAFE031E07D1444B0C22BA1813CA13C313CAAB
:4040C00013C388E0414B1B6884225200002110009847364B1B78DBB202229343DAB2334B1A7078E03E23FB181B88082B00D072E00C23FB1801229A753B6C1800FEF7B0FEA2
:4041000003001A000C23FB18DA803B6C02333B644423FB1800221A8033E04423FB181A88254913005B009B185B00CB1804331A880C23FB18DB889A421CD14423FB181A88B6
:404140001D4913005B009B185B005B5A002B11D14423FB181A88184913005B009B185B000C22BA180220CB1811180422180004F036F90BE04423FB181A884423FB1801325F
:404180001A804423FB181B88032BC6D9094B1B781900094A0B005B005B185B00D31804331B881A000A4B9A4214D014E0C12C00209B2C0020C02C0020600D0020FEFF000082
:4041C00001180000AC2C002030120020782C002012180000C0460F4B1B78DBB201229343DAB20C4B1A704623FB184622B9183E22BA18098812888A181A804623FA183C2350
:40420000FB1812881B889A4200D211E7C046BD4613B090BDC12C002080B582B000AF0200FB1D1A70FB1D1B78002B06D0354B1B780133DAB2334B1A7009E0324B00221A700F
:4042400005E0304B1B780133DAB22E4B1A702D4B1B78032B19D82B4B1B7819002A4A0B005B005B185B009A5A284B1B889A42E8D3244B1B781900244A0B005B005B185B0036
:404280009A5A224B5B889A42DBD81E4B1B78032B2DD81C4B1B781A001B4913005B009B185B001B4A585ACB185B881B04034319001378527812021A4300231204120C1B0C69
:4042C0001B041343180011F07BFD031E15D0114B1B680A22FF320021100098470E4B1B78DBB202229343DAB20B4B1A7005E00B4B04221A70002000F0E9F8C046BD4602B0F0
:4043000080BDC046C02C0020600D00209C2C0020AC2C0020782C0020C12C00209B2C002080B582B000AF3B0000221A803B0000225A80114B1B78002B09D1104B5B8801335F
:404340009AB23B001A800E4B1A893B005A803B1D3A0012681A603A1D002311880904090C1B0C1B040B43528812041B041B0C13431800BD4602B080BDC02C0020A02C00202E
:40438000600D002080B58AB000AF78600823FB1800225A804A4B1B78042B00D08BE0494B1B78DBB21A000223134000D183E01E23FB187A6812891A807B681A7B0823FB1813
:4043C0001A750823FB187A6812881A800823FB181B7D012B04D12623FB1804221A8003E02623FB1812221A807B685B683B622423FB1800221A804EE03B6A1800FEF730FD74
:4044000003001A000823FB185A803B6A02333B620823FB181B7D022B15D10823FB183A6A043311001022180003F0D9FF3B6A10333B62254B1B78012B23D10823FB181800AA
:4044400000F0B8FD1DE03B6A1800FEF709FD03001A000823FB189A803B6A02333B621A4B1B78002B04D10823FB181800FEF7F2FD154B1B78012B04D10823FB18180000F08A
:4044800099FD2423FB182422B9182622BA18098812888A181A802423FA181E23FB1812881B889A42A8D3074B1B78DBB201229343DAB2044B1A70C046BD460AB080BDC0465D
:4044C0009B2C0020C12C0020C02C002080B584B000AF0200FB1D1A700C23FB1800221A800C23FB1800225A804A4B1B78012B17D0FB1D1B78002B0DD0464B1B780133DAB2F2
:40450000444B1A70434B1B78012B09D1FB1D00221A7005E03F4B00221A70FB1D01221A703C4B1B78012B0CD1FB1D1B78180000F07FFC03001A000C23FB181A60FB1D012232
:404540001A70344B1B78012B06D0FFF7E9FE03001A000C23FB181A600C23FB181A882E4B1B889A4215D90C23FB181A882A4B5B889A420ED80C23FB185A88274B1B889A420A
:4045800007D30C23FB181A880C23FB185B889A4203D9204B1B78012BA6D91E4B1B78012B21D80C23F9181D4B1A785B781B021A4300231204120C1B0C1B041343180011F003
:4045C000E9FB031E21D0164B1B6885225200002110009847134B1B78DBB202229343DAB2104B1A7011E0104B05221A700C4B1B68892252000021100098470A4B1B78DBB296
:4046000002229343DAB2074B1A70C046BD4604B080BDC046C02C00209C2C0020AC2C0020782C0020C12C00209B2C002080B500AF244B1B78DBB21A00022313403FD0224BF3
:404640001B78022B17D002DC012B05D037E0032B1DD0042B27D032E01B4B02221A700020FFF7BEFA174B1B78DBB201229343DAB2144B1A7023E00120FFF7B2FA114B1B78C3
:40468000DBB201229343DAB20E4B1A7017E00120FFF7C2FD0B4B1B78DBB201229343DAB2084B1A700BE00120FFF710FF054B1B78DBB201229343DAB2024B1A70C046C04677
:4046C000BD4680BDC12C00209B2C002080B582B000AF7860084B1B78DBB21A000223134005D07B689B790A2B01D1FFF79FFFC046BD4602B080BDC046C12C002080B582B0BA
:4047000000AF786039607B681B689AB23B681A80C046BD4602B080BD80B582B000AF78600A00BB1C1A80BB1C1A887B681A60C046BD4602B080BDC04680B582B000AF786047
:404740000A00BB1C1A80BB1C1A887B681A60C046BD4602B080BDC04680B584B000AF494B1B78DBB21B02484A1278D2B21343FB60464B1B78DBB21B02454A1278D2B21343EF
:40478000BB60BB68434A934207D1FB68072B04D1414BBB600423FB6009E0BA68D4231B019A4204D1FB68042B01D13B4BBB603B4BBA681A603A4BFA681A603A4B1B78DBB2F2
:4047C0001B02394A1278D2B21343FB60FA6880239B019A4202D0FB68002B01D1334BFB60334BFA681A60334B1B78DBB21B02324A1278D2B21343FB60FB68304A934206D0FA
:40480000FB682F4A934202D0FB68052B01D12D4BFB602D4BFA681A602C4B1B681B097B602B4B1B68AA2B29D17B68012B26D9214B1B78DBB20E2B21D1264B1B78DBB29BB205
:404840001B0299B2244B1B78DBB29AB2BB1C0A431A80224BBA1C12881A60214B1B78DBB29BB21B0299B21F4B1B78DBB29AB23B000A431A801C4B3A0012881A60C046BD46E9
:4048800004B080BDD9F0FF0FD8F0FF0FDFF0FF0FDEF0FF0F580B0000580D00006C002E4074002E40DBF0FF0FDAF0FF0F0220000078002E40DDF0FF0FDCF0FF0F0F0F000091
:4048C00005050000050F000080002E40EC0F00F0E00F00F06DF2FF0F6CF2FF0F84002E406FF2FF0F6EF2FF0F94002E4080B582B000AF0200BB1D1A80BB1D1B88180000F02B
:40490000D5FEC046BD4602B080BDC04680B582B000AF78607B68180000F0A2FEC046BD4602B080BD80B500AF00F0DEFDC046BD4680BDC04680B500AF00F0E2FDC046BD467E
:4049400080BDC04680B500AF00F0DAFD044B180000F094FD002000F09FFDC046BD4680BD095B000080B500AF034B180000F072FDC046BD4680BDC046095B000080B500AFCE
:404980000223FF331800BD4680BDC04680B582B000AF78602B231800BD4602B080BDC04680B582B000AF78602B231800BD4602B080BDC04680B582B000AF78602B23180056
:4049C000BD4602B080BDC04680B582B000AF78602B231800BD4602B080BDC04680B582B000AF78602B231800BD4602B080BDC04680B582B000AF78602B231800BD4602B01E
:404A000080BDC04680B582B000AF78602B231800BD4602B080BDC04680B582B000AF78602B231800BD4602B080BDC04680B500AF2B231800BD4680BD80B582B000AF0200F9
:404A4000FB1D1A702B231800BD4602B080BDC04680B582B000AF786039602B231800BD4602B080BD80B500AFC046BD4680BDC04680B582B000AFBB1D00221A8060E0BB1D65
:404A80001B889A1C324913005B009B185B005B5A002B50D13B1D00221A8040E0BB1D1B882C4A1B01D3180C331A683B1D1B881B01D31800221A80BB1C00221A8019E0BB1D96
:404AC0001B88244A1B01D3180C331A683B1D1B881B01D318D968BB1C1A8813005B009B189B00CB1800221A80BB1C1A88BB1C01321A80BB1D1B88174A1B01D3180C331A6805
:404B00003B1D1B881B01D3189B7A9BB2BA1C12889A42D4D33B1D1A883B1D01321A80BB1D1B880C4A1B01D31809331B789BB23A1D12889A42B2D3BB1D1A88BB1D01321A809A
:404B4000BB1D1B88012B9AD9C046BD4602B080BD600D0020D40D002080B584B000AF78600D23FB1800221A700E23FB1800221A8046E00E23FB181B88284A1B01D3180833F5
:404B80001B78022B35D10E23FB181B88234A1B01D318043318687B6804331022190003F00FFC031E25D10E23FB181B889A1C1C4913005B009B185B005B5A002B19D10E232A
:404BC000FB181B889A1C164913005B009B185B007A68CB1811000422180003F000FC114B1B780133DAB20F4B1A700D23FB1801221A700E23FB181A880E23FB1801321A80F1
:404C00000E23FB181B88012B04D80D23FB181B78002BAED0C046BD4604B080BDD40D0020600D0020C02C002080B584B000AF02003960BB1D1A800D23FB1800221A70774B9C
:404C40001B68002B0FD0764B1B88BA1D12889A4206D1724B1B683A681288013A92B21A806E4B00221A600E23FB1800221A80ABE00C23FB1800221A703B689B7D022B27D1DC
:404C8000BB1D1B88674A1B01D3180C331A680E23FB181B881B01D3181B7A022B18D1BB1D1B88604A1B01D3180C331A680E23FB181B881B01D31858683B68063310221900A5
:404CC00003F07EFB031E03D10C23FB1801221A703B689B7D012B27D1BB1D1B88514A1B01D3180C331A680E23FB181B881B01D3181B7A012B18D1BB1D1B884A4A1B01D318F9
:404D00000C331A680E23FB181B881B01D31858683B6806330222190003F052FB031E03D10C23FB1801221A700C23FB181B78012B43D1BB1D1B883B4A1B01D3180C331A68EA
:404D40000E23FB181B881B01D3181B88002B34D1BB1D1B88334A1B01D3180C331A680E23FB181B881B01D3183A6892881A80BB1D1B882C4A1B01D3180C331A680E23FB1871
:404D80001B881B01D3183A6892785A72BB1D1B88244A1B01D3180C331A680E23FB181B881B01D3189A1C1D4B1A601D4BBA1D12881A800D23FB1801221A700E23FB181A8851
:404DC0000E23FB1801321A80BB1D1B88154A1B01D31809331B789BB20E22BA1812889A4205D20D23FB181B78002B00D140E70B4B1B68002B0DD0094B1A680B4B1B781800A5
:404E00000A4903005B001B185B00CB1802331B881380C046BD4604B080BDC0465412002058120020D40D0020C02C0020600D002080B584B000AF0200FB1D1A700823FB1841
:404E400000221A800823FB1800225A80FB1D1B78002B2ED0524B1B880133524A1288524912018A1809321278934206D24C4B1B8801339AB24A4B1A8024E04A4B1B880133A3
:404E8000012B09D8474B1B8801339AB2454B1A80434B00221A8015E0444B1B780133DAB2424B1A703E4B1B8801339AB23C4B1A8008E03C4B00221A80394B00221A80FB1D7E
:404EC00001221A70374B1B88374A1B01D31809331B789AB2324B1B889A421FD9314B1B88314A1B01D3180C331A682D4B1B881B01D3181B8801339AB20823FB181A80294B56
:404F00001B88294A1B01D3180C331A68244B1B881B01D3185A880823FB185A800823FB181A88234B1B889A4215D90823FB181A881F4B5B889A420ED80823FB185A881C4B4F
:404F40001B889A4207D30823FB181A880823FB185B889A420CD9134B1B88134A1B01D31809331B789AB20E4B1B889A4200D96DE70C23FB180822BA1812681A600C23FA181E
:404F8000002311880904090C1B0C1B040B43528812041B041B0C13431800BD4604B080BD5212002050120020D40D0020C02C00209C2C002080B584B000AF78600E23FB18B8
:404FC00000221A700F23FB1800221A70B9E00D23FB1800221A707B681B7D022B37D1664B1B88664A1B01D3180C331A68644B1B881B01D318D9680F23FB181A7813005B0031
:405000009B189B00CB181B7A022B20D15A4B1B885A4A1B01D3180C331A68594B1B881B01D318D9680F23FB181A7813005B009B189B00CB1858687B6804331022190003F0BB
:40504000BFF9031E03D10D23FB1801221A707B681B7D012B37D1484B1B88484A1B01D3180C331A68464B1B881B01D318D9680F23FB181A7813005B009B189B00CB181B7ACD
:40508000012B20D13C4B1B883C4A1B01D3180C331A683B4B1B881B01D318D9680F23FB181A7813005B009B189B00CB1858687B6804330222190003F083F9031E03D10D23C9
:4050C000FB1801221A700D23FB181B78012B31D1294B1B88294A1B01D3180C331A68284B1B881B01D318D9680F23FB181A7813005B009B189B00CB181B88002B1AD11E4BA4
:405100001B881E4A1B01D3180C331A681C4B1B881B01D318D9680F23FB181A7813005B009B189B00CB187A6852881A800E23FB1801221A700F23FB181A780F23FB1801323E
:405140001A700D4B1B880D4A1B01D3180C331A680B4B1B881B01D3189B7A0F22BA1812789A4205D20E23FB181B78002B00D12EE7C046BD4604B080BD50120020D40D0020D1
:405180005212002080B582B000AF786000F050F87B68180000F00AF8032000F015F800F03BF8C046BD4602B080BDC04680B582B000AF7860034B7A681A66C046BD4602B0BE
:4051C00080BDC0460000002090B585B000AF0200FB1D1A700623FB600B23FC1800F08DFC030023700B4B0B4A1268C0218A431100FA1D1078FA68904002000A431A600B23FE
:40520000FB181B78180000F07CFCC046BD4605B090BDC04608E400E080B500AF034B802252001A60C046BD4680BDC04600E100E080B500AF034B802252001A60C046BD4615
:4052400080BDC04680E100E080B500AF034B802252001A60C046BD4680BDC04680E200E080B500AF00F04CF8C046BD4680BDC04680B500AF064B064A1268802109060A431C
:405280001A6000F019F800F01DF8C046BD4680BD0000244080B500AF064B1B78002B04D1FFF7DEFF034B01221A70FFF7E1FFC046BD4680BD5A12002080B500AFC046BD4699
:4052C00080BDC04680B500AF00F07CF8C046BD4680BDC04680B582B000AF7860C046064B1B681F221340082BF9D0044B7A681A60C046BD4602B080BD0802244040022440C8
:4053000080B500AF1B4B1C4A1A601C4B00221A601B4B1C4A1A601C4B1C4A1A601C4B07221A601C4B00221A601B4B01221A601B4B164A1A601A4B00221A601A4B04221A605D
:40534000194B00221A60194B00221A60184B00221A60184B00221A60174B00221A60174B00221A60154B1B689AB2154B1A80C046BD4680BD000024400B00000240002440AF
:405380004800244001000A000003244007000080040324401003244044002440000224400402244050002440880E2440C80E2440480F2440080F2440C80F2440880F24409A
:4053C0005C12002080B500AF074B074A126807490A40902109040A431A60054B054A12881A60C046BD4680BD00010240FFFF0FFF880F24405C12002080B584B000AF78603E
:405400000023FB6009E07A68FB68D3181B781800FFF760FFFB680133FB607A68FB68D3181B78002BEFD1C046BD4604B080BDC04680B582B000AF78607B681800FFF74AFF0D
:405440000D20FFF747FF0A20FFF744FFC046BD4602B080BD80B582B000AF786000F050F87B68180000F00AF8002000F015F800F03BF8C046BD4602B080BDC04680B582B0B0
:4054800000AF7860034B7A681A67C046BD4602B080BDC0460000002090B585B000AF0200FB1D1A700623FB600B23FC1800F025FB030023700B4B0B4A1268C0218A43110079
:4054C000FA1D1078FA68904002000A431A600B23FB181B78180000F014FBC046BD4605B090BDC0460CE400E080B500AF034B802252011A60C046BD4680BDC04600E100E098
:4055000080B500AF034B802252011A60C046BD4680BDC04680E100E090B58BB000AF78602723FC1800F0E9FA03002370194B1A680C23FB181A60184B1A680C23FB185A60EC
:405540007B68033B154AD35C1A000C23FB189A60134B1A680C23FB18DA601C23FB18114A1A600C23FA181C23FB185A600E4B1C22BA181A600D4B0E4A1A600B4B1B68272326
:40558000FB181B78180000F0BCFAC046BD460BB090BDC04608010B4000010B4060D5010030001040B6EA000008001040040010401700008080B584B000AF78600023FB60C9
:4055C000154B154A126801210A431A60134B144A1A60144B134A1268802109020A431A607B68002B12D01023FB600CE0012000F05DF800F019F8031E02D00023FB6005E083
:405600007B68013B7B607B68002BEFD1FB681800BD4604B080BDC04660F02E4078002E400220000010002E4080B582B000AF054B1B68012213407B607B681800BD4602B0FF
:4056400080BDC0460C002E4080B582B000AF0200FB1D1A7001BEC046BD4602B080BDC04680B582B000AF786009E00D4B1B68180000F03AFA7B680B4A944663447B607A6892
:4056800080231B029A42F0D8074B1B687A685343180000F029FAC046BD4602B080BDC046000E00200080FFFFF80D002080B582B000AF0200BB1D1A80BB1D1B88044A127862
:4056C0005343180000F010FAC046BD4602B080BDFC0D002080B500AF0F4B0F4A126801218A431A600C4B0C4A126802218A431A600A4B0A4A126830218A4310210A431A609D
:40570000064B064A126807218A4301210A431A60C046BD4680BDC04600F02E4000FF2E4080B500AF0F4B0F4A126802218A431A600D4B0D4A126807218A4302210A431A60D6
:40574000094B094A126830218A4320210A431A60044B044A126801210A431A60C046BD4680BDC04600F02E4000FF2E4080B500AFFFF7B0FF044B044A1268802109060A432E
:405780001A60C046BD4680BD00F02E4080B584B000AF78600C4B1B6801221340FB607B68002B02D0012B03D005E0FFF793FF06E0FFF7B6FF03E00020FFF746FFC046FB68AC
:4057C0001800BD4604B080BD00F02E4090B583B000AFFC1D00F091F903002370074B074A1268C02109020A431A60FB1D1B78180000F087F9C046BD4603B090BD00010B4097
:4058000080B500AF054B1A68C0231B02134001D0012300E000231800BD4680BD00010B4090B583B000AFFC1D00F067F9030023700D4B0D4A12680D490A408021C9010A431C
:405840001A60094B084A126808490A40802109020A431A60FB1D1B78180000F052F9C046BD4603B090BDC04600010B40FF3FFFFF80B582B000AF78607B68022B02D90020F2
:40588000FFF7E2FE064B1A687B68DB000133DA401300012213401800BD4602B080BDC04610020B4080B584B000AF786039607B68022B02D90020FFF7C7FE7B681800FFF7FD
:4058C000D7FF031E16D10D4B1B687A68D200032191400A00D2431340FB603B6803221A407B68DB009A401300FA681343FB60034BFA681A60C046BD4604B080BD0C020B401C
:4059000080B584B000AF786039607B68002B02D07B68012B01D1012300E00023002B02D10020FFF791FE7B681800FFF7A1FF031E16D10D4B1B687A68D20002320121914004
:405940000A00D2431340FB607B68DB0002333A689A401300FA681343FB60034BFA681A60C046BD4604B080BD0C020B4080B582B000AF7860144B144A11687A680A431A607B
:405980007B680122134005D0C0460020FFF770FF031EFAD07A6880235B00134005D0C0460120FFF765FF031EFAD07A6880235B02134005D0C0460220FFF75AFF031EFAD063
:4059C000C046BD4602B080BD10020B4080B584B000AF786039607B68002B02D07B68012B01D1012300E00023002B02D10020FFF72BFE174B1B689B0F9B0701D1C92300E0D5
:405A00005D231800FFF752FE124B1B68FB607B681B01114A9A401300DA43FB681340FB600C4B7A68120139689140FA680A431A60074B1B689B0F9B0701D1432300E01F2376
:405A40001800FFF733FEC046BD4604B080BDC0460C020B4008020B40FFFF000080B500AF034B1B68034A13401800BD4680BDC04610020B400404040090B585B000AF78601E
:405A80000B23FC1800F039F803002370FFF7B8FE031E04D00123FB60FFF7C2FE01E00023FB607B680D4A13407B600D4B0C4A12680C4911407A680A431A60094B1B68FB689F
:405AC000012B01D1FFF782FE0B23FB181B78180000F017F8C046BD4605B090BD0404040010020B40FBFBFBFF0230800803D00138FDD1C046C046C0467047EFF3108072B6EC
:405B0000704780F31088704780B500AF09F074F8C046BD4680BDC04690B583B000AFFC1DFFF7EBFF03002370074B074A126804218A431A6030BFFB1D1B781800FFF7E1FF90
:405B4000C046BD4603B090BD10ED00E0002243088B4274D303098B425FD3030A8B4244D3030B8B4228D3030C8B420DD3FF22090212BA030C8B4202D31212090265D0030B15
:405B80008B4219D300E0090AC30B8B4201D3CB03C01A5241830B8B4201D38B03C01A5241430B8B4201D34B03C01A5241030B8B4201D30B03C01A5241C30A8B4201D3CB0256
:405BC000C01A5241830A8B4201D38B02C01A5241430A8B4201D34B02C01A5241030A8B4201D30B02C01A5241CDD2C3098B4201D3CB01C01A524183098B4201D38B01C01A68
:405C0000524143098B4201D34B01C01A524103098B4201D30B01C01A5241C3088B4201D3CB00C01A524183088B4201D38B00C01A524143088B4201D34B00C01A5241411A3E
:405C400000D20146524110467047FFE701B5002000F0F0F802BDC0460029F7D076E7704703460B437FD4002243088B4274D303098B425FD3030A8B4244D3030B8B4228D3D1
:405C8000030C8B420DD3FF22090212BA030C8B4202D31212090265D0030B8B4219D300E0090AC30B8B4201D3CB03C01A5241830B8B4201D38B03C01A5241430B8B4201D39E
:405CC0004B03C01A5241030B8B4201D30B03C01A5241C30A8B4201D3CB02C01A5241830A8B4201D38B02C01A5241430A8B4201D34B02C01A5241030A8B4201D30B02C01AB2
:405D00005241CDD2C3098B4201D3CB01C01A524183098B4201D38B01C01A524143098B4201D34B01C01A524103098B4201D30B01C01A5241C3088B4201D3CB00C01A5241F5
:405D400083088B4201D38B00C01A524143088B4201D34B00C01A5241411A00D201465241104670475DE0CA0F00D04942031000D34042534000229C4603098B422DD3030AF1
:405D80008B4212D3FC22890112BA030A8B420CD3890192118B4208D3890192118B4204D389013AD0921100E08909C3098B4201D3CB01C01A524183098B4201D38B01C01A7C
:405DC000524143098B4201D34B01C01A524103098B4201D30B01C01A5241C3088B4201D3CB00C01A524183088B4201D38B00C01A5241D9D243088B4201D34B00C01A52412D
:405E0000411A00D20146634652415B10104601D34042002B00D54942704763465B1000D3404201B5002000F005F802BD0029F8D016E770477047C0468446101C62468C469C
:405E4000191C634600E0C0461FB501F0DFFA002801D40021C8421FBD10B501F033FA4042013010BD10B501F0D1FA002801DB002010BD012010BDC04610B501F0C7FA002854
:405E800001DD002010BD012010BDC04610B501F059FA002801DC002010BD012010BDC04610B501F04FFA002801DA002010BD012010BDC0468446081C6146FFE71FB500F012
:405EC00065FB002801D40021C8421FBD10B500F0F1FA4042013010BD10B500F057FB002801DB002010BD012010BDC04610B500F04DFB002801DD002010BD012010BDC0464E
:405F000010B500F0FFFA002801DC002010BD012010BDC04610B500F0F5FA002801DA002010BD012010BDC0469E2110B5C905041CFFF7F0FF002803D1201C00F005FE10BDF6
:405F40009E21201CC90500F079FC00F0FDFD80231B069C466044F2E770B500220C4B04000D00FFF79DFF002804D12000290002F085F870BD064B00222000290001F02AFDEF
:405F800002F07CF880231B069C466044F1E7C0460000E041F8B54A02430244004E00C50F240E28009B09360EC90F92098D4259D0A01B002800DC8DE0002E1AD1002A00D0A2
:405FC00079E05A0704D00F221A40042A00D004335A0138D50134FF2C00D189E028009B015B0AE4B25B02E4055B0A2343C0071843F8BDFF2CE5D08021C9040A431B2800DDEF
:4060000089E016002021C640081A8240511E8A4132439B1A5A0114D59B019E09300002F085F905388640844265DC041B330020200134E340041BA640721E96410024334331
:40604000BFE75A07BFD1DF082800FF2C2FD1002F00D187E08022D20313003B435B025B0AFF24BFE7A11B002949DD002E29D0FF2CA7D08026F60432431B2900DD8DE01700C7
:406080002026CF40711A8A40511E8A413A439B185A01D6D50134FF2C64D0012276491A405B080B4013438CE7031ECAD100207B025B0AE4B296E701380028AAD0FF2C9DD13A
:4060C0007FE7002A00D17CE701390029DFD0FF2CD2D176E7002820D1601CC0B2012853DD80279E1AFF0437402FD0D61A0D0095E72800002376E7614B241A334061E7002978
:406100004DD1611CCEB2012E2FDDFF292AD09B185B080C0055E701227BE7002C1BD1002B5BD0C04300280CD0FF2E7ED01B2800DD92E01D002024C540201A8340581E8341E5
:406140002B43D31A34000D0064E7002E00D065E700200024ABE7FF2E67D08024E40440422343E3E7FF2400233CE7002C61D1002B7ED0002A00D124E79B185A0100D460E707
:406180003E4A0C0013401CE7002C1ED1002B2FD1002A66D013000D0013E7012277E7002C1FD1002B5AD0C94300290BD0FF2E50D01B295FDC1F002024CF40611A8B40591E38
:4061C0008B413B439B18340062E7002B1CD1002A4AD013000D00FF24F3E6130034000D00EFE6FF2E35D08024E40449422343DFE7002A00D1E5E68027981AFF04074000D1D5
:4062000052E7D31A0D00DCE6FF24002A00D1D8E68020DB08C003034204D0D208024201D113000D00DB00FF24CBE61300FF240D00C7E6002B0DD0FF24002A00D1C1E6802111
:40624000DB08C9030B42EDD0D2080A42EAD11300E8E71300FF24B4E6012372E713003400AFE60027002022E780270020FF03F1E61300A6E60123A5E7FFFFFF7DFFFFFFFBC8
:40628000F0B5564644465F464D46F0B444024600C70F83B08846650A360EBA463DD0FF2E22D00023EC00802599469B46ED0425437F3E43465C025800DB0F640A000E9846E8
:4062C00036D0FF2830D080230021E400DB041C437F38301A0190484642460843724E800030587A4013008746002D44D108239946063B9B46DDE70122FF2000241A406402DE
:40630000C305640AD2071C431443200003B03CBC90469946A246AB46F0BD002D20D104239946033B9B46C4E7002C17D1022102E0002C0AD10121321A01924A4643460A431D
:406340005A48920082587B409746200001F0EEFF431F76309C4040420021BAE70321B8E7280001F0E3FF431F9D4000237630464299469B469DE70C239946093B9B4698E70D
:4063800080240022E403FF20B9E70024C2468B465A465346022AAED0032A7DD0012A31D1012200201A400024A9E70122101A1B2856DD1A4000200024A1E78023DB031D42D0
:4063C0004BD18023DB032B435C02640A3A00FF2095E76D016001854230D2019A0024013A01921B220127290064006D00002901DBA84201D82D1A3C43013A002AF3D16A1E2E
:4064000095412C4301987F300028CEDD620704D00F222240042A00D00434220103D5244A019814408030FE2800DD64E70122A401640AC0B21A4062E72C00A9E72D1A1A2218
:406440000124CFE76B02BCD500248023DB031C436402640A4246FF2051E71C42B3D1F4E721002022C140101A8440621E94410C43620704D00F222240042A00D00434620170
:4064800004D5012201201A40002438E70122A401640A1A40002032E78023DB031C436402640A5246FF202AE790D50100D0D50100FFFFFFF7430270B542004C005D0AC30FAC
:4064C0004802120E460A240EC90FFF2A0FD0FF2C11D00120A24200D070BDB542FCD18B420DD0002AF8D12800431E9841F4E70120002DF1D1EBE70120002EEDD1E9E7002045
:40650000EAE7C0464302F0B542005D0AC30F4802440A4800120E000EC90FFF2A1FD0FF2822D0002A09D16E426E4100280FD1002C0DD10020002D09D005E0002801D1002C62
:4065400001D08B4213D0584201231843F0BD002EF7D048424141012049420843F6E7002DDDD002204042F1E7002CDAD0F9E78242E9DC04DBA542E6D80020A542E6D258428D
:40658000434101205B421843E0E7C0464302F0B542004C005E0AC30F4802120E450A240EC90FFF2A17D0FF2C19D0002A0BD170427041002C17D0002807D048424141012030
:4065C00049420843F0BD002C13D08B4214D0584201231843F6E70220002EF3D1E3E70220002DEFD1E1E7002DE5D10020002EE9D0EDE7002DE9D1EAE7A242E8DC04DBAE42C0
:40660000E5D80020AE42DDD25842434101205B421843D7E7F0B557464E4645464300E0B446028846760A1F0EC40F002F47D0FF2F25D0002380259A469946F600ED042E43D3
:406640007F3F434642465D02D20F5B006D0A1B0E904640D0FF2B39D080220020ED00D20415437F3BFB1842465746591C62408C4607430F2F5CD86F49BF00C9598F46002EE7
:4066800045D108239A46063B9946DAE7424602282DD0032800D1C3E0012800D0A2E0002500260240D4B27602ED05760A2E43E407264330001CBC90469946A246F0BD002ECD
:4066C0001AD104239A46033B9946BAE72A00511E8A41901CC6E70120002DC3D0280001F025FE431F76309D4043420020BAE70124FF2514400026D6E7300001F017FE431FCD
:406700009E400023763047429A46994699E70C239A46093B994694E780260024F603FF25C1E735004846B2E7350022004846AEE72904090C0800370C3604360C2C0C7943DB
:40674000704367437443060C64183619B14203D980214902884647440004000C310409188D01681E8541890E2943350CED19AD010D43290104D5012369081D4063460D439E
:4067800019007F31002925DD680704D00F202840042800D00435280103D5274980330D401900FE29A3DC0124AD016E0A1440CDB279E78020C003064207D0054205D128431E
:4067C0004602760A4446FF256DE706437602760AFF2568E70124611A1B2905DD14400025002660E76346CBE72E002023CE40591A8D406B1E9D412E43730704D00F2333408A
:40680000042B00D00436730104D5012401251440002648E70124B601760A1440002542E780260124F6032E437602760A1440FF2539E7C04610D60100FFFFFFF7F8B54A0241
:406840004E0043024400240EC50F9B09360EC90F9209FF2E00D183E001204140A01BA9425CD0002800DC95E0002E1CD1002A00D081E05A0704D00F221A40042A00D0043327
:406880005A013BD50134FF2C00D191E001209B015B0AE4B205405B02E4055B0AED0723432B431800F8BDFF2CE3D08021C9040A431B2800DD90E016002021C640081A824024
:4068C000511E8A4132439B1A5A0115D59B019E09300001F02BFD0538864084426CDC041B330020200134E340041BA640721E964100243343BDE70D005A07BCD1DF080123B8
:406900001D40FF2C33D1002F00D190E08022D20313003B435B025B0AFF24BCE700284FDD002E2ED0FF2CA4D08025ED042A431B2800DD97E016002025C640281A8240501E3F
:40694000824132439B185A01D5D50134FF2C6DD001227B481A405B08034013430D0088E7002A00D07AE777E7031EC5D100257B025B0AE4B28FE701380028A4D0FF2C97D1E7
:4069800077E7002A00D174E701380028DAD0FF2CCDD16EE7002821D1601CC0B2012858DD80279E1AFF0437402FD0D61A0D008FE701231D4000236EE7624B241A334058E7B3
:4069C000002851D1601CC6B2012E33DDFF282DD09B185B0804004CE7012274E7002C1AD0FF2E1FD08024E404404223431B2800DD96E01D002024C540201A8340581E834152
:406A00002B43D31A34000D005EE7002E00D05FE700250024ABE7002B44D0C0430028F0D0FF2EE3D11300FF240D0022E70D00FF24002330E7002C5DD1002B7DD0002A00D1C8
:406A400017E79B185A0100D456E73E4A040013400FE7002C1ED1002B2FD1002A65D013000D0006E701226DE7002C1FD1002B59D0C04300280BD0FF2E4FD01B285EDC1D009F
:406A80002024C540201A8340581E83412B439B18340058E7002B1CD1002A49D013000D00FF24E6E6130034000D00E2E6FF2E34D08024E40440422343DFE7002A00D1D8E618
:406AC0008027981AFF04074000D14DE7D31A0D00CFE6FF24002A00D1CBE68020DB08C003034204D0D208024201D113000D00DB00FF24BEE6002B10D0FF24002A00D1B8E698
:406B00008020DB08C003034203D0D208024200D11300DB000D00FF24ABE61300FF24A8E601236EE713003400A3E6002700251EE780270025FF03E9E613009AE60123A6E71A
:406B4000FFFFFF7DFFFFFFFB4302590A4300C20F1B0E00207E2B0EDD9D2B0DDC802000040143952B0BDC9620C31AD9400B005842002A00D118007047034BD018FBE7963BC6
:406B800099400B00F3E7C046FFFFFF7F70B5002830D0C317C5185D40C40F280001F0C6FB9E231B1A962B0DDC9622D21A95406A02520AD8B25202C005520AE40702432243D2
:406BC000100070BD992B19DC9922D21A9540124A2A40690704D00F210D40042D00D00432510103D50C4B1A409F231B1A9201520AD8B2DFE7002400200022DBE705222E00D7
:406C0000121AB921D6402A00C91A8A40551EAA4135001543DBE7C046FFFFFFFB70B5041E28D001F083FB9E231B1A962B0ADC9622D21A94406202520AD8B25202520AC00534
:406C4000104370BD992B18DC9922D21A9440114A2240610704D00F210C40042C00D00432510103D50B4B1A409F231B1A9201520AD8B2E2E700200022DFE705222500121A23
:406C8000B921D5402200C91A8A40541EA2412C001443DCE7FFFFFFFBF0B556464D4644465F46F0B41D000E034C00CB0F87B0070092468146360B640D98466AD06D4B9C424B
:406CC00035D08022430F12041343F6001E43C3009946694B00279C460023644402932B0368001B0BED0F51469B46400D009500D178E0604B98426CD05B46DA004B0F8021A7
:406D000009040B4313439B465346D9005A4B9C46002360444246201A6A40924601901F430F2F00D9B0E05548BF00C0598746374300D088E00023994602330827002602930E
:406D4000CDE74346B34649460093029B009A9246022B00D0BFE1002153460122002689461A40444B002136030C0D2405360B2643434C1B0526401E437600D2077608164372
:406D80004846310007B03CBC90469946A246AB46F0BD330003434FD0002E00D1BCE1300001F0C4FA03000B3B1C2B00DDADE11D220100D31A08393A008F408E40DA40B946BE
:406DC0001643304B00279C46002360444442029385E753465A4613432CD1002300219B46023397E70B4320D05B46002B00D19EE1584601F09BFA03000B3B1C2B00DD8FE1A9
:406E000002005946083A91408B461D21CB1A5146D9400B0059460B4351469B469140194B9C4660444042002374E7002300219B4601336FE703236DE7002399460133042745
:406E4000002602934BE703230C27029347E70122D51A382D00DCB0E153461A4000210023002689467EE700238026994600223603004B77E7FF07000001FCFFFF50D60100C0
:406E8000FFFF0F80F30300005E4500D972E100D16DE1019B4D46013B01930023340002935B461E020B0E1E430B020393330C994633041B0C494620000093FEF747FE009B05
:406EC000370043430600494620009846FEF7C4FE2C0C09040C43A04509D9E419731EA74200D95CE1A04500D859E1023EE4194346E41A49462000FEF729FE0300009A8046BA
:406F00005343494620009B46FEF7A6FE2A040904120C0A4393450DD94346D219013B974200D93AE1934500D837E102235B429C46D219E0445B46D21A4346360433439B468F
:406F40000399180C0B0C1D00059309045B46090C0C001B041B0C4443049159436B4368431B190D0CEB189C4203D980246402A44660441C0C09041B04090C20185D188242E3
:406F800000D2DEE000D1D7E0161A029B9C465D1BAC459B415B42F61AB74200D106E149463000FEF7D3FD009B04004343494630009846FEF751FE2E0C09040E43B04509D96E
:406FC000F619631EB74200D9F3E0B04500D8F0E0023CF6194346F31A494618000293FEF7B5FD009B06004343494602989846FEF733FE2D0409042D0C0D43A84509D9ED1909
:40700000731EAF4200D9D6E0A84500D8D3E0023EED192404210043463143049E059A3000ED1A0B040C0C1B0C58436643534354439A19030C9B189E4203D980225202944603
:4070400064441A0C00041B04000C14191B18A54250D34DD001231943964A019B94466344002B00DCF3E64A0709D00F220A40042A05D00A1D8A42894149428B4411005A46BF
:40708000D20108D55A468C4B1A4093468022D2009446019B6344894A934200DD5BE65A46C908500708435602514601225B058146360B5B0D0A4055E680231B031E4211D0A3
:4070C0005A461A420ED15E461E433603360B2A0089467B4B46E6032B00D1E1E0012BBBD11A40BBE61E433603360B4246744B39E6002BB1D07D194A1EAF4252D91100A542D9
:40710000A8D1039A9A42A5D1A6E703003E00283B9E400023994654E601F008F9203041E603005246283B9A400021934677E6504601F0FCF820305EE6029B0026AB4200D372
:4071400023E7039E0299B44661448846B045B6415B467642F619B218013B0291974213D290424FD800D18EE0161A9B460DE7894500D28EE674084B46F60735005B081D435E
:407180004B46DB0702938BE69742EDD10399029CA142E5D93E1A9B46F7E69846CAE61E00A5E6AC423ED874D0110053E70121494252E71C000EE71E002BE71F2D3CDC202336
:4071C0000A0058465B1B9840EA4099400243481E81415E461143EE404B0709D00F230B40042B05D00B00191D99429B415B42F61833023CD55346012200211A4000260123ED
:407200008946AFE502235B429C46039CE344A446029B63449846A045B6417642F6190293B218B1E603988A1E41008142B6417642F619AD19039161E71F225242D31A5A46D3
